S0140000466173616C466C61736865722E7372656364
S3150800000000000120BD0A00080D0800080F080008B6
S31508000010170800081F080008270800080000000045
S315080000200000000000000000000000002F08000883
S3150800003031080008000000003308000835080008E9
S31508000040050B0008050B0008050B0008050B000842
S31508000050050B00083D080008050B0008050B0008FD
S31508000060050B0008050B0008050B0008050B000822
S31508000070050B0008050B0008050B0008050B000812
S31508000080050B0008050B0008050B0008050B000802
S31508000090050B0008050B0008050B0008050B0008F2
S315080000A0050B0008050B0008050B0008050B0008E2
S315080000B0050B0008050B0008050B0008050B0008D2
S315080000C0050B0008050B0008050B0008050B0008C2
S315080000D0050B0008050B0008050B0008050B0008B2
S315080000E0050B0008050B0008050B0008050B0008A2
S315080000F0050B0008050B0008050B0008050B000892
S31508000100050B0008050B0008050B0008050B000881
S31508000110050B0008050B000841080008050B000838
S31508000120050B0008050B0008050B0008050B000861
S3150800013000000000000000000000000000000000B1
S3150800014000000000000000000000000000000000A1
S315080001500000000000000000000000000000000091
S315080001600000000000000000000000000000000081
S315080001700000000000000000000000000000000071
S315080001800000000000000000000000000000000061
S315080001900000000000000000000000000000000051
S315080001A00000000000000000000000000000000041
S315080001B00000000000000000000000000000000031
S315080001C00000000000000000000000000000000021
S315080001D00000000000000000000000000000000011
S309080001E05FF8E0F1E5
S315080001E410B5054C237833B9044B13B10448AFF35F
S315080001F400800123237010BDE000002000000000E9
S3150800020444C3000808B5034B1BB103490348AFF3BD
S31508000214008008BD00000000E400002044C3000874
S31508000224034613F8012B002AFBD1181A0138704724
S31508000234430803F05533C01A830803F0333300F038
S315080002443330184400EB101000F00F3000EB002098
S3150800025400EB0040000E704708B50548054B0360DF
S3150800026400F06EFD00B908BD00F014F9FBE700BF05
S31508000274FC000020003002400268094B9A4200D074
S31508000284704782B0A3F500535A6942F040025A6196
S315080002945B6903F040030193019B02B0704700BFFA
S315080002A4003002402DE9F04788B0002404940594F0
S315080002B406940794494B9A6942F010029A619A691E
S315080002C402F010020092009A9A6942F020029A619A
S315080002D49A6902F020020192019A9A6942F004028C
S315080002E49A619A6902F004020292029A9A6942F0A1
S315080002F408029A619B6903F008030393039BDFF8DA
S31508000304E08022461021404601F018F8354F22466F
S3150800031441F23811384601F011F8DFF8CC9022463C
S315080003244FF4E051484601F009F840F2FF330493CC
S315080003340325059504A9484600F062FD012604969E
S315080003442A4B0593069404A9404600F059FD49F63C
S3150800035402130493059504A9404600F051FD1023A1
S315080003640493059606944FF0020ACDF81CA00DEBEB
S315080003740301404600F044FD40F605430493059402
S31508000384069404A9384600F03BFD40F20223049380
S31508000394059504A9384600F033FD41F23813049351
S315080003A405960694CDF81CA004A9384600F028FD45
S315080003B44FF4E053049305960694CDF81CA004A9BB
S315080003C4484600F01DFD04230493059504A908482E
S315080003D400F016FD08B0BDE8F08700BF0010024023
S315080003E400080140000C01400010014000001110F3
S315080003F40014014008B50B480B4B03600B4B4360D4
S3150800040400238360C3604FF48042026143618361C1
S31508000414C361036200F0AEFF00B908BD00F03AF804
S31508000424FBE700BF0401002000540040A086010039
S3150800043410B586B0002302930393049305930268C8
S31508000444114B9A4201D006B010BD104CA36943F073
S315080004540803A361A36903F008030093009BC02360
S315080004640293122303930323059302A9084800F071
S31508000474C7FCE36943F40013E361E36903F4001377
S315080004840193019BDFE700BF0054004000100240BF
S31508000494000C014008B505F067F808BD00B597B02B
S315080004A4282200210CA80AF0F3FF002307930893D7
S315080004B409930A930B930193029303930493059365
S315080004C4069305230C934FF480330D9301220F9260
S315080004D410920222139214934FF4E01315930CA866
S315080004E401F0AAF8C8B90F2307930221089100233B
S315080004F409934FF480620A920B9307A801F06AFBEA
S3150800050470B9012301934FF48073029301A801F093
S315080005149DFC40B917B05DF804FBFFF7BBFFE2E7A3
S31508000524FFF7B8FFEDE7FFF7B5FFF3E708B500F007
S315080005340FFBFFF7B3FFFFF7B5FEFFF78DFEFFF7D7
S3150800054459FF00F019F800F05DF800F07DF800F0A6
S3150800055415FA00F02DFA03F0E1F800F0C7F905F0F2
S3150800056411FBFCE708B5024B024A05F019F808BD69
S3150800057464C3000868C3000800B583B00023009369
S3150800058401930E480E4A02604FF0FF3242608360C0
S3150800059401F0F2FD58B90123009302230193694639
S315080005A4064801F06BFE28B903B05DF804FBFFF7B3
S315080005B471FFF0E7FFF76EFFF6E700BF580100206A
S315080005C40028004002680C4B9A4200D0704700B5D8
S315080005D483B001F015F8094BDA6942F00062DA6172
S315080005E4DB6903F000630193019B054B0122C3F801
S315080005F43C2403B05DF804FB0028004000100240C8
S315080006040000424208B50E480E4B03604FF482734D
S31508000614436000238360C360036143614FF400723F
S3150800062482610822C2610362436283620A23C36247
S3150800063401F016FF00B908BDFFF72CFFFBE700BF62
S31508000644C40100200030014008B50D480D4B036075
S315080006544FF48273436000238360C360036143617C
S315080006644FF400728261C3610362436283620A23A0
S31508000674C36201F0F5FE00B908BDFFF70BFFFBE7FF
S315080006846C0100200038004010B588B0002304939C
S3150800069405930693079303682C4A934204D02C4A7D
S315080006A4934229D008B010BD2A4B9A6942F4805265
S315080006B49A619A6902F480520092009A9A6942F001
S315080006C404029A619B6903F004030193019BA02326
S315080006D4049302230593032307931F4C04A9204676
S315080006E400F08EFB4023049300230593069304A984
S315080006F4204600F085FBD5E7164BDA6942F48042BA
S31508000704DA61DA6902F480420292029A9A6942F03C
S3150800071408029A619B6903F008030393039B4FF449
S315080007242043049302230593032307930B4C04A93C
S31508000734204600F065FB4FF4804304930023059399
S31508000744069304A9204600F05BFBABE700300140A2
S31508000754003800400010024000080140000C014027
S3150800076408B503680E4A934203D00E4A93420BD047
S3150800077408BD02F56042936923F480539361E0212E
S31508000784094800F013FDF3E702F5EC32D36923F4C4
S315080007948043D3614FF46041044800F007FDE7E75E
S315080007A4003001400038004000080140000C0140B8
S315080007B400B583B0124B9A6942F001029A619A69AC
S315080007C402F001020092009ADA6942F08052DA6174
S315080007D4DB6903F080530193019B0022114605202F
S315080007E400F052FA052000F073FA064A536823F01B
S315080007F4E06343F00073536003B05DF804FB00BF85
S315080008040010024000000140FEE708B504F0BAFEF5
S31508000814FEE708B504F0B6FEFEE708B504F0B2FE36
S31508000824FEE708B504F0AEFEFEE77047704770476A
S3150800083408B500F09FF908BD7047000008B50248DE
S3150800084402F0A2FA08BD00BF2002002070B50C46CB
S315080008541646002506E0AFF30080214601F8010B91
S3150800086401350C46B542F6DB304670BD70B50C460C
S315080008741646002504E014F8010BAFF30080013591
S31508000884B542F8DB304670BD4FF0FF3070474FF481
S3150800089400534B60002070470120704700207047C2
S315080008A410B503460C4A0D490D48006840B10C487A
S315080008B400680344521A934206D8094A136010BDC5
S315080008C40748084C0460F2E70AF06EFE0C2303603E
S315080008D44FF0FF30F3E700BF0000012000100000CE
S315080008E41C02002038D000207047000000B583B0F1
S315080008F40023009301930F480F4A026040F67F4293
S31508000904426083606322C260836102F047FB50B988
S315080009140023009301936946064802F0CBFB28B9E5
S3150800092403B05DF804FBFFF7B5FDF1E7FFF7B2FD89
S31508000934F6E700BF200200200010004002680E4BB4
S315080009449A4200D0704700B583B003F50033DA69DC
S3150800095442F01002DA61DB6903F010030193019B8C
S3150800096400221146362000F08FF9362000F0B0F93F
S3150800097403B05DF804FB00BF0010004008B50A4840
S315080009840A4B03604FF4E133436000238360C3607A
S3150800099403610C2242618361C36102F0CFFC00B992
S315080009A408BDFFF777FDFBE7B002002000380140D9
S315080009B408B50A480A4B03604FF4E1334360002341
S315080009C48360C36003610C2242618361C36102F0E0
S315080009D4B5FC00B908BDFFF75DFDFBE7680200201A
S315080009E40044004010B588B0002304930593069389
S315080009F4079303682C4A934204D02C4A93422BD07B
S31508000A0408B010BD2A4B9A6942F480429A619A69E1
S31508000A1402F480420092009A9A6942F004029A61AA
S31508000A249B6903F004030193019B4FF40073049339
S31508000A3402230593032307931E4C04A9204600F0BA
S31508000A44DFF94FF48063049300230593069304A9FE
S31508000A54204600F0D5F9D3E7154BDA6942F400329B
S31508000A64DA61DA6902F400320292029A9A6942F069
S31508000A7404029A619B6903F004030393039B04230A
S31508000A84049302230593032307930A4C04A92046D7
S31508000A9400F0B6F90823049300230593069304A9E2
S31508000AA4204600F0ADF9ABE70038014000440040A9
S31508000AB40010024000080140FFF716FF0B480C49D6
S31508000AC40C4A002302E0D458C4500433C4188C4298
S31508000AD4F9D3094A094C002301E013600432A242FF
S31508000AE4FBD30AF067FDFFF721FD704700000020DD
S31508000AF4C4000020C0DE0008E000002034D0002036
S31508000B04FEE7000010B504460E4B1A784FF47A73C4
S31508000B14B3FBF2F30C4A1068B0FBF3F000F0FCF8F0
S31508000B2468B90F2C01D901200AE0002221464FF0AA
S31508000B34FF3000F0A9F8054B1C60002000E00120F6
S31508000B4410BD00BF0400002000000020080000209B
S31508000B5408B5074A136843F010031360032000F02E
S31508000B6475F80F20FFF7CEFFFFF722FE002008BD19
S31508000B7400200240034A1168034B1B780B44136098
S31508000B84704700BFF802002004000020014B1868D3
S31508000B94704700BFF802002038B50446FFF7F6FF91
S31508000BA40546B4F1FF3F02D0044B1B781C44FFF7FB
S31508000BB4EDFF401BA042FAD338BD00BF0400002055
S31508000BC400280CDB00F01F02400901239340203063
S31508000BD4034A42F82030BFF34F8FBFF36F8F704735
S31508000BE400E100E0002808DB0901C9B200F1604011
S31508000BF400F5614080F80013704700F00F00090102
S31508000C04C9B2014B1954704714ED00E000B500F061
S31508000C140700C0F1070CBCF1040F28BF4FF0040C01
S31508000C24031D062B0FD9C31E4FF0FF3E0EFA0CF018
S31508000C3421EA000199400EFA03FE22EA0E0241EA6D
S31508000C4402005DF804FB0023EEE7000010B5044635
S31508000C54C31E042B0FD80A4AD36823F4E0631B0483
S31508000C641B0C240204F4E064234343F0BF6343F4F7
S31508000C740033D36010BD91210248FFF773FCEAE7FD
S31508000C8400ED00E090C3000870B506460C4615460C
S31508000C940F2A0ED80F2C11D80B4BD8682A46214692
S31508000CA4C0F30220FFF7B2FF01463046FFF79AFF6A
S31508000CB470BDA9210548FFF755FCEBE7AA210348AF
S31508000CC4FFF750FCE8E700BF00ED00E090C300081A
S31508000CD408B5002808DB00F01F02400901239340E9
S31508000CE4044A42F8203008BDBD210348FFF73AFC00
S31508000CF4F9E700BF00E100E090C3000810B5041E40
S31508000D0403DB2046FFF75CFF10BDCD210148FFF742
S31508000D1429FCF6E790C300080138B0F1807F0BD2AE
S31508000D244FF0E0235861054AF02182F82310002089
S31508000D34986107221A6170470120704700ED00E0A8
S31508000D44A0B110B504460268094B9A4203D068213B
S31508000D540848FFF707FC63791BB101236371002078
S31508000D6410BD23712046FFF787FAF6E7012070477E
S31508000D7400300240CCC30008844602234371002392
S31508000D84934211D200B5DCF8000051F823E0C0F80C
S31508000D9400E001339342F6D3DCF8003018680123E7
S31508000DA48CF805305DF804FB0368186801238CF891
S31508000DB405307047034690F82120D2B2022A06D09D
S31508000DC404228263002280F82020012070470168EB
S31508000DD40A6822F00E020A6001680A6822F0010213
S31508000DE40A60026CC06B012101FA02F2426083F8C0
S31508000DF42110002083F820007047806B704700009C
S31508000E042DE9F04383B007460E46864B98421BD01D
S31508000E1403F58063984217D003F58063984213D08C
S31508000E2403F5806398420FD003F5806398420BD08C
S31508000E3403F58063984207D003F58063984203D08C
S31508000E44BD217948FFF78EFB33689AB212B1B3F520
S31508000E54803F03D3BE217448FFF784FB7368012BD4
S31508000E6411D9724A93420ED014D8A2F5801293422D
S31508000E7409D003D96E4A934205D016E0032B06D946
S31508000E84113B012B11D84FF000094D4608E1022BFE
S31508000E940BD3F8E7674A9342F5D002F580329342BA
S31508000EA4F1D0A2F580129342EDD0BF215E48FFF738
S31508000EB459FBE8E7604A934210D007D95D4A934242
S31508000EC40CD002F58032934208D01AE0A2F58012BB
S31508000ED4934203D002F5702293420ED1B368022BD3
S31508000EE400F28980B368002B00F09180012B00F092
S31508000EF487807C614FF0080903E0A2F580129342CB
S31508000F04ECD0B8F1FF0F00F285803846AA000368D2
S31508000F140F21914023EA010309FA02F213430360FD
S31508000F24736813F0805F00F0BA80444B9A6942F004
S31508000F3401029A619B6903F001030193019BAA08C4
S31508000F44911C3F4B53F8210005F0030189000F2338
S31508000F548B4020EA0300334B9F4273D003F580632A
S31508000F649F4200F0F78003F580639F4200F0F48007
S31508000F7403F580639F4200F0F18003F580639F4286
S31508000F8400F0EE8003F580639F4248D006235AE0BA
S31508000F94F368013B022B02D8D6F80C90B1E7D521A9
S31508000FA42148FFF7DFFAF7E7F368013B022B03D87A
S31508000FB4F36803F10409A4E7DC211B48FFF7D2FA16
S31508000FC4F6E7F368013B022B03D8F36803F1080933
S31508000FD497E7E3211448FFF7C5FAF6E7F368013BF8
S31508000FE4022B03D8F36803F10C098AE7EA210E48B1
S31508000FF4FFF7B8FAF6E7F7210B48FFF7B3FA71E7F4
S315080010043C614FF008097CE74FF0000979E74FF097
S31508001014040976E7381DA5F10802920077E7052347
S3150800102411E000BF0008014004C4000800002110B4
S3150800103400001210000031100000221000100240B7
S315080010440000014000238B4003430232534941F810
S315080010542230736813F4801F00F08480504A936822
S3150800106443EA08039360736813F4001F00F0808052
S315080010744B4AD36843EA0803D360736813F4003F02
S315080010847CD0474A536843EA08035360736813F4E9
S31508001094803F79D0424A136843EA0803136001354E
S315080010A4336833FA05F275D00124AC4003EA040820
S315080010B434EA0303F3D13B4B9F421BD003F5806309
S315080010C49F4217D003F580639F4213D003F58063CC
S315080010D49F420FD003F580639F420BD003F58063CC
S315080010E49F4207D003F580639F4203D0CD212E4843
S315080010F4FFF738FA7368122B3FF6DCAE122B3FF66D
S3150800110400AF01A252F823F0E10E0008950F00087B
S31508001114C70F00080D100008070F0008070F00087E
S31508001124070F0008070F0008070F0008070F000835
S31508001134070F0008070F0008070F0008070F000825
S31508001144070F0008070F0008070F0008AD0F00086F
S31508001154E10F0008012376E7022374E7032372E705
S31508001164042370E70E4A936823EA080393607AE730
S315080011740B4AD36823EA0803D3607EE7084A536810
S3150800118423EA0803536081E7054A136823EA080338
S31508001194136084E703B0BDE8F08300BF0000014094
S315080011A4000401400008014004C40008F8B50446D8
S315080011B40D46544B98421CD003F58063984218D0C8
S315080011C403F58063984214D003F58063984210D0DF
S315080011D403F5806398420CD003F58063984208D0DF
S315080011E403F58063984204D04FF4B4714648FFF778
S315080011F4B9F9ABB213B1B5F5803F04D340F269111E
S315080012044148FFF7AFF900221FE04FF0050C01E053
S315080012144FF0000C0CFA01F1814250D0FF2B68D82C
S31508001224A6464FEA820CDEF800100F2000FA0CF0EE
S3150800123421EA0001042000FA0CF00143CEF800105C
S31508001244E16821EA0303E360013235FA02F357D071
S31508001254012393402B40F7D09708B81C2B4951F823
S31508001264200002F0030189000F2606FA01FE0EEAA1
S315080012740000244EB442CBD006F58066B44212D0A0
S3150800128406F58066B44211D006F58066B44210D0DD
S3150800129406F58066B4420FD006F58066B442B4D02B
S315080012A44FF0060CB6E74FF0010CB3E74FF0020C0B
S315080012B4B0E74FF0030CADE74FF0040CAAE7144966
S315080012C4086820EA03000860486820EA03004860C2
S315080012D4C86820EA0300C860886820EA03008860B2
S315080012E40A4EB91C56F8210020EA0E0046F82100D9
S315080012F494E704F1040EA2F1080C4FEA8C0C92E769
S31508001304F8BD00BF0008014004C4000800000140FD
S315080013140004014038B504460D4621B1A3681D42B0
S3150800132407D0012038BD4FF4DA710348FFF71AF9DC
S31508001334F4E70020F6E700BF04C4000870B50546C4
S3150800134414460E4621B1012C08D86CB12E6170BD25
S315080013544FF4EA710648FFF705F9F4E740F2D511A8
S315080013640348FFF7FFF8F0E736042E61EFE700BFFE
S3150800137404C40008002800F02F8170B504460368E9
S31508001384974A934208D002F58062934204D040F209
S31508001394DB119448FFF7E6F86368013B924A9342E7
S315080013A46ED8A36813B1B3F5804F6FD1E368B3F56C
S315080013B4806F71D22369B3F5804F02D0B3F5404FDD
S315080013C470D16369012B73D8A36933F0FE0375D111
S315080013D4E3690BB1402B77D1236A0BB1802B79D102
S315080013E494F83D30002B7BD0242384F83D302268C2
S315080013F4136823F0010313602268136843F4004357
S3150800140413602268136823F40043136000F0FEFC9B
S315080014146268764B9A4269D8754B98428CBF00230A
S315080014240123002B40F0DA807249A1FB00318B0CB2
S3150800143425686A6822F03F0242EA91426A60216896
S315080014440A6A22F03F026668684DAE4254D80133F0
S3150800145413430B622168CA6922F44F4222F0FF0241
S315080014646568624B9D4251D8431E6D00B3FBF5F384
S31508001474013340F6FC7003427ED0C3F30B037CE0D1
S315080014844FF4EE715748FFF76DF88AE740F2DD111D
S315080014945448FFF767F889E74FF4EF715148FFF7A7
S315080014A461F887E740F2DF114E48FFF75BF888E7F3
S315080014B44FF4F0714B48FFF755F885E740F2E11110
S315080014C44848FFF74FF883E74FF4F1714548FFF7AB
S315080014D449F881E740F2E3114248FFF743F87FE70A
S315080014E484F83C302046FEF7A3FF7DE7424B98423A
S315080014F48CBF0023012394E74FF4967505FB03F389
S315080015043E4DA5FB03539B090133A1E7A668C6B95B
S31508001514431E05EB450CB3FBFCF30133C3F30B0382
S31508001524B3FA83F35B09002B54D1C6B9431E05EB02
S315080015344505B3FBF5F30133C3F30B0343F4004347
S315080015441BE0431E05EB850C0CEB8C0CB3FBFCF380
S315080015540133C3F30B03B3FA83F35B09E3E7431ECF
S3150800156405EB850505EB8505B3FBF5F30133C3F3F5
S315080015740B0343F4404300E004231A43CA61216879
S315080015840B6823F0C003E269206A024313430B6025
S3150800159421688B6823F4034323F0FF032269E06878
S315080015A4024313438B602168CB6823F0FF03626907
S315080015B4A06902431343CB602268136843F001030E
S315080015C4136000202064202384F83D30206384F8C7
S315080015D43E0070BD0123D0E7012070470120F8E7DB
S315080015E40054004040C400087F1A0600A086010083
S315080015F47F841E0083DE1B43FF083D00D34D621023
S31508001604014B01221A62704700000E4282B0084B51
S315080016141B68084AA2FB03235B0A00FB03F3019336
S3150800162400BF019B5A1E0192002BF9D102B07047E4
S3150800163400000020D34D6210002800F0898270B59E
S3150800164482B00446036813B113F00F0F2AD0236837
S3150800165413F0010F40D063682BB1B3F5803F02D075
S31508001664B3F5A02F24D19C4B5B6803F00C03042B21
S3150800167429D0994B5B6803F00C03082B1ED06368CA
S31508001684B3F5803F55D0002B69D103F1804303F5A8
S3150800169404331A6822F480321A601A6822F4802203
S315080016A41A604BE040F265118C48FEF75BFFCEE703
S315080016B440F26B118948FEF755FFD4E7864B5B6801
S315080016C413F4803FDBD0844B1B6813F4003F03D02C
S315080016D46368002B00F03E82236813F0020F00F0C3
S315080016E489802369012B63D863691F2B66D87A4BD3
S315080016F45B6813F00C0F6CD0774B5B6803F00C0334
S31508001704082B61D02369002B00F09A80744B0122C0
S315080017141A60FFF73BFA05466F4B1B6813F0020F76
S3150800172440F08580FFF732FA401B0228F4D90320DB
S3150800173415E2694A136843F480331360636843B354
S31508001744FFF724FA0546644B1B6813F4003FC3D11C
S31508001754FFF71CFA401B6428F5D90320FFE1B3F50B
S31508001764A02F09D05C4B1A6822F480321A601A68D2
S3150800177422F480221A60E1E703F18043A3F53C339F
S315080017841A6842F480221A601A6842F480321A608F
S31508001794D4E7FFF7FBF905464F4B1B6813F4003FE4
S315080017A49AD0FFF7F3F9401B6428F5D90320D6E14C
S315080017B440F29F114948FEF7D5FE95E74FF4D071DC
S315080017C44648FEF7CFFE92E7434B5B6813F4803F27
S315080017D498D1414B1B6813F0020F03D02369012BE0
S315080017E440F0BA813C4A136823F0F803616943EA76
S315080017F4C1031360236813F0080F3CD0A369012BB7
S3150800180430D8A369002B6FD0354B0122C3F8802446
S31508001814FFF7BCF90546304B5B6A13F0020F27D174
S31508001824FFF7B4F9401B0228F5D9032097E12A4AA1
S31508001834136823F0F803616943EAC1031360D9E71F
S31508001844274B00221A60FFF7A1F90546224B1B68AD
S3150800185413F0020FCED0FFF799F9401B0228F5D9E9
S3150800186403207CE14FF4F0711C48FEF77BFEC8E7C1
S315080018740120FFF7CBFE236813F0040F00F0A480C1
S31508001884E368012B01D9052B41D1134BDB6913F00E
S31508001894805F42D1104BDA6942F08052DA61DB6923
S315080018A403F080530193019B01250E4B1B6813F427
S315080018B4807F34D0E368012B45D0002B5BD103F13C
S315080018C4804303F504331A6A22F001021A621A6A7B
S315080018D422F004021A623BE00010024078C40008B1
S315080018E40000424200700040A14B0022C3F8802445
S315080018F4FFF74CF905469F4B5B6A13F0020FBAD003
S31508001904FFF744F9401B0228F5D9032027E140F2E2
S315080019140F219948FEF726FEB7E70025C5E7974A3B
S31508001924136843F480731360FFF730F90646934B44
S315080019341B6813F4807FBDD1FFF728F9801B642840
S31508001944F5D903200BE18B4A136A43F001031362AA
S31508001954E36833B3FFF71AF90646864B1B6A13F096
S31508001964020F2FD1FFF712F9801B41F288339842F0
S31508001974F3D90320F3E0052B09D07E4B1A6A22F02B
S3150800198401021A621A6A22F004021A62E0E7794B23
S315080019941A6A42F004021A621A6A42F001021A62C8
S315080019A4D6E7FFF7F3F80646724B1B6A13F0020FE5
S315080019B408D0FFF7EBF8801B41F288339842F3D935
S315080019C40320CCE0002D53D1E369022B56D8E369F2
S315080019D4002B00F0C380674A526802F00C02082AFA
S315080019E400F0A680022B40F08F80236A13B1B3F56A
S315080019F4803F49D1636A4BB3B3F5802F26D0B3F53C
S31508001A04002F23D0B3F5402F20D0B3F5801F1DD067
S31508001A14B3F5A01F1AD0B3F5C01F17D0B3F5E01F4E
S31508001A2414D0B3F5001F11D0B3F5101F0ED0B3F5BB
S31508001A34201F0BD0B3F5301F08D0B3F5401F05D0CF
S31508001A44B3F5501F02D0B3F5601F23D1484B0022CB
S31508001A541A66FFF79BF80546464B1B6813F0007F8A
S31508001A641ED0FFF793F8401B0228F5D9032076E029
S31508001A74404AD36923F08053D361A5E740F2AD21E8
S31508001A843D48FEF76FFDA2E740F2B6213A48FEF755
S31508001A9469FDAFE740F2B7213748FEF763FDD5E79E
S31508001AA4236AB3F5803F1AD032494B6823F474137A
S31508001AB4226A606A024313434B602D4B01221A665D
S31508001AC4FFF764F804462B4B1B6813F0007F19D103
S31508001AD4FFF75CF8001B0228F5D903203FE0A3684A
S31508001AE413B1B3F5003F07D1224A536823F40033F0
S31508001AF4A1680B435360D7E740F2CD211E48FEF791
S31508001B0431FDF1E700202AE0194B00221A66FFF797
S31508001B143DF80446174B1B6813F0007F06D0FFF701
S31508001B2435F8001B0228F5D9032018E0002016E032
S31508001B34012B16D00F4B5B6803F48031226A91425D
S31508001B4411D103F47013626A93420ED1002006E0A1
S31508001B5401207047012002E0012000E0002002B0C5
S31508001B6470BD0120FBE70120F9E70120F7E700BF74
S31508001B74000042420010024078C400080070004089
S31508001B840F4B5B6803F00C02082A01D00D48704716
S31508001B94C3F383420C49885C13F4803F0BD0084B8B
S31508001BA45B68C3F34043094AD35C064A02FB00F068
S31508001BB4B0FBF3F07047064B03FB00F0704700BF19
S31508001BC40010024000127A00B4C40008B0C4000829
S31508001BD400093D00002800F0FF8070B50D46044654
S31508001BE4036813F00F0F33D0022D37D87E4B1B68CA
S31508001BF403F00703AB420BD27B4A136823F00703AF
S31508001C042B431360136803F00703AB4240F0E680E6
S31508001C14236813F0020F32D013F0040F04D0734A6A
S31508001C24536843F4E0635360236813F0080F04D041
S31508001C346E4A536843F460535360A368C3B1C02B18
S31508001C4416D048D8A02B13D00ED9B02B10D048E004
S31508001C5440F236316648FEF785FCC5E740F237316F
S31508001C646348FEF77FFCC1E7802B01D0902B38D15F
S31508001C745E4A536823F0F003A1680B435360236854
S31508001C8413F0010F47D06368022B30D86368012B21
S31508001C9433D0022B38D0554A126812F0020F00F0DE
S31508001CA49F8052494A6822F0030213434B60FEF7A9
S31508001CB46DFF06464D4B5B6803F00C036268B3EB95
S31508001CC4820F28D0FEF762FF801B41F288339842C0
S31508001CD4F0D9032073E0E02BCAD0F02BC8D0D02B60
S31508001CE4C6D040F25D314248FEF73CFCC0E74FF4EB
S31508001CF459713F48FEF736FCC8E73C4A126812F4A5
S31508001D04003FCED101205AE0384A126812F0007F0B
S31508001D14C7D1012053E0344B1B6803F00703AB42D9
S31508001D240AD9314A136823F007032B43136013684F
S31508001D3403F00703AB4255D1236813F0040F14D0FC
S31508001D44E3685BB1B3F5806F08D0B3F5A06F05D02F
S31508001D54B3F5C06F02D0B3F5E06F31D1234A5368A7
S31508001D6423F4E063E1680B435360236813F0080F18
S31508001D7415D023695BB1B3F5806F08D0B3F5A06FAE
S31508001D8405D0B3F5C06F02D0B3F5E06F1ED1174A7C
S31508001D94536823F46053216943EAC1035360FFF788
S31508001DA4EFFE124B5B68C3F30313124AD35CD840A5
S31508001DB4114B1860114B1868FEF7A4FE002070BD7D
S31508001DC440F2A2310A48FEF7CDFBC7E740F2A93133
S31508001DD40748FEF7C7FBDAE7012070470120EEE75C
S31508001DE40120ECE70120EAE7002002400010024047
S31508001DF478C4000880C300080000002008000020FA
S31508001E04014B1868704700BF0000002008B5FFF7AB
S31508001E14F7FF044B5B68C3F30223034AD35CD84039
S31508001E2408BD00BF0010024078C3000808B5FFF7D4
S31508001E34E7FF044B5B68C3F3C223034AD35CD84069
S31508001E4408BD00BF0010024078C3000870B582B010
S31508001E540446036813F01F0F6FD0236813F0010FAD
S31508001E6441D0636843B1B3F5807F05D0B3F5007FED
S31508001E7402D0B3F5407F65D1514BDB6913F0805F1F
S31508001E8465D14F4BDA6942F08052DA61DB6903F0B7
S31508001E9480530193019B01254A4B1B6813F4807FE9
S31508001EA457D0474B1B6A13F4407313D0626802F485
S31508001EB440729A420ED0424A136A23F44070424949
S31508001EC40126C1F840640026C1F84064106213F084
S31508001ED4010F52D13A4A136A23F4407361680B43DB
S31508001EE41362002D5AD1236813F0020F11D0A36888
S31508001EF443B1B3F5804F05D0B3F5004F02D0B3F51F
S31508001F04404F50D12E4A536823F44043A1680B43EB
S31508001F145360236813F0100F50D06369B3F5800F2C
S31508001F2401D0002B44D1264A536823F480036169FF
S31508001F340B435360002002B070BD6A212348FEF7A4
S31508001F4411FB8AE772212148FEF70CFB94E700256A
S31508001F54A2E71C4A136843F480731360FEF716FE5F
S31508001F640646184B1B6813F4807F9AD1FEF70EFEBB
S31508001F74801B6428F5D90320DDE7FEF707FE06462D
S31508001F840F4B1B6A13F0020FA4D1FEF7FFFD801B4B
S31508001F9441F288339842F3D90320CCE7D36923F076
S31508001FA48053D3619FE7B7210848FEF7DBFAA9E710
S31508001FB440F213110548FEF7D5FAB4E70020BAE74C
S31508001FC4001002400070004000004242C4C40008E9
S31508001FD410B5044610F01F0F0CD0013C0F2C69D81D
S31508001FE4DFE804F03B5D68356868683868686868DF
S31508001FF46868680E4FF4CA713148FEF7B3FAECE71D
S31508002004304B5A68186810F0807054D0C2F3834372
S315080020142D49C85C12F4803F15D02A4B5B68C3F37C
S3150800202440432A4AD25C2A4BB3FBF2F303FB00F083
S31508002034244B5B6813F4800F3DD14000254BA3FB6A
S315080020440030400837E0244B03FB00F0F0E7FFF7C5
S3150800205497FD30E0FFF794FD2DE01A4B1B6A40F21A
S3150800206402321A40B2F5817F26D003F44073B3F5E1
S31508002074007F04D0B3F5407F09D000201BE0114A45
S31508002084526A12F0020FF5D049F6404013E00D4BA0
S31508002094186810F400300ED04FF224400BE0FFF716
S315080020A4C5FE084B5B68C3F3813301335B00B0FBA1
S315080020B4F3F000E0002010BD4FF40040FBE700BF3A
S315080020C4C4C400080010024004C5000800C500087E
S315080020D400127A00ABAAAAAA00093D0038B504463C
S315080020E4FEF754FD054623685A6812F0200F07D1F7
S315080020F4FEF74CFD401BB0F57A7FF4D9032004E0C3
S315080021045A6842F010025A60002038BD38B50446B1
S315080021140268536823F010035360FEF737FD05463B
S3150800212423685B6813F0200F07D1FEF72FFD401BC9
S31508002134B0F57A7FF4D9032000E0002038BDC0B199
S3150800214438B505460268536823F008035360FEF75A
S315080021541DFD04462B685B6813F0080F07D1FEF7CC
S3150800216415FD001BB0F57A7FF4D9032000E00020A2
S3150800217438BD012070470000002877D010B5044602
S3150800218402683B4B9A4204D04FF48F713948FEF7E4
S31508002194E9F9A3683BB1802B05D0B3F5807F02D05B
S315080021A4B3F5407F12D16368A3F580136FF48012E8
S315080021B4934211D3637CABB1022363742046FFF7C1
S315080021C4BEFFA0B104236374012010BD40F21F11A1
S315080021D42848FEF7C7F9E6E74FF490712548FEF755
S315080021E4C1F9E7E723742046FEF7ECF9E4E720464D
S315080021F4FFF774FF28BB2268536823F0070353606C
S31508002204A36823B11C4A136B23F0010313631A4A08
S31508002214D36A23F46073A1680B43D3626368B3F18A
S31508002224FF3F12D02268C3F30341916022689BB230
S31508002234D3602046FFF76AFF88B10423637401203C
S31508002244C3E7042363740120BFE70120FFF7C0FE38
S3150800225408B1431EE6E7042363740120B5E70023A7
S31508002264E37301236373A3736374AEE701207047B2
S315080022740028004014C50008006C0040002834D02B
S3150800228438B50C46054691B30B68012B1DD1636816
S31508002294022B00D0F3B92B7C012B2AD001232B74F3
S315080022A402236B74144BDB6A13F4C07F17D11249EB
S315080022B40B6B23F0030322686068024313430B6322
S315080022C401236B740020287438BD59210B48FEF786
S315080022D449F9DCE75A210948FEF744F9DBE7042300
S315080022E46B7400232B740120EEE70120704701204C
S315080022F4EAE70220E8E700BF006C00404CC5000886
S315080023042DE9F04782B00546884617461E46FEF76D
S315080023143DFC0A9B1B1A03EB0609FEF737FC8246AB
S31508002324284B1B68C3F3CB3309FB03F301932B68D0
S315080023349C6838EA04040CBF01230023BB423DD041
S31508002344B6F1FF3FF3D0FEF721FCA0EB0A0048459F
S3150800235407D2019A02B14A46019B013B0193914671
S31508002364E5E72A68536823F0E00353606B68B3F51E
S31508002374827F0BD0AB6AB3F5005F14D0012385F8CE
S315080023845130002385F85030032018E0AB68B3F5C4
S31508002394004F02D0B3F5806FECD12A68136823F096
S315080023A440031360E6E72A68136823F400531360AE
S315080023B42A68136843F400531360DFE7002002B069
S315080023C4BDE8F0870000002010B582B004460B462D
S315080023D4009200228021FFF793FF08B902B010BDCE
S315080023E4636D43F0200363650320F7E710B582B0F5
S315080023F404460B464168B1F5827F10D06168B1F591
S31508002404827F03D1A168B1F5806F15D000920022AE
S3150800241480212046FFF774FFE0B902B010BD816839
S31508002424B1F5004F02D0B1F5806FE7D12068016895
S3150800243421F040010160E1E70092002201212046D3
S31508002444FFF75EFF0028E8D0636D43F02003636559
S315080024540320E2E7636D43F0200363650320DCE7AA
S31508002464002800F01D8110B5044603688D4A93427E
S315080024740CD0A2F57842934208D002F580629342C2
S3150800248404D04FF4AB718848FEF76CF8636813B14F
S31508002494B3F5827F42D1A3682BB1B3F5806F02D01E
S315080024A4B3F5004F40D1E368B3F5006F01D0002BB4
S315080024B440D1A369B3F5007F03D013B1B3F5802FD8
S315080024C43ED1E36993B1182B40D9382B09D8202B70
S315080024D407D3203B4FF0013222FA03F313F0010F1E
S315080024E404D140F25B117048FEF73CF8236A0BB13D
S315080024F4802B34D1636A002B37D1636A002B65D1EC
S3150800250423690BB1022B36D16369012B39D8636869
S31508002514B3F5827F3BD00023E3616FE040F25711A5
S315080025246148FEF71FF8B6E74FF4AC715E48FEF74C
S3150800253419F8B8E740F259115B48FEF713F8B8E7FB
S315080025444FF4AD715848FEF70DF8BAE7082BC8D30F
S31508002554564A22FA03F313F0010FC2D0C6E74FF422
S31508002564AE715148FDF7FEFFC4E740F25F114E48CD
S31508002574FDF7F8FFC1E74FF4B1714B48FDF7F2FFD9
S31508002584C2E740F263114848FDF7ECFFBFE7E36989
S31508002594A3B3182B11D9382B09D8202B07D3203BE2
S315080025A44FF0013222FA03F313F0010F26D140F259
S315080025B467113D48FDF7D6FF20E0082BF7D33B4AC1
S315080025C422FA03F313F0010FF1D017E0E36993B18C
S315080025D4182B56D9382B09D8202B07D3203B4FF074
S315080025E4013222FA03F313F0010F04D140F27111F8
S315080025F42D48FDF7B7FF0023236163610023A36217
S3150800260494F85130002B45D0022384F851302268BF
S31508002614136823F040031360636803F48273A268A3
S3150800262402F404421343E26802F400621343226983
S3150800263402F002021343626902F001021343A2691B
S3150800264402F400721343E26902F038021343226A61
S3150800265402F080021343A26A02F40052216813436B
S315080026640B60638B226803F0040353602268D36902
S3150800267423F40063D36100206065012384F8513094
S3150800268410BD082BB2D3094A22FA03F313F0010F3B
S31508002694ACD0B0E784F850302046FDF7F5FFB3E731
S315080026A4012070470030014088C500080001010177
S315080026B420B310B504460368114A93420CD0A2F518
S315080026C47842934208D002F58062934204D04FF4CC
S315080026D4EB710C48FDF746FF022384F85130226853
S315080026E4136823F0400313602046FEF739F80020E8
S315080026F4606584F8510084F8500010BD01207047C5
S315080027040030014088C500082DE9F04383B004462B
S31508002714894690461D46836813B1B3F5004F4BD1DD
S3150800272494F85030012B00F0D480012384F85030FB
S31508002734FEF72CFA074694F85160F6B2012E40F0DB
S31508002744C080B9F1000F00F0BD80B8F1000F00F0A9
S31508002754B980032384F8513000236365C4F83090A4
S31508002764A4F83480A4F83680A363A387E387636454
S315080027742364A368B3F5004F24D023681A6812F0BB
S31508002784400F03D11A6842F040021A60E368B3F5B1
S31508002794006F22D0636813B1B8F1010F5BD1226BC5
S315080027A4236812781A73236B01332363E38E9BB26F
S315080027B4013B9BB2E3864EE04FF448714648FDF769
S315080027C4D1FEADE72268136823F04003136022683C
S315080027D4136843F480431360CFE7636813B1B8F111
S315080027E4010F15D1226B23681288DA60236B023332
S315080027F42363E38E9BB2013B9BB2E38608E0FEF7B4
S31508002804C5F9C01BA84202D3B5F1FF3F15D1A5B13E
S31508002814E38E9BB2002B3CD023689A6812F0020F11
S31508002824EDD0226B1288DA60236B02332363E38EBE
S315080028349BB2013B9BB2E386EAE7012384F8513055
S3150800284403263FE0FEF7A2F9C01BA84202D3B5F15E
S31508002854FF3F19D1C5B1E38E9BB2D3B123689A68F9
S3150800286412F0020FEED0226B12781A73236B01331F
S315080028742363B4F836C01FFA8CFC0CF1FF3C1FFA2C
S315080028848CFCA4F836C0E6E7012384F85130032605
S3150800289418E03A4629462046FFF796FD08B1202354
S315080028A46365A36833B901932368DA6801929B6860
S315080028B40193019B636D2BB9012384F851300026DB
S315080028C400E00226002384F85030304603B0BDE801
S315080028D4F0830226F9E700BF88C500082DE9F0430E
S315080028E483B00446884691461F460A9D8368002B92
S315080028F459D194F85030012B00F01981012384F83A
S315080029045030FEF743F9064694F85130DBB2626854
S31508002914012B0AD0B2F5827F40F0F680A268002A1D
S3150800292440F0F980042B40F0F880B8F1000F00F06D
S31508002934F680B9F1000F00F0F480002F00F0F38060
S3150800294494F85130DBB2042B02D0052384F85130B5
S3150800295400236365C4F83890E787A787C4F83080EE
S31508002964E786A7862364636423681A6812F0400F0F
S3150800297403D11A6842F040021A60E368B3F5006F9F
S3150800298417D063680BB1012F0BD1226B2368127819
S315080029941A73236B01332363E38E9BB2013B9BB209
S315080029A4E386012774E040F2AE416248FDF7DAFD9A
S315080029B49FE763680BB1012F0BD1226B236812883A
S315080029C4DA60236B02332363E38E9BB2013B9BB22B
S315080029D4E38601271BE023689A6812F0010F0ED0DC
S315080029E4E28F92B25AB1DA68A36B1A80A36B0233E8
S315080029F4A363E38F9BB2013B9BB2E3870127FEF7F0
S31508002A04C5F8801BA84202D3B5F1FF3F1ED1E38E59
S31508002A149BB21BB9E38F9BB2002B5CD023689A68E0
S31508002A2412F0020FD7D0E28E92B2002AD3D0002F2A
S31508002A34D1D0226B1288DA60236B02332363E38EC8
S31508002A449BB2013B9BB2E3860027C4E7012384F8C3
S31508002A545130032059E023689A6812F0010F0ED00A
S31508002A64E28F92B25AB1DA68A36B1A70A36B013378
S31508002A74A363E38F9BB2013B9BB2E3870127FEF76F
S31508002A8485F8831BAB4202D3B5F1FF3F1ED1EDB1E6
S31508002A94E38E9BB213B9E38F9BB2E3B123689A68BA
S31508002AA412F0020FD7D0E28E92B2002AD3D0002FAA
S31508002AB4D1D0226B12781A73236B01332363E38E06
S31508002AC49BB2013B9BB2E3860027C4E7012384F843
S31508002AD45130032019E0324629462046FFF774FC94
S31508002AE470B9A36833B901932368DA6801929B68BD
S31508002AF40193019B636DC3B9012384F8513004E043
S31508002B0420236365012000E00220002384F8503066
S31508002B1403B0BDE8F0830220F7E70220F5E70120B9
S31508002B24F3E70120F1E70120EFE70120EDE70220B2
S31508002B34EEE700BF88C500082DE9F04383B00446D4
S31508002B4490F85160F6B2012E40F0AB808846914663
S31508002B541D464368B3F5827F32D094F85030012B72
S31508002B6400F0A780012384F85030FEF70FF80746D3
S31508002B74B8F1000F00F09680B9F1000F00F09280CA
S31508002B84042384F8513000236365C4F83880A4F814
S31508002B943C90A4F83E902363A386E3862364636487
S31508002BA4A368B3F5004F18D023681A6812F0400FCB
S31508002BB403D11A6842F040021A60E3680BB343E093
S31508002BC48368002BC9D1042380F851300095134635
S31508002BD40A46FFF783FE064667E02268136823F071
S31508002BE4400313602268136823F480431360DBE709
S31508002BF4FDF7CCFFC01BA84202D3B5F1FF3F15D1A0
S31508002C04A5B1E38F9BB2002B3CD023689A6812F0D7
S31508002C14010FEDD0A26B1B7B1370A36B0133A36367
S31508002C24E38F9BB2013B9BB2E387EAE7012384F86F
S31508002C345130032636E0FDF7A9FFC01BA84202D38C
S31508002C44B5F1FF3F19D1C5B1E38F9BB2D3B1236860
S31508002C549A6812F0010FEED0DA68A36B1A80A36B98
S31508002C640233A363B4F83EC01FFA8CFC0CF1FF3C94
S31508002C741FFA8CFCA4F83EC0E6E7012384F8513019
S31508002C8403260FE03A4629462046FFF7AFFB08B16C
S31508002C9420236365636D2BB9012384F8513000261C
S31508002CA400E00226002384F85030304603B0BDE81D
S31508002CB4F0830226F9E7000010B5044603682E4A95
S31508002CC493421FD002F5006293421BD0B3F1804FA2
S31508002CD418D0A2F59832934214D002F58062934232
S31508002CE410D002F5806293420CD002F580629342BA
S31508002CF408D002F58062934204D04FF4E8711F4865
S31508002D04FDF730FC94F83D30DBB2012B2FD10223BA
S31508002D1484F83D302268D36843F00103D3602368FE
S31508002D24154A934218D002F50062934214D0B3F1BF
S31508002D34804F11D0A2F5983293420DD002F58062E5
S31508002D44934209D002F58062934205D01A6842F08C
S31508002D5401021A6000200BE09A6802F00702062AAC
S31508002D6407D01A6842F001021A60002000E0012028
S31508002D7410BD0020FCE700BF002C0140C0C50008B8
S31508002D84704770477047704710B5044603681A6958
S31508002D9412F0020F11D0DA6812F0020F0DD06FF09C
S31508002DA402021A610123037703689B6913F0030F70
S31508002DB470D0FFF7E6FF0023237723681A6912F019
S31508002DC4040F12D0DA6812F0040F0ED06FF0040262
S31508002DD41A610223237723689B6913F4407F5FD023
S31508002DE42046FFF7CEFF0023237723681A6912F0DB
S31508002DF4080F12D0DA6812F0080F0ED06FF0080226
S31508002E041A61042323772368DB6913F0030F4ED072
S31508002E142046FFF7B6FF0023237723681A6912F0C2
S31508002E24100F12D0DA6812F0100F0ED06FF01002DD
S31508002E341A61082323772368DB6913F4407F3DD09E
S31508002E442046FFF79EFF0023237723681A6912F0AA
S31508002E54010F03D0DA6812F0010F36D123681A6914
S31508002E6412F0800F03D0DA6812F0800F34D1236889
S31508002E741A6912F0400F03D0DA6812F0400F32D103
S31508002E8423681A6912F0200F03D0DA6812F0200FAB
S31508002E9430D110BDFFF774FF2046FFF773FF8AE7AA
S31508002EA42046FFF76DFF2046FFF76CFF9BE7204699
S31508002EB4FFF766FF2046FFF765FFACE72046FFF7F6
S31508002EC45FFF2046FFF75EFFBDE76FF001021A6158
S31508002ED4204602F005FCC1E76FF080021A6120461D
S31508002EE400F06DF9C3E76FF040021A612046FFF758
S31508002EF44AFFC5E76FF020021A61204600F05EF922
S31508002F04C7E700000368244A904212D002F500621B
S31508002F1490420ED0B0F1804F0BD0A2F59832904271
S31508002F2407D002F58062904203D002F5806290428F
S31508002F3403D123F070034A681343174A904212D008
S31508002F4402F5006290420ED0B0F1804F0BD0A2F584
S31508002F549832904207D002F58062904203D002F577
S31508002F648062904203D123F44073CA68134323F062
S31508002F7480034A69134303608B68C3620B688362E0
S31508002F84054B984203D003F50063984201D10B69B7
S31508002F940363012343617047002C0140002800F0B5
S31508002FA4828010B504460368404A93421FD002F54E
S31508002FB4006293421BD0B3F1804F18D0A2F5983221
S31508002FC4934214D002F58062934210D002F58062CF
S31508002FD493420CD002F58062934208D002F58062CF
S31508002FE4934204D040F213113148FDF7BBFAA368A3
S31508002FF43BB1102B05D0202B03D0402B01D0602BDE
S3150800300433D123692BB1B3F5807F02D0B3F5007FA2
S3150800301431D1E368013B4FF6FE72934231D8A36976
S315080030240BB1802B33D194F83D30B3B3022384F823
S315080030343D30214651F8040BFFF764FF012384F859
S31508003044463084F83E3084F83F3084F8403084F8BB
S31508003054413084F8423084F8433084F8443084F8A4
S31508003064453084F83D30002010BD4FF48A7110486D
S31508003074FDF778FAC5E740F215110D48FDF772FA1F
S31508003084C7E74FF48B710A48FDF76CFAC7E740F2B5
S3150800309417110748FDF766FAC5E784F83C30204659
S315080030A4FDF74CFCC2E70120704700BF002C014025
S315080030B4C0C5000838B504460D4603683D4A934220
S315080030C41FD002F5006293421BD0B3F1804F18D08B
S315080030D4A2F59832934214D002F58062934210D036
S315080030E402F5806293420CD002F58062934208D0BE
S315080030F402F58062934204D040F2B4712E48FDF77B
S3150800310431FA2B68A3B1402B12D00BD8202B0FD041
S31508003114302B0DD0102B0BD040F2B5712648FDF795
S3150800312421FA05E0602B03D0702B01D0502BF3D184
S315080031346B68802B00D0A3BB94F83C30012B36D0A7
S31508003144012384F83C30022384F83D302368596807
S31508003154986821F070012A680A435A602368154A58
S31508003164934212D002F5006293420ED0B3F1804F17
S315080031740BD0A2F59832934207D002F580629342A7
S3150800318403D002F58062934204D120F080006A6875
S3150800319402439A60012384F83D30002084F83C00F9
S315080031A438BD40F2B6710448FDF7DCF9C4E70220DD
S315080031B4F6E700BF002C0140F8C5000870477047C1
S315080031C410B504464268384B9A4257D8E36813B197
S315080031D4B3F5005F58D123692BB1B3F5806F02D0DC
S315080031E4B3F5C06F56D163694FF6F372134200D133
S315080031F423B940F669612D48FDF7B4F922681369C5
S3150800320423F44053E1680B431361A368226913430B
S3150800321462691A432168CB6823F4B05323F00C037C
S315080032241343CB602268536923F44073A1690B43A3
S31508003234536122681E4B9A4232D0FEF7E7FD0246D6
S3150800324402EB820202EB820263689B00B2FBF3F292
S315080032541848A0FB02314909642303FB11231B0107
S315080032643233A0FB03035B0903F0F00202EB0112FD
S3150800327403F00F03216813448B6010BD40F66661A2
S315080032840A48FDF76FF9A1E740F667610748FDF7B5
S3150800329469F9A0E740F668610448FDF763F9A2E70F
S315080032A4FEF7C4FD0246CBE720AA440034C600084C
S315080032B4003801401F85EB512DE9F84305460F46B2
S315080032C416469946DDF820802B681C6837EA0404FC
S315080032D40CBF01240024B4422DD1B8F1FF3FF3D02A
S315080032E4B8F1000F05D0FDF751FCA0EB09004045E5
S315080032F4EAD92A6802F10C0353E8003F23F4D07391
S315080033040C3242E800310029F3D12A6802F1140389
S3150800331453E8003F23F00103143242E80031002940
S31508003324F3D1202385F8413085F84230002385F807
S315080033344030032000E00020BDE8F883002875D05B
S3150800334410B5044683690BB30368394A93420CD013
S31508003354A2F57442934208D002F58062934204D0DF
S315080033644FF4B7713348FDF7FDF8A3693BB3B3F5DA
S31508003374807F24D0B3F5007F21D0B3F5407F1ED0DB
S3150800338440F26F112B48FDF7EDF818E00368284A58
S31508003394934214D0A2F57442934210D002F5806287
S315080033A493420CD002F58062934208D002F58062FB
S315080033B4934204D040F273111E48FDF7D3F8A3686C
S315080033C413B1B3F5805F25D194F8413043B3242370
S315080033D484F841302268D36823F40053D360204626
S315080033E4FFF7EEFE2268136923F4904313612268FB
S315080033F4536923F02A0353612268D36843F40053BC
S31508003404D36000206064202384F8413084F8423075
S31508003414606310BD40F275110648FDF7A3F8D3E7BB
S3150800342484F840302046FDF7DDFAD0E701207047DE
S315080034340038014034C600082DE9F04182B01E4622
S3150800344490F84130DBB2202B4BD104460D4690460A
S3150800345400294AD00AB9012044E000234364212301
S3150800346480F84130FDF792FB0746A4F82480A4F8B7
S315080034742680A368B3F5805F02D04FF000080FE0FA
S315080034842369FBB14FF000080AE038F8023B2268CA
S31508003494C3F308035360E28C92B2013A92B2E2840F
S315080034A4E38C9BB28BB100963B46002280212046D2
S315080034B4FFF702FFD8B9002DE7D015F8012B2368CA
S315080034C45A60E8E7A8460025EAE700963B46002244
S315080034D440212046FFF7F0FE58B9202384F84130EE
S315080034E400E0022002B0BDE8F0810120FAE70320DB
S315080034F4F8E70320F6E72DE9F04182B01E4690F876
S315080035044230DBB2202B53D104460D46904600299F
S3150800351452D00AB901204CE000234364222280F8E1
S3150800352442200363FDF732FB0746A4F82C80A4F86F
S315080035342E80A368B3F5805F02D04FF0000817E029
S31508003544236913B14FF0000812E0A84600250FE0DE
S3150800355423685B68C3F3080328F8023B03E023687F
S315080035645B682B700135E28D92B2013A92B2E2851C
S31508003574E38D9BB2BBB100963B4600222021204630
S31508003584FFF79AFED0B9002DE2D0A368B3F5805FA1
S31508003594E5D013B92369002BE1D023685B6803F0EF
S315080035A47F032B70DEE7202384F84230002000E0F6
S315080035B4022002B0BDE8F0810120FAE70320F8E70B
S315080035C410B50446226802F10C0353E8003F23F4BD
S315080035D4F0730C3242E800310029F3D1226802F173
S315080035E4140353E8003F23F00103143242E8003180
S315080035F40029F3D1236B012B3CD023685B6913F0B4
S31508003604800F13D0226802F1140353E8003F23F015
S315080036148003143242E800310029F3D1A36B2BB19D
S3150800362400225A63A06BFDF7C5FB80BB23685B6960
S3150800363413F0400F13D0226802F1140353E8003F35
S3150800364423F04003143242E800310029F3D1E36B36
S315080036542BB100225A63E06BFDF7ACFB00BB0020DC
S31508003664E084E0856064202384F8423084F841309D
S31508003674206310BD226802F10C0353E8003F23F0CF
S3150800368410030C3242E800310029F3D1B5E7A06BE8
S31508003694FDF7B3FB2028C9D1102363640320E8E7A8
S315080036A4E06BFDF7AAFB2028D9D110236364032015
S315080036B4DFE790F8413090F842001843704781627A
S315080036C48285C28500234364222380F84230036935
S315080036D423B10268D36843F48073D36002685369DC
S315080036E443F0010353610268D36843F02003D360AF
S315080036F40020704708B590F84230DBB2202B08D179
S3150800370449B10AB9012008BD00230363FFF7D7FFAF
S31508003714F9E70220F7E70120F5E7000008B50349B1
S31508003724034801F005FF034B187008BDFC0200208E
S315080037340C000020000300200020704708B500F0A4
S3150800374431F9024B1870187808BD00BF2000002014
S3150800375408B500F0DFF9024B1870187808BD00BFE9
S315080037642000002008B500F0DFF908BD08B500F010
S3150800377421FA08BD08B500F075FA08BD00B587B08A
S315080037848DF80F003223009301230DF117020DF172
S315080037940F010448FFF7A2F89DF8170007B05DF873
S315080037A404FB00BFC401002070B50646FDF7EEF918
S315080037B40546FF20FFF7E2FF0446FF2804D0FDF77D
S315080037C4E5F9401BB042F4D3FF2C14BF00200120B6
S315080037D470BD70B506460D46002404E0FF20FFF7C9
S315080037E4CDFF30550134AC42F8D370BD70B50646EA
S315080037F40D46002403E0305DFFF7C0FF0134AC42F8
S31508003804F9D370BD38B505460C464FF4FA70FFF780
S31508003814CBFF00B938BD2046FFF7B0FFFD2C01D118
S315080038240120F7E74FF400712846FFF7DFFFFF2072
S31508003834FFF7A4FFFF20FFF7A1FFFF20FFF79EFF76
S3150800384400F01F00052801D10120E3E70020E1E785
S3150800385408B5012210210348FDF770FDFF20FFF784
S315080038648DFF08BD0008014010B500221021094843
S31508003874FDF764FDFF20FFF781FF4FF4FA70FFF7A9
S3150800388493FF10B10124204610BD0446FFF7E0FF5C
S31508003894F9E700BF0008014038B504460D4610F0A4
S315080038A4800F1DD10C2C04D0FFF7D2FFFFF7DCFFE5
S315080038B4B0B344F04000FFF761FF280EFFF75EFF40
S315080038C4C5F30740FFF75AFFC5F30720FFF756FF6E
S315080038D4E8B2FFF753FF64B1082C1BD0012009E0B6
S315080038E400F07F0400213720FFF7D6FF0128D9D935
S315080038F40FE09520FFF742FF0C2C0DD00A24FF2079
S31508003904FFF73CFF10F0800F03D0631E13F0FF048B
S31508003914F5D138BD8720EDE7FF20FFF72FFFEDE748
S31508003924FF20F6E710B50446FDF730F9024B186098
S31508003934024B1C6010BD00BF0803002004030020CE
S3150800394408B5FDF723F9054B1B68C01A044B1B6819
S3150800395498422CBF0020012008BD00BF08030020A0
S315080039640403002070B505460E46C820FFF7DAFFA3
S31508003974FF20FFF703FF0446FF2803D1FFF7E0FF04
S315080039840028F5D1FE2C01D0002070BD314628460A
S31508003994FFF71FFFFF20FFF7F1FEFF20FFF7EEFEFC
S315080039A40120F2E7002840F0AD80574B1B7813F04E
S315080039B4020F0BD170B582B0544B1A68136823F002
S315080039C4380343F0300313600A2408E04E4B187892
S315080039D4C0B27047FF20FFF7D1FE013CE4B2002CC9
S315080039E4F8D100210846FFF757FF0546012817D0E6
S315080039F4474B1C70FFF72CFF002C7FD0434B1A68EB
S31508003A04136823F0380343F0100313603E4A13780F
S31508003A1403F0FE0313703C4B1878C0B202B070BDB5
S31508003A244FF47A70FFF77EFF4FF4D5710820FFF73D
S31508003A3433FF01283ED1254609E0FF20FFF79EFE05
S31508003A4405F108036B4403F8040C0135EDB2032DA4
S31508003A54F3D99DF80630012BCAD19DF80730AA2B55
S31508003A64C6D1FFF76DFF30B14FF08041A920FFF7AB
S31508003A7413FF0028F5D1FFF763FF08B90446B7E733
S31508003A8400213A20FFF708FF054650B1B0E7FF20AA
S31508003A94FFF774FE05F108036B4403F8040C0135BB
S31508003AA4EDB2032DF3D99DF8043013F0400F23D05B
S31508003AB40C249DE70021A920FFF7EEFE01280ED964
S31508003AC42E46FFF73DFF28B100212846FFF7E4FEFE
S31508003AD40028F6D1FFF734FF20B9044688E7022602
S31508003AE4A925EEE74FF400711020FFF7D5FE00284C
S31508003AF47FF47EAF34467BE7042479E7024B012240
S31508003B041A7088E70120704721000020C4010020AC
S31508003B140C03002018B9034B1878C0B2704701206B
S31508003B24704700BF21000020002839D138B50D465A
S31508003B341C46002B36D01D4B1B7813F0010F33D1CE
S31508003B441B4B1B7813F0080F00D15202012C18D016
S31508003B5411461220FFF7A0FE68B94FF400712846F3
S31508003B64FFF700FF18B105F50075013CF5D10021F2
S31508003B740C20FFF791FEFFF76BFE201E18BF0120ED
S31508003B8438BD11461120FFF787FE0028F3D14FF4FC
S31508003B9400712846FFF7E6FE0028ECD00024EAE781
S31508003BA4042070470420EBE70320E9E721000020FE
S31508003BB40C030020002848D170B50D4616461C464D
S31508003BC4002B44D0254B1B7813F0010F41D1234B0E
S31508003BD41B7813F0040F3ED1214B1B7813F0080F02
S31508003BE400D15602012C1BD013F0060F26D13146FC
S31508003BF41920FFF751FE68B9FC212846FFF702FE93
S31508003C0418B105F50075013CF6D1FD210020FFF732
S31508003C14F9FDC0B1FFF71CFE201E18BF012070BDB8
S31508003C2431461820FFF738FE0028F3D1FE2128462E
S31508003C34FFF7E8FD0028EDD00024EBE7214697209E
S31508003C44FFF72AFED3E70124E4E70420704704209B
S31508003C54E5E70320E3E70220E1E700BF21000020AF
S31508003C640C03002070B584B0002840F004810D468A
S31508003C741646834B1B7813F0010F40F0FE80042987
S31508003C8400F2ED80DFE811F005000C00EB005400AB
S31508003C94AF00FFF7E9FD002840F0E380012406E0C1
S31508003CA400210920FFF7F8FD044628B12C46FFF742
S31508003CB4CFFD204604B070BD10216846FFF752FEBA
S31508003CC4002800F0D0809DF800309B09012B1FD0F6
S31508003CD49DF8052002F00F029DF80A3002EBD31274
S31508003CE49DF809305B0003F006031A449DF8081092
S31508003CF49DF807309B0003EB91139DF80610890283
S31508003D0401F440610B440133073A93403360CEE72C
S31508003D149DF809309DF8082003EB02239DF8072037
S31508003D24120402F47C12134401339B023360BEE787
S31508003D34544B1B7813F0040F20D000218D20FFF775
S31508003D44ABFD08B10124B2E7FF20FFF717FD1021E8
S31508003D546846FFF707FE78B90124A8E7FF20FFF7AE
S31508003D640DFD013CE4B2002CF8D19DF80A20120995
S31508003D741023934033609AE73024F4E7002109209E
S31508003D84FFF78AFD054608B1012490E71021684625
S31508003D94FFF7E8FD002868D03A4B1C7814F00204B3
S31508003DA411D09DF80A305B0003F07E039DF80B20C2
S31508003DB403EBD21301339DF80D209209013A93407F
S31508003DC433602C4673E79DF80A20C2F384029DF8F3
S31508003DD40B10CB0003F0180303EB5113013302FB5A
S31508003DE40333336063E7274B1B7813F0060F01D1BF
S31508003DF401245CE76A460B21FFF734FFB8BB9DF83C
S31508003E0400309B0904D19DF80A3013F0400F30D0D6
S31508003E14316874681B4B1B7813F0080F01D14902EB
S31508003E2464022020FFF738FD08B101243FE7214644
S31508003E342120FFF731FD08B1012438E700212620A7
S31508003E44FFF72AFD044608B1012430E747F230504B
S31508003E54FFF7AAFC00287FF42AAF012427E70424E5
S31508003E6425E72C4623E72C4621E701241FE70124EE
S31508003E741DE701241BE704241BE7032419E700BFF5
S31508003E84210000200C03002008B5044B03EB800234
S31508003E94526852680344187A904708BD30030020D4
S31508003EA408B5084B1B5C53B9064B01221A5403EB9D
S31508003EB48002526812680344187A904708BD0020A5
S31508003EC4FCE700BF3003002038B5044C04EB80053A
S31508003ED46D68AD680444207AA84738BD30030020CD
S31508003EE438B5044C04EB80056D68ED680444207A03
S31508003EF4A84738BD3003002010B5044B03EB8004F3
S31508003F04646824690344187AA04710BD3003002066
S31508003F1404E011F8012B00F8012B1A46531E002A57
S31508003F24F7D1704702E000F8011B1A46531E002A0F
S31508003F34F9D1704710B4034600201446013A34B147
S31508003F4413F8010B11F801CBB0EB0C00F5D010BC3B
S31508003F547047034600E00133187808B18842FAD15D
S31508003F647047000030B400252B4601E001250133D3
S31508003F74012B1ED803EB43021C4C54F82220002ABA
S31508003F84F4D0D0F80042A242F1D103EB4304174A15
S31508003F9402EB84025468D0F808229442E7D103EB72
S31508003FA44304124A02EB84021489B0F806229442A6
S31508003FB4DDD1022B0CD0B1B903EB43030B4A02EB58
S31508003FC483035B89B3F5807F0BD0002030BC704730
S31508003FD42DB9022901D01220F8E70020F6E70020BF
S31508003FE4F4E71020F2E71020F0E700BF10030020E2
S31508003FF4002000E00130012806D800EB40029300B7
S31508004004034AD358002BF5D1023818BF012070474C
S315080040141003002010B5002300E00133012B1CD83F
S3150800402403EB43022D4C54F82240D0F80022944264
S31508004034F3D103EB4304294A02EB84025468D0F80B
S3150800404408229442E9D103EB4304244A02EB84028E
S315080040541489B0F806229442DFD1022B0AD041B360
S3150800406403EB43011D4A02EB810252899ABB4FF4C2
S31508004074807226E00023012B07D803EB4302174C72
S3150800408454F822200AB10133F5E7022B21D0134C48
S3150800409403EB430C04EB8C02D0F800E244F82CE062
S315080040A4D0F808425460B0F8060210810020508106
S315080040B4D5E703EB4301094A02EB8102528901322F
S315080040C492B203EB4300054901EB80014A81581C6F
S315080040D410BD0020FCE70020FAE700BF100300200B
S315080040E4013801281BD800EB40020F4B03EB82036F
S315080040F45B89B3F5807F03D053B1013B9BB200E0E3
S31508004104002300EB4001084A02EB8102538143B9BC
S3150800411400EB400083000020034AD0507047022079
S3150800412470470020704700BF10030020002302E0F8
S3150800413410BC70470133012B17D803EB43020B4914
S3150800414451F822208242F5D110B403EB43029200BF
S3150800415400248C500133012BEAD803EB43020349AC
S3150800416451F822208242F5D1EFE770471003002068
S31508004174D0F824320433490AD0F8002292F80222ED
S31508004184B1FBF2F101E0091A0833186818B1814243
S31508004194F9D25868084470470246C87E8B7E43EABB
S315080041A4002092F80032032B00D070474A7D0B7D1D
S315080041B443EA022340EA0340F7E78176C1F307237B
S315080041C4C376C1F307430375090E417570470000AA
S315080041D42DE9F84F89460C6800E0013423782F2B23
S315080041E4FBD05C2BF9D0D0F818A20B22202150461C
S315080041F4FFF798FE002633464FF00808374619E0BD
S31508004204BF00FFB246464FF00B0812E015F0800FC8
S3150800421425D129463148FFF79CFE00285AD1A5F135
S315080042244103DBB2192B20D847F002070AF80650D7
S3150800423401365B4603F1010BE55C202D1FD92F2DB2
S315080042441DD05C2D1BD02E2D01D0B045DED8B8F17B
S31508004254080F3DD12E2DD3D00620BDE8F88F47F0A0
S315080042640307803D1E4B5D5DD3E7A5F16103DBB211
S31508004274192BDBD847F00107203DEDB2D6E75C449D
S31508004284C9F80040202D14D804232EB39AF8002028
S31508004294E52A10D0B8F1080F11D007F00302012A55
S315080042A410D007F00C07042F0FD08AF80B30002023
S315080042B4D3E70023E9E705228AF80020EAE7BF00E6
S315080042C4FFB2EAE743F01003EBE743F00803ECE731
S315080042D40620C2E70620C0E70620BEE770C6000827
S315080042E480C600080146006838B102461378202BB8
S315080042F406D93A2B04D00132F8E74FF0FF3070475D
S315080043043A2B01D00020704710B4034613F8010B6A
S315080043143038092808D89A4202D04FF0FF3005E011
S3150800432430B901320A6001E04FF0FF3010BC704723
S315080043344FF0FF30FAE7F8B590F804520DB928465D
S31508004344F8BD0446D0F82C7201233A46014690F883
S315080043540102FFF7C5FD0546D0B9002384F80432E7
S31508004364D4F82032FB1AD4F818229342E7D294F8E8
S3150800437403620AE0D4F818321F4401233A46214658
S3150800438494F80102FFF7ACFD013E012EF2D8D6E7F8
S315080043940125D4E770B5D0F82C328B4202D1002619
S315080043A4304670BD04460D46FFF7C5FF064600288D
S315080043B4F6D101232A46214694F80102FFF784FD23
S315080043C410B101264FF0FF35C4F82C52E8E7000077
S315080043D410B50446002380F804324FF0FF33C0F8C2
S315080043E42C32FFF7D7FF98BB024694F8FF1194F8CE
S315080043F4FE3143EA01231BB217498B422AD194F8AA
S31508004404391094F838301B0443EA016394F83710DA
S3150800441443EA012394F836100B4323F07F430F49EC
S315080044248B4213D094F8551094F854301B0443EA7D
S31508004434016394F8531043EA012394F852100B438A
S3150800444423F07F4305498B4200D00122104610BD54
S315080044540322FBE70222F9E755AAFFFF4641540067
S31508004464B0B108B5D0F8003243B193F8001229B1B7
S31508004474B3F80612B0F80422914201D0092008BD07
S3150800448493F80102FFF700FD10F00100F7D0F5E7F5
S31508004494092070472DE9F04385B0054617460023E1
S315080044A403600846FFF71EFF061EC0F29E819F4B57
S315080044B453F82640002C00F09D812C6094F80032B5
S315080044C47BB194F80102FFF7DFFC10F0010508D16F
S315080044D4002F00F08B8110F0040F00F087810A2565
S315080044E484E1002384F80032F0B284F80102FFF76D
S315080044F4D7FC10F0010F40F07F811FB110F0040FB4
S3150800450440F07C8100212046FFF762FF054601281A
S3150800451400F095800027032D00F07281002D40F0ED
S315080045247181227BE37A43EA02231BB2B3F5007F47
S3150800453440F06A81E27DA37D53EA02230DD194F803
S31508004544272094F826301B0443EA026394F82520AE
S3150800455443EA022394F824201343C4F81832217C2E
S3150800456484F803124A1ED2B2012A00F24F8103FBD1
S3150800457401F1607B84F80202002800F04981421E9A
S31508004584104240F04781A67C627C42EA062216461F
S31508004594A4F8082212F00F0F40F03E8194F814C0D4
S315080045A4E27C52EA0C220ED194F823C094F8222015
S315080045B4120442EA0C6294F821C042EA0C2294F8E6
S315080045C420C042EA0C0294F80FE094F80EC05CEAA4
S315080045D40E2C00F023810CEB010909EB16194A4548
S315080045E4C0F01E81A2EB0902B2FBF0FE8242C0F0C3
S315080045F4198140F6F57296453AD94FF6F5729645FD
S3150800460477D84FF0020835E0002304AA02EB8102AA
S3150800461442F8103C0131032913D80B0103F5DF7363
S3150800462423441A79002AEFD0D87A9A7A120442EAED
S315080046340062587A42EA00221B7A1343E5E700210E
S31508004644E9E700260BE039462046FFF7C1FE054692
S3150800465400283FF460AF0136032E3FF65CAF04AB87
S3150800466403EB860353F8107C002FECD10225F2E7FE
S315080046744FF001080EF1020EC4F814E2C4F81C72D5
S315080046840CEB0702C4F8202207EB0900C4F8280239
S31508004694B8F1030F30D0002E00F0C8800A44C4F8DD
S315080046A42422B8F1020F3DD00EEB4E010EF00102A2
S315080046B402EB510202F2FF12B3EB522FC0F0B8809C
S315080046C44FF0FF33C4F81032C4F80C32802384F850
S315080046D40532B8F1030F2DD084F80082144A1388E2
S315080046E401339BB21380A4F806322046FFF71EFD59
S315080046F47CE04FF00308BDE7002E40F0958094F85F
S315080047042F1094F82E20120442EA016294F82D1010
S3150800471442EA012294F82C100A43C4F824224FEAE8
S315080047248E02C7E74FEA4E02C4E700BF2C030020F7
S315080047342803002094F8312094F8303043EA022301
S315080047441BB2012BC8D1791C2046FFF723FE00288B
S31508004754C2D1002384F8053294F8FF2194F8FE3177
S3150800476443EA02231BB2334A9342B5D1E278A378CB
S315080047741B0443EA0263627843EA0223227813435A
S315080047842D4A9342A8D194F8E72194F8E6311B04FC
S3150800479443EA026394F8E52143EA022394F8E42100
S315080047A41343264A934297D194F8EB2194F8EA31B5
S315080047B41B0443EA026394F8E92143EA022394F8C2
S315080047C4E8211343C4F8103294F8EF2194F8EE3133
S315080047D41B0443EA026394F8ED2143EA022394F89E
S315080047E4EC211343C4F80C3276E70B25284605B0AA
S315080047F4BDE8F0830C25F9E70325F7E70A25F5E76D
S315080048040125F3E70D25F1E70D25EFE70D25EDE77E
S315080048140D25EBE70D25E9E70D25E7E70D25E5E782
S315080048240D25E3E70D25E1E70D25DFE70D25DDE792
S315080048340D25DBE755AAFFFF5252614172724161A9
S3150800484438B50446FFF777FD054658B994F800329B
S31508004854032B09D00022114694F80102FFF74CFBFA
S3150800486400B10125284638BD94F80532012BF1D14B
S315080048744FF4007200212046FFF754FB552384F8B1
S31508004884FE31AA2384F8FF3152232370637061230F
S31508004894A3704122E270722184F8E41184F8E511C8
S315080048A484F8E62184F8E731D4F8103284F8E8313C
S315080048B4C3F3072284F8E921C3F3074284F8EA21FB
S315080048C41B0E84F8EB31D4F80C3284F8EC31C3F3BC
S315080048D4072284F8ED21C3F3074284F8EE211B0E60
S315080048E484F8EF31D4F81C220132C4F82C220123AF
S315080048F4214694F80102FFF7F3FA002384F80532F7
S31508004904A8E70239D0F81432023B8B4206D990F84C
S315080049140232D0F8280201FB0300704700207047D2
S3150800492401295ED9F8B505460C46D0F814328B42EF
S3150800493459D990F80032022B2BD0032B39D0012BEE
S3150800494401D0012050E001EB5106D0F8201201EB0A
S315080049545621FFF71FFD10B14FF0FF3044E0771CD6
S31508004964C6F30806AE5DD5F8201201EB5721284692
S31508004974FFF710FD002838D1C7F30807EB5D46EAB0
S31508004984032014F0010F01D000092DE0C0F30B0039
S315080049942AE0D0F8201201EB1421FFF7FBFC38BB00
S315080049A4640004F4FF742B195B78285D40EA03203D
S315080049B41AE0D0F8201201EBD411FFF7EBFCD0B9BA
S315080049C4A40004F4FE742B19DA789878000440EAF3
S315080049D402605B7840EA03202B5D184320F07040A0
S315080049E402E0012070470120F8BD4FF0FF30FBE7D5
S315080049F44FF0FF30F8E74FF0FF30F5E7F8B5074614
S31508004A04A0F80612D0F80842012C44D00E46D0F875
S31508004A140032D3F81422A2423FD9F4B993F80022FB
S31508004A24032A17D0CCB9B3F80822B24237D9D3F837
S31508004A342402C7F80C42D0B300EB1610C7F81002CC
S31508004A44D7F8003206F00F0103EB4113C7F8143206
S31508004A540020F8BDD3F82442E4E793F802522D0166
S31508004A64AE4212D32146D7F80002FFF759FF04468F
S31508004A74B0F1FF3F15D0012815D9D7F80032D3F87D
S31508004A841432834211D9761BEAE72146D7F8000285
S31508004A94FFF737FFCDE70220DBE70220D9E702203C
S31508004AA4D7E70120D5E70220D3E70220D1E7022081
S31508004AB4CFE7012940F284802DE9F04105460C46EA
S31508004AC41646D0F814328B427CD990F80032022B61
S31508004AD441D0032B53D0012B02D00220BDE8F0812C
S31508004AE401EB5107D0F8201201EB5721FFF752FCCE
S31508004AF40028F3D107F10108C7F3080714F00104E5
S31508004B041FD0EB5D320102F47F6203F00F031343F7
S31508004B14DBB2EB55012385F80432D5F8201201EBF4
S31508004B2458212846FFF736FC0028D7D1C8F30808C9
S31508004B344CB1C6F3071305F80830012385F8043287
S31508004B44CCE7F3B2E5E715F80830C6F3032223F0F9
S31508004B540F031343EFE7D0F8201201EB1421FFF7F4
S31508004B6419FC0028BAD1640004F4FF742B192E55D5
S31508004B74C6F307225A70012385F80432AEE7D0F843
S31508004B84201201EBD411FFF705FC0028A6D1A400D6
S31508004B9404F4FE742919CA788B781B0443EA026361
S31508004BA403F0704333432E55C6F307224A70C6F3FF
S31508004BB407428A701B0ECB70012385F804328DE7F1
S31508004BC402207047022089E7F8B505460F4641B921
S31508004BD4D0F80C629EB1D0F81432B34210D801262C
S31508004BE40EE0FFF79DFE034601284BD9B0F1FF3FBF
S31508004BF44DD0D5F81422824249D83E4600E0012613
S31508004C0434460CE021462846FFF78AFE034678B167
S31508004C14B0F1FF3F3BD0012839D0B44236D0013435
S31508004C24D5F81432A342EDD8012E2DD90224E9E78A
S31508004C346FF0704221462846FFF73BFF0346D0B97A
S31508004C4497B9C3B9C5F80C42D5F81032B3F1FF3F8A
S31508004C541FD0013BC5F8103295F8053243F001031D
S31508004C6485F80532234612E0224639462846FFF7D8
S31508004C7420FF0346E5E7012B01D0012307E04FF0A7
S31508004C84FF3304E0012302E0002300E00023184672
S31508004C94F8BD2346FBE72DE9F843B0F806526B1C2A
S31508004CA49AB2002A00F0838004460F46D0F81022F0
S31508004CB4002A7ED013F00F060BD10132C0F8102259
S31508004CC4D0F80C1289B9D0F80022B2F808229A4210
S31508004CD471D90135A4F80652D4F8003203EB461309
S31508004CE4C4F814320020BDE8F883D0F8000290F81E
S31508004CF40222013A12EA1318EBD1FFF711FE814694
S31508004D0401285AD9B0F1FF3F59D0D4F80002D0F897
S31508004D1414324B4541D8002F53D0D4F80C12FFF760
S31508004D2453FF814600284ED001284ED0B0F1FF3FEC
S31508004D344DD0D4F80002FFF7FEFA08B10120D2E7F5
S31508004D444FF400720021D4F80002FFF7EBF8D4F808
S31508004D54007249463846FFF7D4FDC7F82C02D4F842
S31508004D64003293F80222424511D9012283F804221B
S31508004D74D4F80002FFF7DFFA58BBD4F80022D2F8B9
S31508004D842C320133C2F82C3208F10108E7E7D3F8CC
S31508004D942C22A2EB0802C3F82C22C4F80C9249462A
S31508004DA4D4F80002FFF7ADFDC4F8100291E7042019
S31508004DB499E7042097E7042095E7022093E7012062
S31508004DC491E704208FE707208DE702208BE701206F
S31508004DD489E7012087E738B504460021FFF70EFE68
S31508004DE4054640B1284638BD00212046FFF753FF43
S31508004DF405460028F6D1D4F81012D4F80002FFF7B5
S31508004E04C9FA05460028EDD1D4F8140203785BB133
S31508004E14C37A13F0080FE7D10B22D4F81812FFF758
S31508004E2489F80028E0D1DDE70425DBE710B582B070
S31508004E34044601910B782F2B01D05C2B01D101314B
S31508004E4401910023C4F80832019B1B781F2B1DD936
S31508004E5401A92046FFF7BCF90346F8B92046FFF72F
S31508004E64BAFFD4F81832DA7A0346D0B912F0040F26
S31508004E7414D1D4F81412CB7A13F0100F18D0D4F82E
S31508004E840002FFF789F9C4F80802E1E70021204681
S31508004E94FFF7B4FD03460022C4F81422184602B0EC
S31508004EA410BD0428FAD112F0040FF7D10523F5E74B
S31508004EB40523F3E770B504460E460021FFF79EFD69
S31508004EC40246D8B9002508E00135B54216D00121B5
S31508004ED42046FFF7E0FE024680B9D4F81012D4F84B
S31508004EE40002FFF757FA024640B9D4F814321B7881
S31508004EF4E52BE9D0002BE7D00025E8E7042A01D002
S31508004F04104670BD0722FBE738B504460121FFF7B2
S31508004F14D1FF054608B1284638BDD4F81012D4F88E
S31508004F240002FFF737FA05460028F4D120220021AB
S31508004F34D4F81402FEF7F6FF0B22D4F81812D4F8A4
S31508004F441402FEF7E5FFD4F80032012283F804229E
S31508004F54E1E7F8B501292DD904460D46D0F81432EF
S31508004F648B422AD9002700E03546D4F81432AB42DE
S31508004F7421D929462046FFF7D3FC0646D8B101288D
S31508004F841DD0B0F1FF3F1CD0002229462046FFF76A
S31508004F9490FD074678B9D4F81032B3F1FF3FE3D051
S31508004FA40133C4F8103294F8053243F0010384F847
S31508004FB40532D9E702273846F8BD0227FBE7022758
S31508004FC4F9E70127F7E7000070B584B0019000916E
S31508004FD41646039103A8FFF785F9041E1DDB114B3A
S31508004FE453F824502DB12846FFF7A0F8002385F876
S31508004FF40032019B13B1002283F80022094A42F8C1
S31508005004243063B1012E02D0002004B070BD002202
S31508005014694601A8FFF73EFAF7E70B20F5E70020F3
S31508005024F3E700BF2C0300202DE9F043ADF50F7D0F
S315080050340191002800F0E580144606460023C0F8CE
S31508005044003202F01F0802F01E073A4601A986A894
S31508005054FFF720FA054620B128460DF50F7DBDE871
S31508005064F08303AB8C93019906A8FFF7DFFEDDF8FE
S315080050742C92054648B9B9F1000F5AD0391E18BF03
S31508005084012106A8FEF76EFF054614F01C0F00F072
S31508005094A480002D59D0042D4DD048F00808DDF819
S315080050A42C9215B918F0080F5BD1002DD4D118F03D
S315080050B4080F01D048F02008869BD3F82C32C6F88E
S315080050C41C32C6F82092B8F1010F94BF00210121C1
S315080050D406A8FEF79FFFC6F82802002800F093806A
S315080050E486F80682002486F80742869F494638468B
S315080050F4FFF752F8C6F8100299F81F2099F81E30DF
S315080051041B0443EA026399F81D2043EA022399F82B
S315080051141C201343C6F80C32C6F80842C6F81842CF
S31508005124C6F82442C6F80072B7F80632A6F804325E
S3150800513492E70625A9E7FEF75BFF08B91225ACE74F
S3150800514406A8FFF7E1FE0546A7E799F80B3013F022
S31508005154110F04D114F0040FA3D00825A1E70725DD
S315080051649FE7FEF7E9FA89F80E00C0F3072389F8E2
S315080051740F30C0F3074389F81030000E89F8110080
S31508005184002489F80B4089F81C4089F81D4089F8E1
S315080051941E4089F81F4049468698FEF7FDFF0746D4
S315080051A421464846FFF709F88698012380F8043211
S315080051B4002F3FF47AAFD0F82C423946FFF7C9FEE0
S315080051C4054600287FF471AF8698013FC0F80C7233
S315080051D42146FFF7DFF8054667E7002D7FF465AF3C
S315080051E499F80B3013F0100F09D114F0020F3FF49D
S315080051F45CAF13F0010F3FF458AF072555E70425B4
S3150800520453E7092528E7022526E72DE9F04F83B059
S3150800521404460F46164698460023C8F80030FFF79A
S315080052241FF90190002840F0D18094F807320193C1
S31508005234002B40F0CB8094F8063213F0010F00F0EF
S31508005244D780D4F80C52D4F80832ED1AB54276D37E
S31508005254354674E0D4F824321BB12046FEF788FF9D
S3150800526483E0D4F81412FFF75BFB7EE04FF0020AE2
S3150800527484F807A2CDF804A0A8E04FF0010A84F840
S3150800528407A2CDF804A0A1E04FF0020A84F807A209
S31508005294CDF804A09AE094F8063213F0400F05D02E
S315080052A4D4F81802A0EB0900504502D34FEA4A265F
S315080052B439E04FF40072214607EB4020FEF728FE3A
S315080052C4F4E7D4F818224A451DD094F8063213F0A8
S315080052D4400F0DD0012321469BF80102FEF700FE7C
S315080052E4002877D194F8063223F0400384F806326E
S315080052F4D4F8000201234A46214690F80102FEF733
S31508005304E3FD00286DD1C4F81892D4F80812C1F345
S315080053140801C1F50076B54200D22E46324621442C
S315080053243846FEF7F5FD3744D4F808323344C4F852
S315080053340832D8F800303344C8F80030AD1B002DC5
S3150800534444D0D4F80812C1F30803002BDDD1D4F8ED
S31508005354000290F80262013EF6B216EA51260CD112
S3150800536400297FF477AFD4F8100201287FF67EAFC0
S31508005374B0F1FF3F81D0C4F81402D4F800B2D4F8CF
S3150800538414125846FFF7BDFA814600283FF47CAF4D
S31508005394B1444FEA552AB5F5007F92D306EB0A03C2
S315080053A49BF80222934201D9A2EB060A53464A46BF
S315080053B439469BF80102FEF787FD00283FF46BAFD8
S315080053C44FF0010A84F807A2CDF804A0019803B0A7
S315080053D4BDE8F08F4FF0010A84F807A2CDF804A0BF
S315080053E4F4E74FF0010A84F807A2CDF804A0EDE724
S315080053F407230193EAE738B50446FFF731F800BBFB
S3150800540494F8063213F0200F1BD013F0400F11D076
S31508005414D4F800020123D4F81822214690F8010290
S31508005424FEF75EFD002843D194F8063223F04003C4
S3150800543484F80632D4F81C12D4F80002FEF7AAFF40
S3150800544400B138BDD4F82052EB7A43F02003EB724E
S3150800545494F80C322B77B4F80C321B0A6B7794F851
S315080054640E32AB7794F80F32EB77D4F8101228463D
S31508005474FEF7A3FEFEF760F9A875C0F30723EB75DC
S31508005484C0F307432B76000E68760023AB74EB74DF
S3150800549494F8063223F0200384F80632D4F800324E
S315080054A4012283F80422D4F80002FFF7C9F9C8E7F1
S315080054B40120C6E710B50446FFF79DFF00B110BDED
S315080054C42046FEF7CDFF0028F9D1D4F82802FEF7C6
S315080054D407FE0028F3D1C4F80002F0E7134B5B7A01
S315080054E4DBB2012B01D90120704710B404460F4BD7
S315080054F493F809C05FFA8CFC002003F80C0093F8B3
