S0140000466173616C466C61736865722E7372656364
S3150800000000000120B10A0008090800080D080008C8
S31508000010150800081D08000825080008000000004B
S315080000200000000000000000000000002D08000885
S3150800003031080008000000003508000839080008E3
S31508000040F90A0008F90A0008F90A0008F90A000876
S31508000050F90A00083D080008F90A0008F90A000824
S31508000060F90A0008F90A0008F90A0008F90A000856
S31508000070F90A0008F90A0008F90A0008F90A000846
S31508000080F90A0008F90A0008F90A0008F90A000836
S31508000090F90A0008F90A0008F90A0008F90A000826
S315080000A0F90A0008F90A0008F90A0008F90A000816
S315080000B0F90A0008F90A0008F90A0008F90A000806
S315080000C0F90A0008F90A0008F90A0008F90A0008F6
S315080000D0F90A0008F90A0008F90A0008F90A0008E6
S315080000E0F90A0008F90A0008F90A0008F90A0008D6
S315080000F0F90A0008F90A0008F90A0008F90A0008C6
S31508000100F90A0008F90A0008F90A0008F90A0008B5
S31508000110F90A0008F90A000841080008F90A00085F
S31508000120F90A0008F90A0008F90A0008F90A000895
S3150800013000000000000000000000000000000000B1
S3150800014000000000000000000000000000000000A1
S315080001500000000000000000000000000000000091
S315080001600000000000000000000000000000000081
S315080001700000000000000000000000000000000071
S315080001800000000000000000000000000000000061
S315080001900000000000000000000000000000000051
S315080001A00000000000000000000000000000000041
S315080001B00000000000000000000000000000000031
S315080001C00000000000000000000000000000000021
S315080001D00000000000000000000000000000000011
S309080001E05FF8E0F1E5
S315080001E410B5054C237833B9044B13B10448AFF35F
S315080001F400800123237010BDE000002000000000E9
S3150800020484E7000808B5034B1BB103490348AFF359
S31508000214008008BD00000000E400002084E7000810
S31508000224034613F8012B002AFBD1181A0138704724
S31508000234430803F05533C01A830803F0333300F038
S315080002443330184400EB101000F00F3000EB002098
S3150800025400EB0040000E704708B50548054B0360DF
S3150800026400F05EFD00B908BDBDE8084000F076B9A7
S31508000274FC00002000300240094B02689A4200D074
S315080002847047A3F500535A6982B042F040025A6196
S315080002945B6903F040030193019B02B0704700BFFA
S315080002A4003002402DE9F0430024102189B0CDE93D
S315080002B40444CDE90644494B494E9A69494D0A43D3
S315080002C49A619A69DFF820810A400092009A9A692D
S315080002D4304642F020029A619A694FF0010902F009
S315080002E420020192019A9A69022742F004029A614D
S315080002F49A6902F004020292029A9A6942F0080282
S315080003049A619B69224603F008030393039B01F051
S315080003141DF82246284641F2381101F017F82246FC
S3150800032440464FF4E05101F011F840F2FF3203233E
S31508000334404604A9CDE9042300F04EFD01222B4BC7
S31508000344304604A9CDE90423069400F045FD49F690
S3150800035402120323304604A9CDE9042300F03CFD28
S31508000364102330460DEB03010493CDE90594079752
S3150800037400F032FD40F605420023284604A9CDE9DB
S315080003840423069400F028FD40F20222032328469B
S3150800039404A9CDE9042300F01FFD41F238132846C9
S315080003A404A90493CDE90594079700F015FD4FF4C5
S315080003B4E053404604A90493CDE90647CDF81490C2
S315080003C400F00AFD04220323094804A9CDE90423FD
S315080003D400F002FD09B0BDE8F08300BF001002403A
S315080003E400080140000C01400010014000001110F3
S315080003F40014014000234FF4804210B509480A4C02
S315080004040A49C0E90233C0E90041C0E90423C0E946
S315080004140633036200F0B4FF00B910BDBDE810400E
S3150800042400F09CB80801002000540040A086010092
S315080004340023D0B5144A016886B09142CDE9023347
S31508000444CDE9043301D006B0D0BD0322C026122755
S315080004540E4C0F48A36902A943F00803A361A369D4
S31508000464CDE9026703F008030093009B059200F0A8
S31508000474B3FCE36943F40013E361E36903F400138B
S315080004840193019B06B0D0BD005400400010024001
S31508000494000C01400023012230B597B005244FF41F
S315080004A480350221CDE90F22CDE911334FF480328C
S315080004B4CDE90233CDE90433CDE90733CDE9093370
S315080004C40E93019306930B934FF4E0130CA8CDE90E
S315080004D40C4513911492159301F09AF8C0B90023A8
S315080004E402210F224FF4806401A8CDE90121049466
S315080004F40393059301F002FB88B901224FF4807334
S3150800050406A8CDE9062301F06BFC20B917B030BD67
S3150800051405F02EFCE3E705F02BFC17B030BD05F01B
S3150800052427FCEAE708B500F00BFBFFF7B3FFFFF774
S31508000534B9FEFFF791FEFFF75DFF00F019F800F02A
S315080005445FF800F07FF800F017FA00F031FA03F0CC
S31508000554A5F800F0C9F905F065FEFCE705F008BC46
S31508000564014B024A05F022BCA4E70008A8E70008E4
S3150800057400234FF0FF3200B50F48104983B0C0E995
S31508000584001200938360019301F04CFD58B90122CF
S31508000594022369460848CDE9002301F0EBFD28B992
S315080005A403B05DF804FBFFF7D9FFF0E7FFF7D6FFC2
S315080005B403B05DF804FB00BF60010020002800407A
S315080005C40C4B02689A4200D0704700B583B001F01C
S315080005D419F80120084B0949DA6942F00062DA6120
S315080005E4DB6903F000630193019BC1F83C0403B083
S315080005F45DF804FB00280040001002400000424257
S3150800060438B5082100234FF482754FF400740A2282
S315080006140A48C0E90153C0E90333C0E90534C0E90F
S315080006240713C0E90933064BC262036001F046FEAC
S3150800063400B938BDBDE83840FFF790BFD0010020A7
S315080006440030014010B500234FF482744FF4007152
S315080006540A220B48C0E90143C0E90333C0E905315E
S31508000664C0E90733C0E90933064BC262036001F0E7
S3150800067425FE00B910BDBDE81040FFF76FBF00BFE7
S315080006847801002000380040D0B500242F4A0368BA
S3150800069488B09342CDE90444CDE9064404D02C4AF3
S315080006A4934229D008B0D0BD2A4BA0269A690227BE
S315080006B442F480529A619A6904A902F4805200921B
S315080006C4009A9A69244842F004029A619B69CDE922
S315080006D4046703F0040301930323019A079300F0C4
S315080006E47BFB402200231C4804A9CDE90423069475
S315080006F400F072FB08B0D0BD164B4FF42046DA69F9
S31508000704022742F48042DA61DA6904A902F48042D3
S315080007140292029A9A69114842F008029A619B6900
S31508000724CDE9046703F0080303930323039A0793A5
S3150800073400F052FB4FF480420023084804A9CDE98F
S315080007440423069400F048FB08B0D0BD00300140ED
S31508000754003800400010024000080140000C014027
S315080007640E4A0368934203D00D4A93420AD070474F
S3150800077402F560429369E02123F4805309489361A2
S3150800078400F000BD02F5EC32D3694FF4604123F45E
S3150800079480430548D36100F0F5BC00BF0030014032
S315080007A40038004000080140000C01400022134BA9
S315080007B400B5996983B041F00101996199690520E9
S315080007C401F0010100910099D96941F08051D9617C
S315080007D4DB69114603F080530193019B00F004FA88
S315080007E4052000F047FA064A536823F0E06343F00D
S315080007F40073536003B05DF804FB00BF00100240A9
S3150800080400000140FEE700BF08B505F0C1FAFEE79F
S3150800081408B505F0BDFAFEE708B505F0B9FAFEE72E
S3150800082408B505F0B5FAFEE7704700BF704700BF84
S31508000834704700BF00F096B9704700BF014802F040
S3150800084437BB00BF3002002070B5161E07DD0C4604
S315080008548D19AFF3008004F8010BA542F9D130468F
S3150800086470BD00BF70B5161E07DD0C468D1914F849
S31508000874010BAFF30080AC42F9D1304670BD00BF1E
S315080008844FF0FF30704700BF4FF4005300204B6011
S31508000894704700BF01207047002070470D49034682
S315080008A410B50D4A0D4C0868121B20B10344934237
S315080008B407D80B6010BD0A4C2046034493420C60CB
S315080008C4F7D90DF091F80C2203464FF0FF301A6061
S315080008D410BD00BF280200200000012000100000FF
S315080008E438D00020704700BF002340F67F416322BA
S315080008F410B50F480F4C82B0C0E901130460009389
S31508000904C2608361019302F095F950B9002200236D
S3150800091469460748CDE9002302F074FB20B902B002
S3150800092410BDFFF71BFEF1E7FFF718FE02B010BD76
S3150800093430020020001000400E4B02689A4200D094
S315080009447047002203F50033D96900B541F0100158
S31508000954D961DB6983B003F010030193362011468D
S31508000964019B00F041F9362003B05DF804EB00F072
S3150800097481B900BF0010004000234FF4E1310C2276
S3150800098410B50948094CC0E90113C0E90333C0E9A5
S3150800099405230460C36102F02FFC00B910BDBDE84D
S315080009A41040FFF7DBBD00BFC0020020003801403D
S315080009B400234FF4E1310C2210B50948094CC0E96B
S315080009C40113C0E90333C0E905230460C36102F0D7
S315080009D413FC00B910BDBDE81040FFF7BFBD00BF4A
S315080009E47802002000440040D0B500242B4A03684E
S315080009F488B09342CDE90444CDE9064404D0284A94
S31508000A0493422BD008B0D0BD264B4FF400769A6992
S31508000A14022742F480429A619A69234802F4804282
S31508000A240092009A9A6904A942F004029A619B69A1
S31508000A34CDE9046703F0040301930323019A07939A
S31508000A4400F0CAF94FF480620023174804A9CDE9D7
S31508000A540423069400F0C0F908B0D0BD114B04264F
S31508000A64DA69022742F40032DA61DA690E4802F4D6
S31508000A7400320292029A9A6904A942F004029A611F
S31508000A849B69CDE9046703F0040303930323039ADC
S31508000A94079300F0A1F90822D6E700BF0038014001
S31508000AA4004400400010024000080140FFF71AFF06
S31508000AB40B480C490C4A002302E0D458C4500433AA
S31508000AC4C4188C42F9D3094A094C002301E013607F
S31508000AD40432A242FBD30CF08DFFFFF723FD7047C7
S31508000AE400000020C400002090F70008E000002061
S31508000AF434D00020FEE7000038B54FF47A730D4A67
S31508000B04054611780C4AB3FBF1F31268B2FBF3F00D
S31508000B1400F0EEF808B90F2D01D9012038BD0446B6
S31508000B24024629464FF0FF3000F05EF8034B204694
S31508000B341D6038BD040000200000002008000020C5
S31508000B44074A08B51368032043F01003136000F03E
S31508000B542DF80F20FFF7D0FFFFF728FE002008BD69
S31508000B6400200240034A044B11681B780B441360A7
S31508000B74704700BF0803002004000020014B1868D2
S31508000B84704700BF0803002038B50446FFF7F6FF90
S31508000B94631C054602D0044B1B781C44FFF7EEFF82
S31508000BA4401BA042FAD338BD04000020C31E042B00
S31508000BB410B504460ED84FF6FF0009492302CA6841
S31508000BC403F4E0630240134343F0BF6343F4003382
S31508000BD4CB6010BD91210348FFF7C2FCEBE700BFC9
S31508000BE400ED00E0D0E700080F2A70B51646054662
S31508000BF40C4634D80F2C2DD81B4BDB68C3F30223C1
S31508000C04C3F10702042A03F1040128BF04220629B2
S31508000C1417D9D91E4FF0FF338B4026EA03064FF047
S31508000C24FF33934024EA03038B4033431B01002D0F
S31508000C34DBB209DB05F1604505F5614585F8003346
S31508000C4470BD00263146EAE7084A05F00F052A442E
S31508000C54137670BDAA210648FFF782FCCCE7A921C2
S31508000C640348FFF77DFCC5E700ED00E0FCEC00E077
S31508000C74D0E70008002808DB012300F01F01054A15
S31508000C8440098B4042F820307047BD210248FFF7DF
S31508000C9467BC00BF00E100E0D0E7000800280DDBD0
S31508000CA401220849430900F01F002033824041F815
S31508000CB42320BFF34F8FBFF36F8F7047CD210248B0
S31508000CC4FFF74EBC00E100E0D0E70008BFF34F8F02
S31508000CD40549064BCA6802F4E0621343CB60BFF3C6
S31508000CE44F8F00BFFDE700BF00ED00E00400FA05E2
S31508000CF40138B0F1807F01D3012070474FF0E0231B
S31508000D044FF0F00C0022072110B4044C586184F803
S31508000D1423C010469A6110BC1961704700ED00E0C3
S31508000D24C8B10E4B026810B59A42044603D068212E
S31508000D340B48FFF715FC637903F0FF021BB1012387
S31508000D446371002010BD20462271FFF795FA01232E
S31508000D546371002010BD0120704700BF00300240B7
S31508000D640CE80008022310B48446046843713AB1B7
S31508000D74043901EB820251F8043F8A422360FAD10E
S31508000D84012320688CF8053010BC704790F82120A0
S31508000D940346022A06D004229A630022012083F815
S31508000DA4202070474FF0010C1A680020116821F0C2
S31508000DB40E011160116821F001011160D3E90F12C7
S31508000DC40CFA02F24A60002283F821C083F8202034
S31508000DD4704700BF806B70472DE9F04FA84B064655
S31508000DE498420F4683B01BD003F58063984217D008
S31508000DF403F58063984213D003F5806398420FD0B5
S31508000E0403F5806398420BD003F58063984207D0B4
S31508000E1403F58063984203D0BD219A48FFF7A0FBE7
S31508000E243B689AB21AB1B3F5803FC0F02381BE215C
S31508000E349448FFF795FB7A68012A0BD9924B9A4294
S31508000E4408D064D8A3F580139A4203D050D98F4B9F
S31508000E549A4252D13B68002B56D04FF00009DFF86E
S31508000E6420B24D46DFF828A28A4A03E0013533FA50
S31508000E7405F149D00124AC4034EA030104EA030825
S31508000E84F4D15E4519D0844B9E4216D0964214D0AE
S31508000E9403F500639E4210D003F580639E420CD08E
S31508000EA403F580639E4208D003F580639E4204D00E
S31508000EB4CD217448FFF754FB764A7B68122B00F25F
S31508000EC4B880122B40D8DFE813F0C1000A010301E9
S31508000ED419013F003F003F003F003F003F003F002D
S31508000EE43F003F003F003F003F003F00FC00F50085
S31508000EF4032AAFD9113A012AACD9BF216148FFF7B1
S31508000F042FFB3B68002BA8D103B0BDE8F08F634BD9
S31508000F149A429FD0A3F5702322F480129A4299D05C
S31508000F24BF215848FFF71CFBEBE7A1F580118B425C
S31508000F3400F08C8001F570218B4200F08780A1F5C2
S31508000F4480118B4200F08280B8F1FF0F00F289808D
S31508000F543446A9000F20236809FA01FC00FA01F1B6
S31508000F6423EA010343EA0C0323607B68D9007FD58F
S31508000F74DAF8181005F0030441F00101CAF818104C
S31508000F84DAF81810A40001F001010191019925F07D
S31508000F94030101F1804101F58031D1F808C0A04070
S31508000FA45E452CEA00001ED0DFF8ECC0664500F06A
S31508000FB4AE80DFF8E0C0664500F0A380DFF8E0C045
S31508000FC4664500F0BA80DFF8DCC0664500F0D080DC
S31508000FD4DFF8D4C066450CBF4FF0050C4FF0060C7D
S31508000FE40CFA04F4204388603048DC0281684CBF5C
S31508000FF441EA080121EA080181602C489C02C1687B
S315080010044CBF41EA080121EA0801C16027489C034C
S3150800101441684CBF41EA080121EA080141602349B5
S3150800102413F4803F0B6820D043EA08030B603B683F
S315080010341CE71F498B4209D07FF677AF17498B42C5
S3150800104404D001F580318B427FF47EAFBB68022B56
S315080010546AD8002B61D1B8F1FF0F4FF004097FF667
S3150800106477AFA9002039341D74E723EA08030B6017
S315080010743B68FBE67A68012A3FF6E0AEEDE600BF78
S315080010840008014044E8000800002110000012107E
S315080010940010024000100140000C0140000031100D
S315080010A40014014000180140001C014000040140DE
S315080010B400002210FB68591E022952D803F10C09B4
S315080010C442E7FB68591E022944D803F104093BE7A1
S315080010D4FB68591E022936D803F1080934E7D7F8FC
S315080010E40C9009F1FF33022B7FF62EAFD521234846
S315080010F4FFF736FAD7F80C90214A25E74FF000098E
S3150800110422E74FF0020C0CFA04F420436BE74FF085
S31508001114010C0CFA04F4204365E7012B4FF0080987
S315080011240CBF346174610FE7F7211448FFF718FA06
S31508001134BB68134A002B8ED0EFE74FF0030C0CFA6A
S3150800114404F420434FE7E3210C48FFF709FAFB6848
S315080011540B4AC1E7DC210948FFF702FAFB68084A8B
S31508001164B3E7EA210548FFF7FBF9FB68044AA5E754
S315080011744FF0040C0CFA04F4204334E744E800085E
S31508001184001001402DE9F84F5F4B044698420D467E
S315080011941CD003F58063984218D003F580639842FF
S315080011A414D003F58063984210D003F580639842FF
S315080011B40CD003F58063984208D003F580639842FF
S315080011C404D04FF4B4715148FFF7CAF9ABB2002BF7
S315080011D478D0B5F5803F80F08680002001274FF04F
S315080011E40F094FF0040A0346494E51E00EF5806E86
S315080011F4744570D0DFF81CE174456FD0DFF818E148
S31508001204744576D0DFF814E1744577D0DFF810E139
S31508001214744514BF4FF0060E4FF0050E0EFA02F28F
S3150800122490456FEA010E15D1326802EA0E02326061
S31508001234726802EA0E027260F26802EA0E02F2604C
S31508001244B26802EA0E02B260DCF8082022EA0B024F
S31508001254CCF80820FF299ABFA446014604F1040CD9
S31508001264DCF8002088BFA0F1200109FA01F822EA77
S3150800127408020AFA01F10A43CCF80020E26802EAF5
S315080012840E02E260013335FA03F200F1040020D0BD
S3150800129407FA03F212EA0501F4D023F0030C0CF161
S315080012A4804CDFF864E00CF5803C03F00302DCF8BC
S315080012B40880920009FA02FB74450BEA080895D1DE
S315080012C40022ADE740F269111048FFF749F9002DED
S315080012D483D1BDE8F88F07FA02F2A1E74FF0020EB0
S315080012E40EFA02F29CE740F269110848FFF738F94A
S315080012F473E74FF0030E0EFA02F291E74FF0040E6D
S315080013040EFA02F28CE700BF0008014044E8000820
S315080013140004014000100140001401400018014077
S31508001324001C014038B505460C4629B183681942A4
S3150800133414BF0120002038BD4FF4DA710248FFF7C4
S315080013440FF92046AB6838BD44E8000870B5064670
S315080013540C46154661B1012D03D805B92404346138
S3150800136470BD40F2D5110548FFF7FAF8346170BD2F
S315080013744FF4EA710148FFF7F3F8ECE744E800088C
S31508001384002800F02C8138B5964A0368044693422F
S3150800139408D002F58062934204D040F2DB119248E9
S315080013A4FFF7DEF86368914A013B934200F2FF8037
S315080013B4A36833F4804340F0D880E368B3F5806FBC
S315080013C480F0DD80236923F40043B3F5804F04D00D
S315080013D440F2DF118448FFF7C3F86369012B00F272
S315080013E4D480A36933F0FE0340F0D980E36933F06F
S315080013F4400304D04FF4F1717B48FFF7B1F8236A30
S3150800140433F0800340F09F8094F83D3003F0FF02E8
S31508001414002B00F0A4802422236884F83D201A684F
S3150800142422F001021A601A6842F400421A601A6825
S3150800143422F400421A6000F0B3FC63686C4A9342D3
S315080014444FD86C4A904240F2B0806B4D5A00A5FBC7
S315080014540035431EB3FBF2F340F6FC7C2268A90C64
S315080014645068013120F03F0040EA95405060106A08
S31508001474013320F03F0001431162D16913EA0C0FCE
S3150800148421F44F4121F0FF0140F0978004230B43D8
S31508001494D3611168D4E9073021F0C00103430B4333
S315080014A413609168D4E9030321F40341034321F04B
S315080014B4FF010B439360D068D4E9053120F0FF009F
S315080014C40B430343D3601368002143F001031360FD
S315080014D42023216484F83D30216384F83E100846AD
S315080014E438BD464A904260D9434A454DA2FB002C72
S315080014F44FF496724FEA9C4102FB01F12268A5FB60
S3150800150401515568890925F03F0545EA9C4555600A
S31508001514156A013125F03F0529431162D169A56889
S3150800152421F44F41013821F0FF01002D48D103EB86
S315080015344303B0FBF3F30133C3F30B03002B4CD083
S3150800154443F40043A3E740F2E3112748FFF708F8FA
S3150800155494F83D3003F0FF02002B7FF45CAF20467D
S3150800156484F83C20FEF764FF55E740F2DD111E4877
S31508001574FEF7F6FFE368B3F5806FFFF423AF4FF485
S31508001584EF711948FEF7ECFF1CE74FF4F0711648A3
S31508001594FEF7E6FFA36933F0FE033FF427AF40F2F4
S315080015A4E1111148FEF7DCFF20E7012038BD4FF4AE
S315080015B4EE710D48FEF7D4FFFAE6C3F30B0366E7AC
S315080015C403EB830303EB8303B0FBF3F30133C3F3A6
S315080015D40B0313B143F4404359E7012357E70120AA
S315080015E4704700BF0054004080E800087F1A0600D0
S315080015F4A08601007F841E0083DE1B43FF083D008E
S31508001604D34D62100122014B1A62704700000E4244
S31508001614002800F06B822DE9F0410368044682B085
S31508001624002B48D01E0700F0C781DD0740F1B280C1
S31508001634636833F4803203D0B3F5A02F40F0988161
S31508001644A24A536803F00C03042B00F09A805368EB
S3150800165403F00C03082B00F090806368B3F5803F11
S3150800166400F07381002B00F0AE81B3F5A02F00F0D3
S315080016740582964B1A6822F480321A601A6822F494
S3150800168480221A6066E1914A136A43F001031362E1
S31508001694FFF774FA41F2883806468C4F05E0FFF7DF
S315080016A46DFA801B404500F283813B6A9B07F6D599
S315080016B4002D40F0DD81E369022B00F23C81002B0A
S315080016C457D0824D6A6802F00C02082A00F0BF81DE
S315080016D4022B40F0E881236A33F4803304D040F2C5
S315080016E4B6217B48FEF73CFF636A33F4402212D0E6
S315080016F4B2F5801F0FD0B2F5001F0CD023F4802258
S31508001704B2F5401F07D0B3F5601F04D040F2B721E5
S315080017146F48FEF725FF00226E4B6C4E1A66FFF7DC
S315080017242DFA054605E0FFF729FA401B022800F2C0
S315080017343F8133689901F6D4226AB2F5803F00F0F6
S31508001744C3810120614D616A6B6823F474130B43EA
S31508001754604913436B600866FFF710FA044605E010
S31508001764FFF70CFA001B022800F222812B689A0163
S31508001774F6D5002002B0BDE8F0815368D8037FF59A
S315080017846CAF524B1B68990303D56368002B00F0B2
S315080017949A8023689F072FD52369012B00F2A2801C
S315080017A463691F2B00F2A780484B5A6812F00C0F86
S315080017B400F082805A6802F00C02082A79D023695C
S315080017C4002B00F033810122424B404E1A60FFF78A
S315080017D4D5F9054605E0FFF7D1F9401B022800F2C2
S315080017E4E78033689807F6D53368626923F0F80307
S315080017F443EAC203336023681A0725D5A369012B74
S3150800180400F29080002B7CD00122324B2F4EC3F875
S315080018148024FFF7B3F9054605E0FFF7AFF9401B47
S31508001824022800F2C580736A9B07F6D52A4B2B4A11
S315080018341B68A2FB03235B0A019300BF019B5A1E84
S315080018440192002BF9D123685D077FF534AFE3686D
S31508001854012B06D9052B04D040F20F211C48FEF7AC
S315080018647FFE1A4BDA69D00000F1C3800125DA69D4
S3150800187442F08052DA61DB6903F080530093009BDF
S31508001884174E3368D90540F18380E368012B3FF48A
S31508001894FAAE002B00F0AF80052B0C4B1A6A00F049
S315080018A4FA8022F001021A621A6A22F004021A6203
S315080018B4EEE65B68DE0382D4044B1B689D075DD5A0
S315080018C42369012B5AD0012054E700BF00100240B7
S315080018D4B8E800080000424200000020D34D621018
S315080018E40070004040F29F118148FEF739FE636993
S315080018F41F2B7FF659AF4FF4D0717D48FEF730FEA3
S3150800190452E77C4A7C4EC2F88034FFF737F905461D
S3150800191404E0FFF733F9401B022849D8736A9F0786
S31508001924F7D490E74FF4F0717148FEF719FEA369EE
S31508001934002BE6D068E740F2AD216D48FEF710FEAD
S31508001944E369002B7FF4BDAE13E76B4A136843F4CF
S3150800195480331360FFF712F9674E054604E0FFF774
S315080019640DF9401B642823D833689A03F7D510E782
S3150800197440F26B115E48FEF7F3FD61E65E4A616963
S31508001984136823F0F80343EAC1031360236833E7B3
S31508001994336843F480733360FFF7F0F80746336817
S315080019A4DA053FF572AFFFF7E9F8C01B6428F6D9E4
S315080019B4032002B0BDE8F08140F265114C48FEF7F9
S315080019C4CFFD236831E64C4D2B6823F480332B6016
S315080019D42B6823F480232B60FFF7D0F8064604E02F
S315080019E4FFF7CCF8801B6428E2D82B689B03F7D44E
S315080019F4CFE6002544E7404E41F28838336A23F09F
S31508001A0401033362336A23F004033362FFF7B6F83B
S31508001A14074604E0FFF7B2F8C01B4045C8D8336A46
S31508001A249807F7D4002D3FF446AE21E0314A324EEA
S31508001A341360FFF7A3F8054604E0FFF79FF8401B79
S31508001A440228B5D833689907F7D42368D4E6012B56
S31508001A543FF439AF6B68226A03F4803191427FF40C
S31508001A6432AF606A03F47013181A18BF012081E6AE
S31508001A74214AD36923F08053D3611CE603F18043DA
S31508001A84A3F53C331A6842F480221A601A6842F4B1
S31508001A9480321A605EE742F004021A621A6A42F059
S31508001AA401021A62F4E50022124B1A66FFF766F879
S31508001AB4044605E0FFF762F8001B02283FF678AFF4
S31508001AC42B689B01F6D454E6A16831F4003306D09A
S31508001AD440F2CD210648FEF743FDA168226A06486E
S31508001AE4436823F400330B4343602AE60120704716
S31508001AF4B8E800080000424200100240002800F03E
S31508001B04FF8003682DE9F0411B0704460D4600F0E3
S31508001B14CF80022D00F2C680834A136803F00703B8
S31508001B24AB420CD2136823F007032B4313601368E4
S31508001B3403F00703AB4202D00120BDE8F081236815
S31508001B449F0728D55E0704D578494A6842F4E062B7
S31508001B544A60180704D575494A6842F460524A60CF
S31508001B64A26892B1C02A10D000F2C180A02A0CD073
S31508001B7400F2B98022F01001802906D040F25D31C6
S31508001B846B48FEF7EDFCA26823686848416821F0B3
S31508001B94F0010A434260D90726D56368022B00F28E
S31508001BA4B580624A012B126800F0AC80022B00F063
S31508001BB496809607C0D55D4E41F28838726822F041
S31508001BC4030213437360FEF7D9FF074605E0FEF7E1
S31508001BD4D5FFC01B404500F2A0807368626803F015
S31508001BE40C03B3EB820FF2D14F4A136803F00703D1
S31508001BF4AB4209D9136823F007032B431360136810
S31508001C0403F00703AB4297D12368580718D5E16850
S31508001C1431F480620ED021F40072B2F5A06F09D0B7
S31508001C24B1F5C06F06D040F2A2314148FEF798FCE0
S31508001C34E16823683D48426822F4E0620A43426048
S31508001C44190718D5226932F480630DD022F400737B
S31508001C54B3F5A06F08D0B2F5C06F05D040F2A9312C
S31508001C643348FEF77DFC226930494B6823F46053F8
S31508001C7443EAC2034B602D494A6802F00C03082B59
S31508001C841CD02C4B294A2C4852682C49C2F30312FF
S31508001C94805C2B4AC34008681360FEF72DFF0020BA
S31508001CA4BDE8F08140F237312148FEF759FC33E7A5
S31508001CB440F236311E48FEF753FC2AE72148C2F3A0
S31508001CC48343D203C35C2AD51A484A6800FB03F344
S31508001CD41D49C2F340428A5CB3FBF2F3D2E797018B
S31508001CE43FF569AF28E7B02A3FF44FAF46E7E02A45
S31508001CF43FF44BAF22F02001D0297FF43FAF44E7ED
S31508001D040120704792033FF556AF15E74FF4597112
S31508001D140748FEF725FC636843E703200DE70B4AEB
S31508001D2402FB03F3AEE700BF0020024000100240A6
S31508001D34B8E8000800127A00C0E700080800002086
S31508001D4400000020F4E80008F0E8000800093D0057
S31508001D540E4A536803F00C01082901D00C48704751
S31508001D640C48C3F38341DB03405C0AD5084953682E
S31508001D7401FB00F0084AC3F34043D35CB0FBF3F01D
S31508001D847047064B03FB00F0704700BF0010024083
S31508001D9400127A00F4E80008F0E8000800093D009B
S31508001DA4044B054A5B680549C3F30223CB5C1068F8
S31508001DB4D84070470010024000000020B8E7000829
S31508001DC4044B054A5B680549C3F3C223CB5C106818
S31508001DD4D84070470010024000000020B8E7000809
S31508001DE42DE9F04103680446DD0682B063D0D807BE
S31508001DF439D5636833F440737BD1474BDA69D1002C
S31508001E045FD4DA69454D42F08052DA61DB6901260E
S31508001E1403F080530193019B2B68DA0556D53E4D92
S31508001E2461682B6A13F4407311D001F440729A4224
S31508001E340DD0002001272B6A394A23F44071C2F8D1
S31508001E444074C2F84004D807296257D46168324AF4
S31508001E54136A23F440730B4313621EB1D36923F048
S31508001E648053D36123689A070FD5A16831F4404299
S31508001E7405D0B7212B48FEF773FBA16823682648CB
S31508001E84426822F440420A434260DB060FD562697F
S31508001E9432F4800305D040F213112248FEF760FBA2
S31508001EA462691D494B6823F4800313434B60002081
S31508001EB402B0BDE8F0816A211A48FEF751FB23688F
S31508001EC495E7164D00262B68DA05A8D42B6843F443
S31508001ED480732B60FEF752FE07462B68DB059ED4FB
S31508001EE4FEF74CFEC01B6428F7D9032002B0BDE8F0
S31508001EF4F08172210B48FEF733FB7EE7FEF73EFEC0
S31508001F0441F2883807462B6A99079FD4FEF736FEAE
S31508001F14C01B4045F7D9E8E70010024000700040AE
S31508001F240000424204E90008C10610B5044622D05E
S31508001F34013C0F2C19D8DFE804F00824181A1818DD
S31508001F44181A181818181818182F40F202322E4999
S31508001F540B6A1A40B2F5817F52D003F44073B3F585
S31508001F64007F45D0B3F5407F2FD0002010BDBDE8D3
S31508001F741040FFF7EDBE4FF4CA712448FEF7F0FA95
S31508001F84D6E7FFF71DFF204B5B68C3F381330133A4
S31508001F945B00B0FBF3F010BD1B4B5A68186810F0D1
S31508001FA48070E3D01A48C2F38341D203405C14D448
S31508001FB4184B03FB00F0144B5B685B02D6D4164B34
S31508001FC44000A3FB0030400810BD4FF224430868C4
S31508001FD410F4003018BF184610BD5B680F4AC3F3E7
S31508001FE44043D25C0E4BB3FBF2F303FB00F0E2E78B
S31508001FF449F64043486A10F0020018BF184610BD57
S315080020044FF4004010BD00BF0010024004E9000868
S3150800201444E9000800093D00ABAAAAAA40E9000859
S3150800202400127A00002800F09D8038B502684E4BED
S3150800203404469A4204D04FF48F714C48FEF790FA3E
S31508002044A36833F080026BD16FF480126368A3F53A
S31508002054801393426FD3637C03F0FF02002B74D082
S31508002064022322686374536823F008035360FEF757
S3150800207485FD054605E0FEF781FD431BB3F57A7F2A
S315080020844AD823685B681B07F5D5FEF777FD05462E
S3150800209405E0FEF773FD401BB0F57A7F3CD823684C
S315080020A45A689006F5D55A68A06842F010025A6034
S315080020B45A6822F007025A6020B12D490A6B22F0A9
S315080020C401020A632A49CA6A22F460720243CA628E
S315080020D46268511C3ED0C2F3034192B29960DA6039
S315080020E45A6822F010025A60FEF748FD054605E0D4
S315080020F4FEF744FD401BB0F57A7F0DD823685B686C
S315080021049B06F5D5002340F201110122E373A4F8D6
S315080021140D106274184638BD04236374012038BD53
S3150800212423F40073B3F5807F8ED040F21F110F4855
S31508002134FEF716FA88E74FF490710C48FEF710FA82
S31508002144637C03F0FF02002B8AD120462274FEF733
S3150800215437FA85E70120FFF7E7FE0028DCD0236875
S31508002164421EB8E7012070470028004054E90008D9
S31508002174006C004000283AD038B50D4699B30B6870
S315080021840446012B22D16B6833F0020303D05A218B
S315080021941848FEF7E5F9237C012B26D002234FF0D5
S315080021A4010C154984F810C06374CB6A13F4C07320
S315080021B415D1D5E90025086B2A4320F0030002430C
S315080021C40A6384F811C02374184638BD592109488E
S315080021D4FEF7C6F96B6833F00203D8D1DBE70422AD
S315080021E4002362742374012038BD022038BD0120FF
S315080021F4704700BF8CE90008006C00402DE9F041E7
S3150800220417461D4682B00C460646FEF7B7FC3D4403
S315080022142D1AFEF7B3FC284B01371B6818BF8046F6
S31508002224C3F3CB3305FB03F33168019315D18B68EC
S3150800223434EA0303FBD0002002B0BDE8F081FEF7C0
S315080022449DFCA0EB0800A8420CD2019A019B002A27
S3150800225408BF0025013B316801938B6834EA030300
S31508002264EDD0E8E7D6E900315A68B1F5827F22F065
S31508002274E0025A6013D0B26AB2F5005F07D11A6851
S3150800228422F400521A601A6842F400521A600122B3
S315080022940023032086F8512086F85030CCE7B2682C
S315080022A4B2F5004F02D0B2F5806FE4D11A6822F075
S315080022B440021A60DFE700BF00000020002800F093
S315080022C40481F8B5914A0368044693420CD0A2F5F2
S315080022D47842934208D002F58062934204D04FF4C0
S315080022E4AB718B48FEF73CF963683BB1B3F5827F63
S315080022F404D040F257118648FEF732F9A36833F43E
S31508002304806240F08280E36833F4006304D040F2CC
S3150800231459117F48FEF724F9A36933F4007203D0F0
S31508002324B3F5802F40F0C780E36983B1182B40F2D8
S31508002334A980203B182B05D84FF0013222FA03F363
S31508002344DE0704D440F25B117148FEF709F9236AE3
S3150800235433F0800363D1636A002B68D1236933F0B1
S31508002364020340F0A2806369012B04D940F2631189
S315080023746748FEF7F5F86368B3F5827F00F0A7802F
S315080023840023E361002094F85130A06203F0FF02B1
S31508002394002B00F08180D4E9013202264FF0010CAB
S315080023A4002502F4044203F482731343E26884F8B2
S315080023B45160266902F40062134306F002063343A9
S315080023C46669A169276A06EA0C063343E66907F0D3
S315080023D4800E01F4007706F038063B43226833433F
S315080023E443EA0E0303431068090C01F0040120F0C4
S315080023F44000106013605160D369284623F40063D3
S31508002404D361656584F851C0F8BDB3F5004F3FF450
S315080024147AAF4FF4AC713E48FEF7A2F873E74FF46F
S31508002424AE713B48FEF79CF8636A002B96D040F2DF
S315080024345F113748FEF794F8636A002B8ED0E36978
S315080024447BB1182B11D9203B182B05D84FF0013234
S3150800245422FA03F3DA0704D440F271112C48FEF782
S315080024647FF80023C4E904338CE7072BF4D9294AF7
S3150800247422FA03F3DB07F4D440F271112448FEF779
S315080024846FF8EEE7072B7FF65DAF224A22FA03F3CD
S31508002494DD077FF557AF5AE7204684F85020FEF744
S315080024A4F3F8A06A00F4005075E74FF4B1711848C0
S315080024B4FEF756F857E74FF4AD711548FEF750F88E
S315080024C4E369002B3FF443AF30E701207047E36923
S315080024D4002B3FF457AF182B0FD9203B182B06D8DF
S315080024E44FF0013222FA03F3D8073FF54BAF40F217
S315080024F467110748FEF734F844E7072BF7D9054A66
S3150800250422FA03F3D907F2D53CE700BF00300140AD
S31508002514C8E900080001010128B30368134A10B585
S31508002524934204460DD0A2F57842934209D002F5A7
S315080025348062934205D04FF4EB710D48FEF710F80C
S315080025442368022284F851201A68204622F04002A1
S315080025541A60FEF705F90023636584F8503084F899
S315080025645130184610BD0120704700BF00300140A5
S31508002574C8E900082DE9F0431D468368044633F488
S3150800258400438846914683B004D04FF44871834883
S31508002594FDF7E6FF94F85030012B73D0012384F835
S315080025A45030FEF7EBFA94F851300646012BDFB2A9
S315080025B407D002270023384684F8503003B0BDE814
S315080025C4F083B8F1000FF5D0B9F1000FF2D000236B
S315080025D40322A36384F85120A38763652364A4F8BC
S315080025E436906364E387A3682268B3F5004F104600
S315080025F4C4F83080A4F8349075D01368590603D407
S31508002604136843F040031360E3686168B3F5006F29
S315080026143DD0002900F08C80B9F1010F00F08880C4
S31508002624E38E9BB2A3B1681C74D123689A68910798
S3150800263440F18980226B12781A73E18E236B013973
S3150800264489B2E186E18E013389B223630029ECD18C
S3150800265433462A4680212046FFF7D0FD002840F05D
S315080026649680A36833B922680193D3680193936863
S315080026740193019B636D002B9CD101221F4684F8AC
S31508002684512097E70227384603B0BDE8F0830029AE
S3150800269479D1434633F8021BD1602363E38E013BA9
S315080026A49BB2E386E38E9BB2002BD1D06B1C61D11F
S315080026B4936899070FD5216B31F8023BD360E38EF3
S315080026C42163013B9BB2E386E38E9BB2002BBFD00A
S315080026D493689907EFD4FEF751FAE38E9BB2002B61
S315080026E4B6D02268E4E7136823F04003136013683E
S315080026F443F48043136080E7226B12781A73E38EDF
S31508002704226B013B01329BB22263E386E38E9BB2C2
S31508002714002B9DD023689A689207EDD4FEF72EFA0B
S31508002724831BAB42F2D30123032784F8513041E7D4
S3150800273498F800301373236B01332363E38E013B4C
S315080027449BB2E3866CE7FEF719FAE38E9BB2002B7D
S315080027547FF46BAF7CE7226B32F8023BC360E38EEF
S315080027642263013B9BB2E386E38E9BB2002B3FF4C4
S315080027746FAF206883689B07EDD4FEF7FFF9831BC8
S31508002784AB42F1D3CFE7B9F1010F8BD181E7202210
S31508002794636D13436365626563E700BFC8E90008B0
S315080027A42DE9F0431F46836883B00446884691465C
S315080027B40A9E002B40F0898094F85030012B00F0D3
S315080027C48E80012384F85030FEF7D8F994F85130F6
S315080027D40546012B6268D9B20ED0B2F5827F06D0BF
S315080027E40220002384F8503003B0BDE8F083A368C0
S315080027F4002BF5D10429F3D1B8F1000F00F0D680E7
S31508002804B9F1000F00F0D280002F00F0CF8094F8C1
S3150800281451302168042B1CBF052384F8513000234A
S315080028246365E787E786C4E910330B68C4F838900C
S315080028345806A787C4F83080A78603D40B6843F0E4
S3150800284440030B60E368B3F5006F57D0002A4AD0FB
S31508002854012F48D00127E28E92B222B9E38F9BB2A8
S31508002864002B00F0888023689A6892070FD5E28EB9
S3150800287492B262B15FB10027226B12781A73E38EA3
S31508002884226B013B9BB20132E386236822639A6872
S3150800289412F001020DD0E18F89B251B11746DA68F8
S315080028A4A36B1A70A36B0133A363E38F013B9BB23B
S315080028B4E387FEF763F9401BB042CCD3731CCAD036
S315080028C40123032084F851308BE740F2AE41524885
S315080028D4FDF746FE94F85030012B7FF472AF0220C0
S315080028E403B0BDE8F08398F800300B73E38E226BCF
S315080028F4013B01329BB22263E386ABE7002A57D138
S31508002904424632F8023BCB60E38E2263013B9BB21C
S31508002914E386731C4FF0010725D04CE022689368C0
S3150800292498070DD5E38E9BB253B147B1236B33F8A1
S31508002934021BD1602363E38E013B9BB2E386002727
S31508002944936813F001030CD0E18F89B249B1D268B8
S315080029541F46A36B23F8022BA363E38F013B9BB2A9
S31508002964E387FEF70BF9E38E9BB2002BD6D1E38FF0
S315080029749BB2002BD2D12B46324680212046FFF744
S315080029843DFC70B9A36833B923680190DA680192EB
S315080029949B680193019B636D43B9012384F8513005
S315080029A41FE72022636D134363656265012018E7F8
S315080029B4012FAED1A4E7E38E9BB21BB9E38F9BB27A
S315080029C4002BD8D02268936899070DD5E38E9BB25D
S315080029D453B147B1236B33F8021BD1602363E38EEB
S315080029E4013B9BB2E3860027936813F001030CD0DE
S315080029F4E18F89B249B1D2681F46A36B23F8022B2B
S31508002A04A363E38F013B9BB2E387FEF7B7F8401B4A
S31508002A14B042D0D354E700BFC8E900082DE9F04313
S31508002A2490F851700446012F83B06AD11D46436855
S31508002A349146B3F5827F8846FEB26AD094F8503040
S31508002A44012B00F09680012384F85030FEF796F89F
S31508002A540746B8F1000F55D0B9F1000F52D0042239
S31508002A640023A16884F851202268B1F5004F6365F4
S31508002A74C4E910332363A4F83E90A386E386C4F816
S31508002A8438801346A4F83C9007D1116821F0400118
S31508002A941160116821F4804111601168490603D454
S31508002AA4116841F040011160E168002966D0E18FA0
S31508002AB489B289B1681C47D19368D90751D5D168B9
S31508002AC4A36B23F8021BE18FA363013989B2E1875B
S31508002AD4E38F9BB2002BEFD16368B3F5827F00F0D6
S31508002AE486803B462A4680212046FFF787FB002836
S31508002AF440F09380636D2BB901221E4684F8512059
S31508002B0400E00226002384F85030304603B0BDE8BE
S31508002B14F0838368002B91D100950425134680F829
S31508002B2451500A46FFF73CFE0646EEE7DB68A26B01
S31508002B3422F8023BE38FA263013B9BB2E387E38F50
S31508002B449BB2002BC8D023689A68D207EED4FEF746
S31508002B5415F8C31BAB42F2D30123032684F851307C
S31508002B64D0E7FEF70BF8E38F9BB2002BB4D02268AC
S31508002B74A2E70226304603B0BDE8F083E28F92B29C
S31508002B84002AA9D06A1C0FD028E01A7BA36B1A70F6
S31508002B94E18FA26B013989B2E187E38F01329BB2D7
S31508002BA4A263002B98D023689A68D007EDD4FDF762
S31508002BB4E5FFE38F9BB2002BF5D18DE71A7BA36B58
S31508002BC41A70E38FA26B013B01329BB2A263E387BF
S31508002BD4E38F9BB2002B3FF47FAF23689A68D10733
S31508002BE4ECD4FDF7CBFFC31BAB42F1D3B4E7A36820
S31508002BF4B3F5004F18D0B3F5806F7FF472AF206831
S31508002C043B4601682A4621F040010160012120461D
S31508002C14FFF7F4FA00283FF46DAF636D43F0200321
S31508002C2463652023636565E72268136823F0400318
S31508002C34136056E7002800F0D38038B5694A03685C
S31508002C44044693421FD002F5006293421BD0B3F1A7
S31508002C54804F18D0A2F59832934214D002F58062B8
S31508002C64934210D002F5806293420CD002F580623A
S31508002C74934208D002F58062934204D040F21311BD
S31508002C845948FDF76DFCA36833F010020AD023F007
S31508002C944002202A06D0402B04D04FF48A715248A9
S31508002CA4FDF75EFC236933F4807234D14FF6FE7265
S31508002CB4E368013B93423CD8A36933F0800341D1CE
S31508002CC494F83D3003F0FF02002B46D00223226815
S31508002CD4444984F83D308A42136844D001F50061BA
S31508002CE48A4240D0B2F1804F68D0A1F598318A4221
S31508002CF464D001F580618A4260D001F580618A4218
S31508002D045CD0A5696168E06823F080032B431360EF
S31508002D14D06291623AE0B3F5007FC7D040F215114C
S31508002D243148FDF71DFC4FF6FE72E368013B9342FA
S31508002D34C2D94FF48B712C48FDF712FCA36933F002
S31508002D448003BDD040F217112748FDF709FC94F813
S31508002D543D3003F0FF02002BB8D1204684F83C200E
S31508002D64FDF7EAFDB2E7A06823F07003216903437F
S31508002D7423F440730B43A16923F080030B431360C8
S31508002D84E368D362636893626369136301235361D7
S31508002D9484F8463084F83E3084F83F3084F840306E
S31508002DA484F8413084F8423084F8433084F8443057
S31508002DB484F8453084F83D30002038BDA16823F0F6
S31508002DC4700320690B4323F44073A169034323F07A
S31508002DD48003E0680B4361681360D0629162D5E7AB
S31508002DE401207047002C014000EA0008294A0368BC
S31508002DF410B5934204461FD002F5006293421BD0D5
S31508002E04B3F1804F18D0A2F59832934214D002F544
S31508002E148062934210D002F5806293420CD002F588
S31508002E248062934208D002F58062934204D04FF43C
S31508002E34E8711948FDF794FB94F83D30012B27D126
S31508002E440222236884F83D20DA68124942F0010216
S31508002E548B42DA6011D0114A93420ED0B3F1804FF7
S31508002E640BD0A2F59832934207D002F580629342BA
S31508002E7403D002F58062934204D19A6802F00702ED
S31508002E84062A03D01A6842F001021A60002010BD0F
S31508002E94012010BD002C014000EA0008003401405E
S31508002EA4704700BF704700BF704700BF704700BF38
S31508002EB4036810B51A690446910702D5DA689207B9
S31508002EC45FD41A69500702D5DA68510746D41A69D5
S31508002ED4120702D5DA6810072ED41A69D20602D563
S31508002EE4DA68D00618D41A69D10702D5DA68D2077F
S31508002EF45DD41A69100602D5DA6811065FD41A6910
S31508002F04520602D5DA68500661D41A69910602D5C2
S31508002F14DA68920643D410BD6FF0100108221961CD
S31508002F242277DB69204613F4407F64D0FFF7BAFFA3
S31508002F34002223682277D6E76FF008010422196174
S31508002F442277DB692046990752D1FFF7A9FF204665
S31508002F54FFF7AAFF002223682277BEE76FF0040171
S31508002F640222196122779B69204613F4407F3CD1DB
S31508002F74FFF796FF2046FFF797FF0022236822777C
S31508002F84A5E76FF002010122196102779B699B0785
S31508002F9425D0FFF787FF00222368227791E76FF091
S31508002FA420022046BDE810401A6100F0ADB86FF063
S31508002FB4010220461A6102F08BFF236899E76FF035
S31508002FC4800220461A6100F0A1F8236897E76FF09B
S31508002FD4400220461A61FFF769FF236895E7FFF761
S31508002FE45FFF2046FFF760FFD5E7FFF75BFFC4E7FF
S31508002FF4FFF758FFAEE7FFF753FF2046FFF754FFE6
S3150800300496E700BF38B53D4A0368044693420D4621
S315080030141FD002F5006293421BD0B3F1804F18D03B
S31508003024A2F59832934214D002F58062934210D0E6
S3150800303402F5806293420CD002F58062934208D06E
S3150800304402F58062934204D040F2B4712C48FDF72D
S3150800305487FA2B6833F040020CD0402B44D9602BF6
S3150800306408D023F02003502B04D040F2B57124482D
S31508003074FDF776FA6B6833F0800304D040F2B67134
S315080030841F48FDF76DFA94F83C30012B33D0022221
S31508003094236884F83D205A682968184822F0700283
S315080030A40A43834299685A6011D0164A93420ED04D
S315080030B4B3F1804F0BD0A2F59832934207D002F5AC
S315080030C48062934203D002F58062934204D16A680F
S315080030D421F08001114399600023012284F83C30D1
S315080030E484F83D20184638BD202BC3D023F020038E
S315080030F4102BBAD1BEE7022038BD00BF002C014010
S3150800310438EA000800340140704700BF704700BF22
S3150800311438B54268344B04469A4255D8E36833F4C2
S31508003124005304D040F667613048FDF719FA23695D
S3150800313433F4806202D0B3F5C06F4FD14FF6F37300
S315080031446069184239D1002837D02368E1681A69BA
S31508003154256922F440520A431A61D968A26821F4FF
S31508003164B05121F00C012A430A430243DA605A6932
S31508003174A0691F4922F4407202438B425A6129D03E
S31508003184FEF70EFE0346626803EB8303920003EB25
S315080031948303B3FBF2F34FF0640C16492068A1FBD2
S315080031A4034252090CFB12331B013233A1FB0313EE
S315080031B4120102EB5312826038BD0C4840F669616D
S315080031C4FDF7CEF96069C0E740F666610748FDF782
S315080031D4C7F9A3E7FEF7F4FD0346D4E740F66861AA
S315080031E40248FDF7BDF9A9E720AA440074EA0008D5
S315080031F4003801401F85EB51002877D0826910B545
S3150800320403680446002A44D039498B425AD0A1F5AA
S3150800321474418B4256D001F580618B4252D04FF4EB
S31508003224B7713448FDF79CF9A269002A4AD1A36804
S3150800323433F4805304D040F275112E48FDF790F903
S3150800324494F8413003F0FF02002B49D02423226866
S3150800325484F84130D368204623F40053D360FFF73B
S3150800326457FF00224FF0200C23681046196921F4F1
S3150800327490411961596921F02A015961D96841F4C3
S315080032840051D960626484F841C084F842C062631C
S3150800329410BD174A9342CAD0A2F574429342C6D0C7
S315080032A402F580629342C2D002F580629342BED090
S315080032B402F580629342BAD040F273110D48FDF7C5
S315080032C44FF9B4E722F40073B3F5807FAFD0B2F5B3
S315080032D4007FACD040F26F110648FDF741F9A6E726
S315080032E4204684F84020FDF77FFBAFE701207047AE
S315080032F40038014074EA00082DE9F8431D4690F8A1
S315080033044130202B6ED1884609B1174612B90120DF
S31508003314BDE8F88321234FF000090446C0F8449019
S3150800332480F84130FDF72AFCA3680646B3F5805FAA
S31508003334A784E78464D0E28C236892B292B1691CAC
S3150800334422D11A681206FCD5B8F1000F22D018F853
S31508003354012B5A60E28C013A92B2E284E28C92B270
S31508003364002AECD1681C47D11A685106FCD52023DB
S3150800337484F841300020BDE8F88385B1FDF7FEFBEB
S31508003384801B854223680AD31A681706F5D5B8F14F
S31508003394000FDCD139F8022BC2F30802D9E703F18E
S315080033A40C0252E8002F22F4D07203F10C0040E814
S315080033B400210029F3D103F1140252E8002F22F068
S315080033C4010203F1140040E800210029F3D1202367
S315080033D484F8413084F84230002384F840300320CE
S315080033E4BDE8F8830220BDE8F8837DB1FDF7C6FB86
S315080033F4831B9D42236809D31A685206F5D5B6E796
S315080034042369002B97D1C146984694E703F10C0229
S3150800341452E8002F22F4D07203F10C0040E8002190
S315080034240029F3D103F1140252E8002F22F0010215
S3150800343403F1140040E800210029F3D1C7E700BFCF
S315080034442DE9F8431F4690F84230202B79D1884657
S3150800345409B1164612B90120BDE8F88322234FF0B4
S3150800346400090446C0F8449080F84230C0F8309009
S31508003474FDF784FBA3680546B3F5805FA685E68554
S3150800348462D0E38D9BB2EBB1781C236827D11A6806
S315080034949106FCD5B8F1000F27D0A268B2F5805F73
S315080034A404D0002A49D12269002A46D15B68DBB2D6
S315080034B408F8013BE28D013A92B2E285E38D9BB2AC
S315080034C4002BE1D1202384F842300020BDE8F8839C
S315080034D48FB1FDF753FB401B874223680BD31A6849
S315080034E49206F5D5B8F1000FD7D15B68C3F3080384
S315080034F429F8023BDEE703F10C0252E8002F22F416
S31508003504D07203F10C0040E800210029F3D103F13D
S31508003514140252E8002F22F0010203F1140040E8D5
S3150800352400210029F3D1202384F8401084F841307F
S3150800353484F842300320BDE8F8835B6803F07F0310
S31508003544B6E70220BDE8F8832369002B99D1C14662
S31508003554984696E790F84230202B20D101B10AB953
S315080035640120704710B44FF0220C002481620169CF
S3150800357404630368C2858285446480F842C019B12D
S31508003584DA6842F48072DA605A69002042F001026D
S315080035945A61DA6810BC42F02002DA6070470220E9
S315080035A4704700BF10B50446036803F10C0252E8DD
S315080035B4002F22F4F07203F10C0040E800210029E0
S315080035C4F3D103F1140252E8002F22F0010203F1A9
S315080035D4140040E800210029F3D1226B012A3BD0CC
S315080035E45A69110622D45A69520613D503F11402EC
S315080035F452E8002F22F0400203F1140040E80021AB
S315080036040029F3D1E06B28B100234363FDF7BEFB21
S31508003614002837D100232022E384E385636484F8F1
S31508003624422084F841201846236310BD03F114028E
S3150800363452E8002F22F0800203F1140040E800212A
S315080036440029F3D1A06B0028CDD000234363FDF7EE
S315080036549DFB70B92368C6E703F10C0252E8002FF4
S3150800366422F0100203F10C0040E800210029F3D1EE
S31508003674B6E7A06BFDF7AEFB2028EBD11023032099
S31508003684636410BDE06BFDF7A5FB2028C2D1F5E7FE
S3150800369490F8412090F842001043704708B5034952
S315080036A4034802F025FB034B187008BD0C030020E1
S315080036B40C000020100300200020704708B500F015
S315080036C449FA024B1870187808BD00BF200000207C
S315080036D408B500F057FB024B1870187808BD00BFF0
S315080036E42000002000F058BB00F0B0BB00F054BC2A
S315080036F42DE9F04385B08146FDF740FAC8232B4DE2
S315080037042B4C4FF0FF0832272A4E2860236006E028
S31508003714FDF734FA2A682368801A984242D20123AC
S3150800372430460DF10F020DF10E0100978DF80E804B
S31508003734FFF736F89DF80F30FF2BE9D0FE2B31D171
S31508003744FF2532261B4F09F1FF3409F2FF1901231D
S3150800375438460DF10F020DF10E0100968DF80E5044
S31508003764FFF71EF89DF80F3004F8013F4C45EED1DB
S315080037740DF10F020DF10E01012300960D488DF887
S315080037840E50FFF70DF801230DF10F020DF10E018E
S31508003794009608488DF80E50FFF702F8012005B088
S315080037A4BDE8F083002005B0BDE8F08318030020C7
S315080037B414030020D00100202DE9F04784B0814687
S315080037C48A46FDF7DBF9C8232B4D2C4C4FF0FF082E
S315080037D432272B4E2860236006E0FDF7CFF92A68C6
S315080037E42368801A984243D2012330460DF10F020A
S315080037F40DF10E0100978DF80E80FEF7D1FF9DF8A6
S315080038040F30FF2BE9D0FE2B32D1FF2532260AF1E1
S31508003814FF3A1B4F09F1FF34D144012338460DF111
S315080038240F020DF10E0100968DF80E50FEF7B8FF43
S315080038349DF80F3004F8013F4C45EED10DF10F0207
S315080038440DF10E01012300960D488DF80E50FEF772
S31508003854A7FF01230DF10F020DF10E01009608488A
S315080038648DF80E50FEF79CFF012004B0BDE8F087E2
S31508003874002004B0BDE8F0871803002014030020D4
S31508003884D00100202DE9F04385B080468946FDF72E
S3150800389475F9FF2732250446374E05E0FDF76EF91C
S315080038A4001BB0F5FA7F20D2012330460DF10F0232
S315080038B40DF10E0100958DF80E70FEF771FF9DF857
S315080038C40F30FF2BEAD101232B4800950DF10F0287
S315080038D40DF10E018DF80E90FEF762FFB9F1FD0F9A
S315080038E407D1012005B0BDE8F083002005B0BDE886
S315080038F4F0833225204E08F1FF3408F2FF1814F835
S31508003904011F01238DF80E1030460DF10F020095A4
S315080039140DF10E01FEF744FF4445F0D1FF240DF1E5
S315080039240F020DF10E010123009513488DF80E4080
S31508003934FEF736FF0DF10F020DF10E010123009576
S315080039440D488DF80E40FEF72BFF01230DF10F02EB
S315080039540DF10E01009508488DF80E40FEF720FF7C
S315080039649DF80F0000F01F00A0F10500B0FA80F0E2
S31508003974400905B0BDE8F083D00100202DE9F04FD9
S31508003984030680468B4685B000F1D580B8F10C0F46
S3150800399400F0BA80012210216C48FDF7D7FC3227C3
S315080039A46B48FF2482460DF10F060DF10E0501231F
S315080039B43246294600978DF80E40FEF7F1FE00229E
S315080039C410216248FDF7C2FC0123324629465046B7
S315080039D400978DF80E40FEF7E3FEFDF7CFF8814613
S315080039E407E0FDF7CBF8A0EB0900B0F5FA7F80F005
S315080039F49080012332462946504600978DF80E409A
S31508003A04FEF7CEFE9DF80F30FF2BEAD1322448F09C
S31508003A144003324629468DF80E304D48012300945A
S31508003A24FEF7BEFE4FEA1B6701233246294648487D
S31508003A3400948DF80E70FEF7B3FE4FEA1B47012378
S31508003A4432462946424800948DF80E70FEF7A8FEC1
S31508003A544FEA1B270123324629463D4800948DF830
S31508003A640E70FEF79DFE0123324629463848009417
S31508003A748DF80EB0FEF794FEB8F1000F28D1952202
S31508003A8432248DF80E200123324629463048009404
S31508003A94FEF786FE0A244FF0FF094FF032082C4F32
S31508003AA40123324629463846CDF800808DF80E9013
S31508003AB4FEF776FE9DF90F209DF80F00002A04F103
S31508003AC4FF3302DA13F0FF04EAD105B0BDE8F08F3C
S31508003AD4B8F1080F38D00127324629463B461C4818
S31508003AE400948DF80E70FEF75BFEB8F10C0FD1D179
S31508003AF44FF0FF0C3B4632462946009414488DF88D
S31508003B040EC0FEF74DFEC5E70DF10F060DF10E05C5
S31508003B147CE7012210210D48FDF718FC01233246E3
S31508003B24294600970A488DF80E40FEF739FEFF200D
S31508003B3405B0BDE8F08F00213720FFF71FFF0128E5
S31508003B44C3D808F07F0821E7872299E700080140CF
S31508003B54D0010020002844D12DE9F04F834D87B0C9
S31508003B642B789B0738D40A264FF0FF083227804C57
S31508003B742268136823F0380343F0300313600123E3
S31508003B84204605AA0DF113010097013E8DF813800E
S31508003B94FEF706FE16F0FF06F1D131463046FFF76A
S31508003BA4EDFE012881461ED00DF112060024714B44
S31508003BB432271C70FF24012210216F48FDF7C6FB2B
S31508003BC4012331466A480DF1130200978DF8124015
S31508003BD4FEF7E6FD01232B702878C0B207B0BDE8CE
S31508003BE4F08F01207047FCF7C9FF4FF47A73DFF8AA
S31508003BF48C81634FC8F800004FF4D57108203B60E8
S31508003C04FFF7BCFE012860D105AB4FF0FF0B9946C0
S31508003C1403930DF1180A0DF1120632233146009367
S31508003C24534801230DF113028DF812B0FEF7B8FDBF
S31508003C349DF8133009F8013BD145EED19DF81630AD
S31508003C44012BB3D19DF81730AA2BAFD105E04FF05D
S31508003C548041A920FFF792FE38B1FCF78FFFD8F808
S31508003C6400303A68C31A9342F1D3FCF787FFD8F8B1
S31508003C7400303A68C31A934298D200213A20FFF7D3
S31508003C847DFE002892D14FF0FF094FF03208384FD5
S31508003C94DDF80CB0012331463846CDF800800DF125
S31508003CA413028DF81290FEF77BFD9DF813300BF87E
S31508003CB4013BD345EED19DF8143013F0400F14BFE1
S31508003CC44FF00C0A4FF0040A2CE03146A920FFF7FE
S31508003CD455FE012896BF4FF0A9094FF0010A4FF087
S31508003CE4020A04E000214846FFF748FE38B1FCF70B
S31508003CF445FFD8F800203B68801A9842F2D3FCF7AF
S31508003D043DFFD8F800303A68C31A9342BFF44CAF63
S31508003D144FF400711020FFF731FE0DF1120600284A
S31508003D247FF444AF134B01221021134883F800A0F3
S31508003D34FDF70CFBFF2332200DF1130200908DF8DA
S31508003D441230314601230A48FEF72AFD2268136811
S31508003D5423F0380343F0100313602B7803F0FE03B3
S31508003D642B702878C0B207B0BDE8F08F2100002078
S31508003D74D00100201C03002000080140180300207D
S31508003D841403002018B9034B1878C0B270470120F1
S31508003D94704700BF2100002070B584B0002839D1CF
S31508003DA41C46002B36D0254B1B78D80736D4244B13
S31508003DB40E461B781B0758BF5202012C114631D0F8
S31508003DC41220FFF7DBFD0546B8B101253226FF248C
S31508003DD4012210211B48FDF7B9FA01230DF10F0240
S31508003DE40DF10E01009618488DF80E40FEF7D8FC22
S31508003DF4284604B070BD013C07D03046FFF778FC6E
S31508003E0406F500760028F6D1012500210C20FFF7D7
S31508003E14B5FDDBE70425284604B070BD032528460E
S31508003E2404B070BD1120FFF7A9FD0028CDD1304696
S31508003E34FFF75EFCB0FA80F56D09C7E7210000209C
S31508003E441C03002000080140D00100202DE9F0479A
S31508003E5486B0002870D11C46002B6DD04A4B0D46FF
S31508003E641978CE076DD41B7858076FD4474B1B783F
S31508003E74190758BF5202012C74D013F0060F6AD1E1
S31508003E8411461920FFF77AFDE0B10DF117060DF179
S31508003E9416050124012210213D48FDF757FA4FF073
S31508003EA4320CFF27324629460123CDF800C039488B
S31508003EB48DF81670FEF774FC204606B0BDE8F08748
S31508003EC4013C07D02846FC21FFF7DCFC05F5007504
S31508003ED40028F5D1FCF752FE4FF0FF0A4FF03208DE
S31508003EE40746DFF8B0900DF117060DF1160505E043
S31508003EF4FCF744FEC01BB0F5FA7FCAD2012332464A
S31508003F0429464846CDF800808DF816A0FEF748FCE9
S31508003F149DF81730FF2BEBD1FD27003C4FF001032A
S31508003F2432462946CDF800801A4818BF01248DF870
S31508003F341670FEF735FCADE70424204606B0BDE846
S31508003F44F0870324204606B0BDE8F08702242046FD
S31508003F5406B0BDE8F087214697200392FFF70EFDC9
S31508003F64039A8DE711461820FFF708FD00288CD11F
S31508003F742846FE21FFF786FCB0FA80F40DF11706F1
S31508003F840DF11605640985E7210000201C030020AD
S31508003F9400080140D00100202DE9F04F89B070B91E
S31508003FA4C64B1C7814F0010440F0D8801546042941
S31508003FB400F2CE80DFE801F02956CC8D08000424EF
S31508003FC4204609B0BDE8F08FBD4C237813F0060FE0
S31508003FD440F0FF800DF10F0601240DF10E070122B2
S31508003FE41021B848FDF7B2F94FF0320CFF253246D6
S31508003FF439460123CDF800C0B3488DF80E50FEF7B4
S31508004004CFFB204609B0BDE8F08F3227FF250022F2
S315080040141021AC48FDF79AF90DF10F06AA480123B9
S31508004024314604AA009781468DF80F50FEF7B8FB6F
S31508004034FCF7A4FD804607E0FCF7A0FDA0EB08000A
S31508004044B0F5FA7F80F0B68001233146484604AAC3
S3150800405400978DF80F50FEF7A3FB9DF81030FF2B41
S31508004064EAD178E000210920FFF788FC0028B1D1BD
S3150800407410210DEB0100FFF79FFB0028AAD09DF83D
S3150800408410109DF81920890901299DF818009DF832
S31508004094173000F0F3809B0003EB90139DF816008D
S315080040A4520002F00601820202F4406213449DF8AB
S315080040B415209DF81A0002F00F0202EBD0120A44EA
S315080040C40133073A93402B600DF10F060DF10E07E5
S315080040D485E77B4E317811F0040144D000218D2008
S315080040E4FFF74CFC00287FF475AF4FF032094FF008
S315080040F4FF080DF10F0631460123734804AACDF8CB
S3150800410400908DF80F80FEF74BFB102104A8FFF7EB
S3150800411453FB00283FF460AF4FF0300BDFF8A8A13B
S315080041240DF10E070123324639465046CDF8009064
S315080041348DF80E80FEF734FB0BF1FF3313F0FF0BFB
S31508004144F0D110239DF81A20120993402B6046E7F4
S3150800415404240DF10F060DF10E0740E7032420464B
S3150800416409B0BDE8F08F0920FFF708FC00287FF4A2
S3150800417431AF10210DEB0100FFF71EFB00283FF4B9
S3150800418429AF32789DF81A3092079DF81B1040F132
S3150800419485809DF81D205B0003F07E0303EBD11395
S315080041A492090133013A93402B600DF10F060DF184
S315080041B40E0714E7012210214248FDF7C7F8012328
S315080041C4314604AA009740488DF80F50FEF7E8FADE
S315080041D402E70B21002004AAFFF7DEFE00287FF47D
S315080041E4F9AE9DF81A309DF8102003F0400353EAFF
S315080041F492133FF4EFAE23782020D5E900141B0769
S315080042045CBF49026402FFF7B9FB00287FF4E2AEFB
S3150800421421462120FFF7B2FB00287FF4DBAE0146D6
S315080042242620FFF7ABFB00287FF4D4AEFCF7A6FCE8
S315080042344FF0FF094FF032080546234C0DF10F06DF
S315080042440DF10E0706E0FCF799FC47F22F52431BC3
S3150800425493420ED80123324639462046CDF80080CB
S315080042648DF80E90FEF79CFA9DF80FA0BAF1FF0F91
S31508004274E9D1BAF1FF0418BF0124B0E6BDF8182045
S315080042841B0452BA92B203F47C13134401339B02FF
S315080042942B600DF10F060DF10E07A0E6CA0002F019
S315080042A41802C3F3840302EB5112013302FB0333EE
S315080042B40DF10F060DF10E072B6090E62100002084
S315080042C41C03002000080140D0010020034B03EB27
S315080042D48002526803445268187A10474003002043
S315080042E4084A0346115C51B94FF0010C02EB8001F0
S315080042F44968101802F803C0007A0B6818470020AA
S31508004304704700BF4003002030B4054C04EB800519
S315080043146D680444AD68207AAC4630BC604700BF7B
S315080043244003002030B4054C04EB80056D68044452
S31508004334ED68207AAC4630BC604700BF40030020D5
S31508004344044B03EB000C03EB80035B689CF8080042
S315080043541B691847400300202B4B30B51A68D0F860
S3150800436400428446944224D0D868A04204D082B33A
S31508004374002846D0002030BD1D69DCF808E27545E2
S31508004384F5D19D8ABCF806E2754508BF0122EED12F
S3150800439402EB420003EB800040895400A9B10028CF
S315080043A4E8D14FF48071501C144403EB84035981FB
S315080043B430BDD0F808025D688542D5D11D89BCF8A0
S315080043C406028542D0D10022E2E7411C89B2501C7C
S315080043D4EAE701204FF0000E002902EB420143F8F8
S315080043E42140DCF8084203EB81014C60BCF8064224
S315080043F4A1F80AE00C8114BF4FF48071012154001E
S31508004404D2E702200122E5E72003002070B54FF029
S31508004414FF360023B142044680F80432C0F82C6201
S3150800442418D14AF65523B4F8FE219A420ED1D4F887
S315080044343630104A23F07F43934209D0D4F8520009
S3150800444420F07F40801A18BF012070BD022070BD7D
S31508004454002070BD0D460A460123014690F8010264
S31508004464FFF752FF18B10320C4F82C6270BDC4F8D4
S315080044742C52D6E74641540070B590F804320446E7
S315080044846BB994F80032032B31D0002294F8010258
S315080044941146FFF755FF003818BF012070BDD0F844
S315080044A42C52014601232A4690F80102FFF73AFFE7
S315080044B4D8B9D4F82022D4F81832AA1A9A4284F819
S315080044C40402DED294F80362012E02D8D9E7D4F89E
S315080044D418321D442A460123214694F80102013E56
S315080044E4FFF720FF012EF2D1CBE7012070BD94F827
S315080044F40552012DC9D14FF400720021204609F056
S31508004504E7F94AF655210F48D4F81C22D4F80C3298
S315080045142060A4F8FE11D4F810020B490132C4F83D
S31508004524EC31C4F8E8012B46C4F8E41194F8010206
S315080045342146C4F82C22FFF7F5FE002384F8053239
S31508004544A3E700BF5252614172724161F8B5D0F8CF
S315080045542C528D4201D10020F8BD90F8043204464D
S315080045640E4690F8010263B9324601232146FFF745
S31508004574CBFE00281CBF4FF0FF360120C4F82C627E
S31508004584F8BD01232A462146FFF7CCFEE8B9D4F83C
S315080045942022D4F81832AA1A9A4284F8040211D2AC
S315080045A494F80372012F02D80CE0D4F818321D448B
S315080045B42A460123214694F80102013FFFF7B2FE79
S315080045C4012FF2D194F80102CEE70120F8BD00BF0D
S315080045D400232DE9F0410C6803608CB11546227856
S315080045E4202A13D91346A44603E01CF8013F202BBE
S315080045F40CD93A2BF9D1302A02D10134A44502D078
S315080046040B20BDE8F0810CF101030B60A64B1C6876
S31508004614002C00F0CF80046094F800325BB194F863
S315080046240102FFF753FEC30705D415B1470700F186
S31508004634BE80002096E00020A4F80002FFF750FE92
S31508004644C60700F1918015B1450700F1B080002135
S315080046542046FFF7DBFE012800F08980032800F0D6
S31508004664B480054600287CD1B4F80B30B3F5007F36
S3150800467477D1E18A01B9616A227CC4F81812531EFB
S31508004684012B84F803226CD8637B84F80232002B4E
S3150800469467D0581E184264D1B4F811603007A4F8DC
S315080046A408625ED1B4F8130000B9206AB4F80EC0E3
S315080046B4BCF1000F55D001FB02F20CEB1617174498
S315080046C4B8424ED3C01B9842B0FBF3FE49D30CEB59
S315080046D4050340F6F57CE6452F440EF1020000F288
S315080046E49280C4F81C52C4F82872C4F81402C4F898
S315080046F42032002E35D001251A4400EB400300F081
S31508004704010000EB530000F2FF10B1EB502FC4F880
S31508004714242226D34FF0FF338022C4E9833384F856
S3150800472405226249624A0B88106801339BB2A0428B
S315080047340B80A4F8063204BF00231360D36884F8F8
S3150800474400529C427FF475AF0023D36071E7D4F816
S31508004754F651002E46D1002F4DD1B8F1000F38D1AD
S3150800476455BB0D20BDE8F0810320BDE8F08194F81F
S31508004774C2610EB1D4F8C66194F8D2710FB1D4F8F7
S31508004784D67194F8E23113B3D4F8E68194F8F25169
S31508004794002DDCD136BB6FBBB8F1000FE1D0414622
S315080047A42046FFF733FE0028DBD145465CE70A209E
S315080047B4BDE8F0810C20D5E729462046FFF726FEFA
S315080047C400283FF451AF0328CBD10120CAE7984605
S315080047D4DCE741462046FFF719FE0028E5D0002D00
S315080047E4EAD1BEE731462046FFF710FE0028B2D1CB
S315080047F4354639E7354639462046FFF707FE002889
S31508004804ABD13D4630E74FF6F57CE6450DD8C4F8FE
S315080048141C52C4F82872C4F81402C4F82032002EB4
S315080048249FD002251A4440006DE7C4F82032C4F824
S315080048342872C4F81402C4F81C52002E91D18300BD
S31508004844E26A03F2FF13B1EB532FC4F8242288D388
S315080048544FF0FF338021228EC4E98333012A84F87A
S31508004864051201D003255CE72046691CFFF76EFE96
S315080048740028F7D14AF65523B4F8FE2184F80562D0
S315080048849A42EFD10B4B22689A42EBD103F1FF53BC
S31508004894D4F8E42103F5005320339A4204BFD4E93B
S315080048A47A23C4E98332DDE73C0300203803002079
S315080048B42003002052526141F8B590F800320646AA
S315080048C4022B0C4605D0032B1FD0012B11D0012037
S315080048D4F8BDD0F8201201EB1421FFF737FE88B98A
S315080048E4640004F4FF7433195B78305D40EA0320EE
S315080048F4F8BDD0F8201204EB540501EB5521FFF757
S3150800490425FED8B14FF0FF30F8BDD0F8201201EBE0
S31508004914D411FFF71BFE0028F4D1A40004F4FE7496
S3150800492432199378D578315D180440EA05605378CE
S31508004934084340EA032020F07040F8BDD6F8201258
S315080049446F1C3046C5F3080501EB5721755DFFF763
S31508004954FDFD0028D6D1C7F30807F35D45EA032011
S31508004964E3074CBF0009C0F30B00F8BD2DE9F04777
S315080049740E46D0E982156D1A954228BF1546002DB4
S3150800498450D004461F46C1F30802002A66D1D4F85B
S3150800499400C24B0A9CF80202421E02EA512212F095
S315080049A4FF087AD0D4F81402DCF814320238023B31
S315080049B4984280F084809CF80212DCF8282201FBD5
S315080049C40022002A7BD0B5F5007F02EB08092BD319
S315080049D408EB552399424FEA552A38BFA1EB080A32
S315080049E453464A4631469CF80102FFF78DFC0028D7
S315080049F440F0A58094F806325A0606D5D4F818323B
S31508004A04A3EB09039A4500F2BF804FEA4A20D4F87B
S31508004A1408123B68014403442D1AC4F808120644D4
S31508004A243B60B0D100204EE0D4F8182291450FD04F
S31508004A3494F806329CF801025B0600F1868001238D
S31508004A444A4621469CF80102FFF75EFC002876D107
S31508004A54D4F80822C4F81892C2F30802C2F5007002
S31508004A64A84228BF284600F1FF3E2244BEF1050F9E
S31508004A7402F1010C03D9A6EB0C03022B35D80EF16F
S31508004A84010E7244731E01E00CF1010C1CF8011CA2
S31508004A94944503F8011FF7D1B9E7B1B9D4F8100260
S31508004AA401280CD9411C4AD0D4F800C2C4F814020F
S31508004AB4DCF814320238023B9842FFF47CAF022336
S31508004AC4184684F80732BDE8F087D4F82422002A69
S31508004AD44AD1D4F814120129F1D9DCF814329942CE
S31508004AE4EDD26046FFF7E8FEDAE7134631460EF1E3
S31508004AF4010929F00308904453F804CB434541F8C7
S31508004B0404CBF9D129F0030319F0030FAEEB030123
S31508004B1406EB030C02EB030E3FF479AFD25CF254B6
S31508004B2400293FF474AF9EF8013001298CF801304E
S31508004B343FF46DAF9EF802308CF8023067E7012324
S31508004B4484F807321846BDE8F08701232146FFF7A3
S31508004B54E9FB0028F3D194F80632D4F800C223F00E
S31508004B64400384F806326AE7B3FBF0F0536804326C
S31508004B742BB9A4E7C01A52F8083F002B9FD09842D5
S31508004B84F8D2536818448BE706EB4323621C9A1A37
S31508004B94022A09D9224603F5007052F8041B43F881
S31508004BA4041B9842F9D130E72246013B04F500700C
S31508004BB412F8011B824203F8011FF9D125E700BF49
S31508004BC42DE9F84390F800720546022F0E4614465E
S31508004BD406D0032F3DD0012F13D00220BDE8F88359
S31508004BE4D0F8201201EB1621FFF7B0FC0028F5D106
S31508004BF4760006F4FF76AB19C4F30722AC555A704F
S31508004C0440E0D0F8201206EB560901EB5921FFF7CC
S31508004C149DFC0028E2D1D5F8201209F10108F30712
S31508004C24C9F3080901EB582132D515F80930284685
S31508004C3403F00F0343EA041305F8093085F80472F0
S31508004C44FFF784FC0028C9D1C8F30808C4F307137E
S31508004C5430E0D0F8201201EBD611FFF777FC0028D4
S31508004C64BCD1B60006F4FE76AA19D3781B0603F05F
S31508004C7470432343C3F30721AB555170190C1B0E1C
S31508004C849170D370012385F804320020BDE8F883B7
S31508004C9405F80940284685F80472FFF757FC0028EA
S31508004CA49CD1C8F3080815F80830C4F3032423F084
S31508004CB40F03234305F80830E4E700BF2DE9F8435A
S31508004CC405460F46002958D1D0F80C62D0F814329C
S31508004CD4002E00F0B9809E4228BF012634460134CE
S31508004CE49C425DD295F80032022B75D0032B00F056
S31508004CF48C80012B58D1D5F8201204EB5408284689
S31508004D0401EB5821FFF722FC002860D1D5F82012C0
S31508004D1408F101092846C8F3080801EB592115F8D2
S31508004D240880FFF713FC002851D1C9F3080915F8C0
S31508004D340930E10748EA032840F188805FEA181336
S31508004D445CD1D5F81432A3422ED96FF070422146AD
S31508004D542846FFF735FFC0BB57BBD5F81032C5F850
S31508004D640C425A1C21D095F80522013B42F0010257
S31508004D74C5F8103285F8052217E0012914D0D0F8B1
S31508004D841432994210D2FFF797FD012804460BD92D
S31508004D94601C1CD0D5F81432A34206D83E469DE7BB
S31508004DA4012E4DD0022B56D801242046BDE8F8839F
S31508004DB4012FF9D0D5F814329F42F5D22246394646
S31508004DC42846FFF7FDFE0028C7D00128ECD14FF08E
S31508004DD4FF342046BDE8F883D5F82012284601EBAF
S31508004DE41421FFF7B3FB0028F1D1630003F4FF7322
S31508004DF4EA185278EB5C53EA0223A2D0012BD3D0EB
S31508004E04A6421DD0D5F8143269E7D5F820122846EB
S31508004E1401EBD411FFF79AFB0028D8D1A30003F4B9
S31508004E24FE73EA18E95C9378D0781B04527843EA4F
S31508004E3400630B4343EA022333F07043DED180E771
S31508004E4400242046BDE8F883012647E7C8F30B0388
S31508004E54002BD3D175E7022444E700BF2DE9F047B8
S31508004E64D0F808420646012CA0F806124BD0D0F812
S31508004E740052D5F81432A34245D90F46002C45D022
S31508004E8495F80222B1EB021F4FEA021871D39C422D
S31508004E9439D295F80032022B00F08480032B43D0D4
S31508004EA4012B30D1D5F8201204EB5409284601EB1E
S31508004EB45921FFF74BFBA0BBD5F8201209F1010ACB
S31508004EC42846C9F3080901EB5A2115F80990FFF792
S31508004ED43DFB30BBCAF3080A15F80A3049EA032928
S31508004EE4E3074CBF4FEA1914C9F30B0435E0D5F8A8
S31508004EF4241279B195F80222B7EB021F4FEA021879
S31508004F0465D3012965D10220BDE8F08795F800220A
S31508004F14032AECD0B5F80832BB42F4D9D5F82432C2
S31508004F2431E00120BDE8F087D5F82012284601EBC8
S31508004F34D411FFF70BFB0028F3D1A40004F4FE7484
S31508004F442B192A5D9C78D97824045B7844EA016491
S31508004F54144344EA032424F07044012CD3D9D6F824
S31508004F640052D5F81432A342CDD9A7EB0807474512
S31508004F748DD2023BA21E9A4226D295F80212D5F881
S31508004F84283202FB0133C6F80C42002BBBD007F0CB
S31508004F940F0203EB171305EB42120020C6E984320D
S31508004FA4BDE8F087D5F82012284601EB1421FFF74F
S31508004FB4CDFA0028B5D1640004F4FF742B195B7884
S31508004FC42C5D44EA0324C8E7C6F80C429BE70C4662
S31508004FD4CFE70C465BE700BF2DE9F0470B78894617
S31508004FE42F2B044634D05C2B32D00025C4F8085243
S31508004FF499F800301F2B34D9D4F81852DFF8A4A234
S3150800500449460A780B462F2A084601F10101F8D0C9
S315080050145C2AF6D04FF02032202142F220062A607C
S315080050246A602E81A9721A788A420ED94FF0000C4A
S315080050344FF0080E4FF0010967462F2A4DD05C2A17
S315080050444BD02E2A15D0BE4526D80620BDE8F087B3
S31508005054002509F10109C4F8085299F800301F2BF4
S31508005064CAD829462046FFF7F9FEC4F81452BDE803
S31508005074F087BEF1080FE8D177464FF00B0E4FEADA
S315080050848C0C5FFA8CFC10F8012F09F10109202A0F
S31508005094D3D89944042324E0110604D5803A1AF88F
S315080050A402204CF0030C22267F49B242CDD011F8D7
S315080050B4016F002EF9D1A2F14101192904D84CF047
S315080050C4020CEA550137DEE7A2F161011929F8D87D
S315080050D4203A4CF0010CD2B2F3E79944002FB4D02D
S315080050E400232A78E52A04BF05222A70BEF1080F90
S315080050F400F011810CF00302012A01D143F01003D8
S315080051040CF00C0CBCF1040F08BF43F00803002193
S315080051142046EB72FFF7A2FE002840F0F580D4F88B
S315080051240072D4F81062D7F82C52B54215D097F805
S31508005134043297F80102002B40F08A800123324694
S315080051443946FFF7E1F830B14FF0FF33C7F82C3290
S315080051540120BDE8F087C7F82C62D4F81432197810
S3150800516419B3DA7A12F0080027D0B4F806520135D2
S31508005174ABB2D3B1D4F81062BEB115F00F08D4F8A7
S3150800518400720BD1D4F80C120136C4F81062002947
S3150800519440F08C80B7F808329D4206D207EB4813D4
S315080051A4A4F80652C4F81432BDE7D4F81832DB7AE8
S315080051B4590700F1B580052048E7D4F8185295F840
S315080051C400C08C45D1D195F801C059788C45CCD10D
S315080051D495F802C099788C45C7D193F803C0E97845
S315080051E48C45C2D193F804C029798C45BDD193F86E
S315080051F405C069798C45B8D193F806C0A9798C4558
S31508005204B3D193F807C0E9798C45AED193F808C0B1
S31508005214297A8C45A9D193F809C0697A8C45A4D111
S3150800522493F80AC0A97A8C459FD1E97A4E073FF5C7
S315080052340DAFD206BFD5D4F800125A8B91F80012D6
S31508005244032904BF9B8A42EA0342C4F80822D7E624
S3150800525401232A463946FFF765F800287FF478AF14
S31508005264D7F82022D7F81832AA1A9A4287F80402DD
S3150800527414D297F80382B8F1010F02D80EE0D7F8D2
S3150800528418321D442A460123394697F8010208F1C3
S31508005294FF38FFF747F8B8F1010FF0D197F8010284
S315080052A44CE700BFC0EA0008B0EA000897F80232E3
S315080052B4013B13EA15137FF471AF012922D0D7F8FD
S315080052C4143299421ED23846FFF7F6FA012819D93C
S315080052D4471C3FF43DAFD4F80072D7F8143298420D
S315080052E4BFF463AF023BC4F80C02023898422FBFDE
S315080052F4002697F80222D7F8283200FB0236C4F8AB
S3150800530410624BE70220A1E6D4F818320428DB7AA7
S315080053143FF44EAF9AE64FEA8C0C5FFA8CFCEFE644
S31508005324042093E62DE9F04F002183B00446FFF7E5
S3150800533495FD002840F02481D4F80052D4F810A230
S31508005344D5F82C62564516D095F8043295F801021C
S31508005354002B64D1012352462946FEF7D5FF40B1F6
S315080053644FF0FF33C5F82C320125284603B0BDE8B3
S31508005374F08FC5F82CA2D4F814321B78E52B00D08C
S3150800538443BBD4F81012D4F80002FFF7DFF8054639
S315080053940028EAD101462022D4F8140208F098FA23
S315080053A4D4E98532511C591A022940F21781116829
S315080053B4196051685960117A28461972517A5972D6
S315080053C4917A01229972D4F8003283F8042203B040
S315080053D4BDE8F08FB4F806620136B3B2002B00F0CC
S315080053E4D380D4F810A2BAF1000F00F0CD8016F0DD
S315080053F40F07D4F800520BD1D4F80C120AF1010A9B
S31508005404C4F810A219BBB5F808329E4280F0BC80D5
S3150800541405EB4717A4F80662C4F8147290E701234B
S3150800542432462946FEF77EFF00289DD1D5F820226C
S31508005434D5F81832B21A9A4285F8040204D295F8B5
S315080054440372012F00F2A48095F8010282E795F809
S315080054540232013B13EA1613DAD1012900F0A680B9
S31508005464D5F81432994280F0A1802846FFF724FA29
S315080054740128804640F29A80B0F1FF3F3FF474AFAA
S31508005484D4F80052D5F814329842C0F094802846CD
S31508005494D4F80C12FFF712FC8046002874D00128B1
S315080054A400F08480B0F1FF3F3FF45EAFD4F80052B9
S315080054B495F80432002B40F0A2804FF40072284677
S315080054C4002108F005FAD4F80052A8F1020AD5F822
S315080054D4143295F80212023B9A452EBF4FF0000B80
S315080054E4D5F828220AFB012BC5F82CB2002900F0AE
S315080054F4B48001974FF000095F46B34626464FF03D
