S0140000466173616C466C61736865722E7372656364
S3150800000000000120B10A0008090800080D080008C8
S31508000010150800081D08000825080008000000004B
S315080000200000000000000000000000002D08000885
S3150800003031080008000000003508000839080008E3
S31508000040F90A0008F90A0008F90A0008F90A000876
S31508000050F90A00083D080008F90A0008F90A000824
S31508000060F90A0008F90A0008F90A0008F90A000856
S31508000070F90A0008F90A0008F90A0008F90A000846
S31508000080F90A0008F90A0008F90A0008F90A000836
S31508000090F90A0008F90A0008F90A0008F90A000826
S315080000A0F90A0008F90A0008F90A0008F90A000816
S315080000B0F90A0008F90A0008F90A0008F90A000806
S315080000C0F90A0008F90A0008F90A0008F90A0008F6
S315080000D0F90A0008F90A0008F90A0008F90A0008E6
S315080000E0F90A0008F90A0008F90A0008F90A0008D6
S315080000F0F90A0008F90A0008F90A0008F90A0008C6
S31508000100F90A0008F90A0008F90A0008F90A0008B5
S31508000110F90A0008F90A000841080008F90A00085F
S31508000120F90A0008F90A0008F90A0008F90A000895
S3150800013000000000000000000000000000000000B1
S3150800014000000000000000000000000000000000A1
S315080001500000000000000000000000000000000091
S315080001600000000000000000000000000000000081
S315080001700000000000000000000000000000000071
S315080001800000000000000000000000000000000061
S315080001900000000000000000000000000000000051
S315080001A00000000000000000000000000000000041
S315080001B00000000000000000000000000000000031
S315080001C00000000000000000000000000000000021
S315080001D00000000000000000000000000000000011
S309080001E05FF8E0F1E5
S315080001E410B5054C237833B9044B13B10448AFF35F
S315080001F400800123237010BDE000002000000000E9
S3150800020410E8000808B5034B1BB103490348AFF3CC
S31508000214008008BD00000000E400002010E8000883
S31508000224034613F8012B002AFBD1181A0138704724
S31508000234430803F05533C01A830803F0333300F038
S315080002443330184400EB101000F00F3000EB002098
S3150800025400EB0040000E704708B50548054B0360DF
S3150800026400F05EFD00B908BDBDE8084000F076B9A7
S31508000274FC00002000300240094B02689A4200D074
S315080002847047A3F500535A6982B042F040025A6196
S315080002945B6903F040030193019B02B0704700BFFA
S315080002A4003002402DE9F0430024102189B0CDE93D
S315080002B40444CDE90644494B494E9A69494D0A43D3
S315080002C49A619A69DFF820810A400092009A9A692D
S315080002D4304642F020029A619A694FF0010902F009
S315080002E420020192019A9A69022742F004029A614D
S315080002F49A6902F004020292029A9A6942F0080282
S315080003049A619B69224603F008030393039B01F051
S315080003141DF82246284641F2381101F017F82246FC
S3150800032440464FF4E05101F011F840F2FF3203233E
S31508000334404604A9CDE9042300F04EFD01222B4BC7
S31508000344304604A9CDE90423069400F045FD49F690
S3150800035402120323304604A9CDE9042300F03CFD28
S31508000364102330460DEB03010493CDE90594079752
S3150800037400F032FD40F605420023284604A9CDE9DB
S315080003840423069400F028FD40F20222032328469B
S3150800039404A9CDE9042300F01FFD41F238132846C9
S315080003A404A90493CDE90594079700F015FD4FF4C5
S315080003B4E053404604A90493CDE90647CDF81490C2
S315080003C400F00AFD04220323094804A9CDE90423FD
S315080003D400F002FD09B0BDE8F08300BF001002403A
S315080003E400080140000C01400010014000001110F3
S315080003F40014014000234FF4804210B509480A4C02
S315080004040A49C0E90233C0E90041C0E90423C0E946
S315080004140633036200F0B4FF00B910BDBDE810400E
S3150800042400F09CB80801002000540040A086010092
S315080004340023D0B5144A016886B09142CDE9023347
S31508000444CDE9043301D006B0D0BD0322C026122755
S315080004540E4C0F48A36902A943F00803A361A369D4
S31508000464CDE9026703F008030093009B059200F0A8
S31508000474B3FCE36943F40013E361E36903F400138B
S315080004840193019B06B0D0BD005400400010024001
S31508000494000C01400023012230B597B005244FF41F
S315080004A480350221CDE90F22CDE911334FF480328C
S315080004B4CDE90233CDE90433CDE90733CDE9093370
S315080004C40E93019306930B934FF4E0130CA8CDE90E
S315080004D40C4513911492159301F09AF8C0B90023A8
S315080004E402210F224FF4806401A8CDE90121049466
S315080004F40393059301F002FB88B901224FF4807334
S3150800050406A8CDE9062301F06BFC20B917B030BD67
S3150800051406F00CF9E3E706F009F917B030BD06F062
S3150800052405F9EAE708B500F00BFBFFF7B3FFFFF799
S31508000534B9FEFFF791FEFFF75DFF00F019F800F02A
S315080005445FF800F07FF800F017FA00F031FA03F0CC
S31508000554C7F800F0C9F905F065FDFCE706F0E6B84A
S31508000564014B024A06F002B930E8000834E80008EC
S3150800057400234FF0FF3200B50F48104983B0C0E995
S31508000584001200938360019301F04CFD58B90122CF
S31508000594022369460848CDE9002301F0EBFD28B992
S315080005A403B05DF804FBFFF7D9FFF0E7FFF7D6FFC2
S315080005B403B05DF804FB00BF60010020002800407A
S315080005C40C4B02689A4200D0704700B583B001F01C
S315080005D419F80120084B0949DA6942F00062DA6120
S315080005E4DB6903F000630193019BC1F83C0403B083
S315080005F45DF804FB00280040001002400000424257
S3150800060438B5082100234FF482754FF400740A2282
S315080006140A48C0E90153C0E90333C0E90534C0E90F
S315080006240713C0E90933064BC262036001F050FEA2
S3150800063400B938BDBDE83840FFF790BFD0010020A7
S315080006440030014010B500234FF482744FF4007152
S315080006540A220B48C0E90143C0E90333C0E905315E
S31508000664C0E90733C0E90933064BC262036001F0E7
S315080006742FFE00B910BDBDE81040FFF76FBF00BFDD
S315080006847801002000380040D0B500242F4A0368BA
S3150800069488B09342CDE90444CDE9064404D02C4AF3
S315080006A4934229D008B0D0BD2A4BA0269A690227BE
S315080006B442F480529A619A6904A902F4805200921B
S315080006C4009A9A69244842F004029A619B69CDE922
S315080006D4046703F0040301930323019A079300F0C4
S315080006E47BFB402200231C4804A9CDE90423069475
S315080006F400F072FB08B0D0BD164B4FF42046DA69F9
S31508000704022742F48042DA61DA6904A902F48042D3
S315080007140292029A9A69114842F008029A619B6900
S31508000724CDE9046703F0080303930323039A0793A5
S3150800073400F052FB4FF480420023084804A9CDE98F
S315080007440423069400F048FB08B0D0BD00300140ED
S31508000754003800400010024000080140000C014027
S315080007640E4A0368934203D00D4A93420AD070474F
S3150800077402F560429369E02123F4805309489361A2
S3150800078400F000BD02F5EC32D3694FF4604123F45E
S3150800079480430548D36100F0F5BC00BF0030014032
S315080007A40038004000080140000C01400022134BA9
S315080007B400B5996983B041F00101996199690520E9
S315080007C401F0010100910099D96941F08051D9617C
S315080007D4DB69114603F080530193019B00F004FA88
S315080007E4052000F047FA064A536823F0E06343F00D
S315080007F40073536003B05DF804FB00BF00100240A9
S3150800080400000140FEE700BF08B505F09FFFFEE7BC
S3150800081408B505F09BFFFEE708B505F097FFFEE768
S3150800082408B505F093FFFEE7704700BF704700BFA1
S31508000834704700BF00F096B9704700BF014802F040
S3150800084467BB00BF3002002070B5161E07DD0C46D4
S315080008548D19AFF3008004F8010BA542F9D130468F
S3150800086470BD00BF70B5161E07DD0C468D1914F849
S31508000874010BAFF30080AC42F9D1304670BD00BF1E
S315080008844FF0FF30704700BF4FF4005300204B6011
S31508000894704700BF01207047002070470D49034682
S315080008A410B50D4A0D4C0868121B20B10344934237
S315080008B407D80B6010BD0A4C2046034493420C60CB
S315080008C4F7D90DF0D7F80C2203464FF0FF301A601B
S315080008D410BD00BF280200200000012000100000FF
S315080008E430D00020704700BF002340F67F416322C2
S315080008F410B50F480F4C82B0C0E901130460009389
S31508000904C2608361019302F0BDF950B90022002345
S3150800091469460748CDE9002302F096FB20B902B0E0
S3150800092410BDFFF71BFEF1E7FFF718FE02B010BD76
S3150800093430020020001000400E4B02689A4200D094
S315080009447047002203F50033D96900B541F0100158
S31508000954D961DB6983B003F010030193362011468D
S31508000964019B00F041F9362003B05DF804EB00F072
S3150800097481B900BF0010004000234FF4E1310C2276
S3150800098410B50948094CC0E90113C0E90333C0E9A5
S3150800099405230460C36102F051FC00B910BDBDE82B
S315080009A41040FFF7DBBD00BFC0020020003801403D
S315080009B400234FF4E1310C2210B50948094CC0E96B
S315080009C40113C0E90333C0E905230460C36102F0D7
S315080009D435FC00B910BDBDE81040FFF7BFBD00BF28
S315080009E47802002000440040D0B500242B4A03684E
S315080009F488B09342CDE90444CDE9064404D0284A94
S31508000A0493422BD008B0D0BD264B4FF400769A6992
S31508000A14022742F480429A619A69234802F4804282
S31508000A240092009A9A6904A942F004029A619B69A1
S31508000A34CDE9046703F0040301930323019A07939A
S31508000A4400F0CAF94FF480620023174804A9CDE9D7
S31508000A540423069400F0C0F908B0D0BD114B04264F
S31508000A64DA69022742F40032DA61DA690E4802F4D6
S31508000A7400320292029A9A6904A942F004029A611F
S31508000A849B69CDE9046703F0040303930323039ADC
S31508000A94079300F0A1F90822D6E700BF0038014001
S31508000AA4004400400010024000080140FFF71AFF06
S31508000AB40B480C490C4A002302E0D458C4500433AA
S31508000AC4C4188C42F9D3094A094C002301E013607F
S31508000AD40432A242FBD30CF0D3FFFFF723FD704781
S31508000AE400000020C40000204CF80008E0000020A4
S31508000AF430D00020FEE7000038B54FF47A730D4A6B
S31508000B04054611780C4AB3FBF1F31268B2FBF3F00D
S31508000B1400F0EEF808B90F2D01D9012038BD0446B6
S31508000B24024629464FF0FF3000F05EF8034B204694
S31508000B341D6038BD040000200000002008000020C5
S31508000B44074A08B51368032043F01003136000F03E
S31508000B542DF80F20FFF7D0FFFFF728FE002008BD69
S31508000B6400200240034A044B11681B780B441360A7
S31508000B74704700BF0803002004000020014B1868D2
S31508000B84704700BF0803002038B50446FFF7F6FF90
S31508000B94631C054602D0044B1B781C44FFF7EEFF82
S31508000BA4401BA042FAD338BD04000020C31E042B00
S31508000BB410B504460ED84FF6FF0009492302CA6841
S31508000BC403F4E0630240134343F0BF6343F4003382
S31508000BD4CB6010BD91210348FFF7C2FCEBE700BFC9
S31508000BE400ED00E05CE800080F2A70B516460546D5
S31508000BF40C4634D80F2C2DD81B4BDB68C3F30223C1
S31508000C04C3F10702042A03F1040128BF04220629B2
S31508000C1417D9D91E4FF0FF338B4026EA03064FF047
S31508000C24FF33934024EA03038B4033431B01002D0F
S31508000C34DBB209DB05F1604505F5614585F8003346
S31508000C4470BD00263146EAE7084A05F00F052A442E
S31508000C54137670BDAA210648FFF782FCCCE7A921C2
S31508000C640348FFF77DFCC5E700ED00E0FCEC00E077
S31508000C745CE80008002808DB012300F01F01054A88
S31508000C8440098B4042F820307047BD210248FFF7DF
S31508000C9467BC00BF00E100E05CE8000800280DDB43
S31508000CA401220849430900F01F002033824041F815
S31508000CB42320BFF34F8FBFF36F8F7047CD210248B0
S31508000CC4FFF74EBC00E100E05CE80008BFF34F8F75
S31508000CD40549064BCA6802F4E0621343CB60BFF3C6
S31508000CE44F8F00BFFDE700BF00ED00E00400FA05E2
S31508000CF40138B0F1807F01D3012070474FF0E0231B
S31508000D044FF0F00C0022072110B4044C586184F803
S31508000D1423C010469A6110BC1961704700ED00E0C3
S31508000D24C8B10E4B026810B59A42044603D068212E
S31508000D340B48FFF715FC637903F0FF021BB1012387
S31508000D446371002010BD20462271FFF795FA01232E
S31508000D546371002010BD0120704700BF00300240B7
S31508000D6498E80008022310B48446046843713AB12B
S31508000D74043901EB820251F8043F8A422360FAD10E
S31508000D84012320688CF8053010BC704790F82120A0
S31508000D940346022A06D004229A630022012083F815
S31508000DA4202070474FF0010C1A680020116821F0C2
S31508000DB40E011160116821F001011160D3E90F12C7
S31508000DC40CFA02F24A60002283F821C083F8202034
S31508000DD4704700BF806B70472DE9F04FA84B064655
S31508000DE498420F4683B01BD003F58063984217D008
S31508000DF403F58063984213D003F5806398420FD0B5
S31508000E0403F5806398420BD003F58063984207D0B4
S31508000E1403F58063984203D0BD219A48FFF7A0FBE7
S31508000E243B689AB21AB1B3F5803FC0F02381BE215C
S31508000E349448FFF795FB7A68012A0BD9924B9A4294
S31508000E4408D064D8A3F580139A4203D050D98F4B9F
S31508000E549A4252D13B68002B56D04FF00009DFF86E
S31508000E6420B24D46DFF828A28A4A03E0013533FA50
S31508000E7405F149D00124AC4034EA030104EA030825
S31508000E84F4D15E4519D0844B9E4216D0964214D0AE
S31508000E9403F500639E4210D003F580639E420CD08E
S31508000EA403F580639E4208D003F580639E4204D00E
S31508000EB4CD217448FFF754FB764A7B68122B00F25F
S31508000EC4B880122B40D8DFE813F0C1000A010301E9
S31508000ED419013F003F003F003F003F003F003F002D
S31508000EE43F003F003F003F003F003F00FC00F50085
S31508000EF4032AAFD9113A012AACD9BF216148FFF7B1
S31508000F042FFB3B68002BA8D103B0BDE8F08F634BD9
S31508000F149A429FD0A3F5702322F480129A4299D05C
S31508000F24BF215848FFF71CFBEBE7A1F580118B425C
S31508000F3400F08C8001F570218B4200F08780A1F5C2
S31508000F4480118B4200F08280B8F1FF0F00F289808D
S31508000F543446A9000F20236809FA01FC00FA01F1B6
S31508000F6423EA010343EA0C0323607B68D9007FD58F
S31508000F74DAF8181005F0030441F00101CAF818104C
S31508000F84DAF81810A40001F001010191019925F07D
S31508000F94030101F1804101F58031D1F808C0A04070
S31508000FA45E452CEA00001ED0DFF8ECC0664500F06A
S31508000FB4AE80DFF8E0C0664500F0A380DFF8E0C045
S31508000FC4664500F0BA80DFF8DCC0664500F0D080DC
S31508000FD4DFF8D4C066450CBF4FF0050C4FF0060C7D
S31508000FE40CFA04F4204388603048DC0281684CBF5C
S31508000FF441EA080121EA080181602C489C02C1687B
S315080010044CBF41EA080121EA0801C16027489C034C
S3150800101441684CBF41EA080121EA080141602349B5
S3150800102413F4803F0B6820D043EA08030B603B683F
S315080010341CE71F498B4209D07FF677AF17498B42C5
S3150800104404D001F580318B427FF47EAFBB68022B56
S315080010546AD8002B61D1B8F1FF0F4FF004097FF667
S3150800106477AFA9002039341D74E723EA08030B6017
S315080010743B68FBE67A68012A3FF6E0AEEDE600BF78
S3150800108400080140D0E800080000211000001210F2
S315080010940010024000100140000C0140000031100D
S315080010A40014014000180140001C014000040140DE
S315080010B400002210FB68591E022952D803F10C09B4
S315080010C442E7FB68591E022944D803F104093BE7A1
S315080010D4FB68591E022936D803F1080934E7D7F8FC
S315080010E40C9009F1FF33022B7FF62EAFD521234846
S315080010F4FFF736FAD7F80C90214A25E74FF000098E
S3150800110422E74FF0020C0CFA04F420436BE74FF085
S31508001114010C0CFA04F4204365E7012B4FF0080987
S315080011240CBF346174610FE7F7211448FFF718FA06
S31508001134BB68134A002B8ED0EFE74FF0030C0CFA6A
S3150800114404F420434FE7E3210C48FFF709FAFB6848
S315080011540B4AC1E7DC210948FFF702FAFB68084A8B
S31508001164B3E7EA210548FFF7FBF9FB68044AA5E754
S315080011744FF0040C0CFA04F4204334E7D0E80008D2
S31508001184001001402DE9F84F5F4B044698420D467E
S315080011941CD003F58063984218D003F580639842FF
S315080011A414D003F58063984210D003F580639842FF
S315080011B40CD003F58063984208D003F580639842FF
S315080011C404D04FF4B4715148FFF7CAF9ABB2002BF7
S315080011D478D0B5F5803F80F08680002001274FF04F
S315080011E40F094FF0040A0346494E51E00EF5806E86
S315080011F4744570D0DFF81CE174456FD0DFF818E148
S31508001204744576D0DFF814E1744577D0DFF810E139
S31508001214744514BF4FF0060E4FF0050E0EFA02F28F
S3150800122490456FEA010E15D1326802EA0E02326061
S31508001234726802EA0E027260F26802EA0E02F2604C
S31508001244B26802EA0E02B260DCF8082022EA0B024F
S31508001254CCF80820FF299ABFA446014604F1040CD9
S31508001264DCF8002088BFA0F1200109FA01F822EA77
S3150800127408020AFA01F10A43CCF80020E26802EAF5
S315080012840E02E260013335FA03F200F1040020D0BD
S3150800129407FA03F212EA0501F4D023F0030C0CF161
S315080012A4804CDFF864E00CF5803C03F00302DCF8BC
S315080012B40880920009FA02FB74450BEA080895D1DE
S315080012C40022ADE740F269111048FFF749F9002DED
S315080012D483D1BDE8F88F07FA02F2A1E74FF0020EB0
S315080012E40EFA02F29CE740F269110848FFF738F94A
S315080012F473E74FF0030E0EFA02F291E74FF0040E6D
S315080013040EFA02F28CE700BF00080140D0E8000894
S315080013140004014000100140001401400018014077
S31508001324001C014038B505460C4629B183681942A4
S3150800133414BF0120002038BD4FF4DA710248FFF7C4
S315080013440FF92046AB6838BDD0E8000870B50646E4
S315080013540C46154661B1012D03D805B92404346138
S3150800136470BD40F2D5110548FFF7FAF8346170BD2F
S315080013744FF4EA710148FFF7F3F8ECE7D0E8000800
S31508001384002800F02C8138B5964A0368044693422F
S3150800139408D002F58062934204D040F2DB119248E9
S315080013A4FFF7DEF86368914A013B934200F2FF8037
S315080013B4A36833F4804340F0D880E368B3F5806FBC
S315080013C480F0DD80236923F40043B3F5804F04D00D
S315080013D440F2DF118448FFF7C3F86369012B00F272
S315080013E4D480A36933F0FE0340F0D980E36933F06F
S315080013F4400304D04FF4F1717B48FFF7B1F8236A30
S3150800140433F0800340F09F8094F83D3003F0FF02E8
S31508001414002B00F0A4802422236884F83D201A684F
S3150800142422F001021A601A6842F400421A601A6825
S3150800143422F400421A6000F0B3FC63686C4A9342D3
S315080014444FD86C4A904240F2B0806B4D5A00A5FBC7
S315080014540035431EB3FBF2F340F6FC7C2268A90C64
S315080014645068013120F03F0040EA95405060106A08
S31508001474013320F03F0001431162D16913EA0C0FCE
S3150800148421F44F4121F0FF0140F0978004230B43D8
S31508001494D3611168D4E9073021F0C00103430B4333
S315080014A413609168D4E9030321F40341034321F04B
S315080014B4FF010B439360D068D4E9053120F0FF009F
S315080014C40B430343D3601368002143F001031360FD
S315080014D42023216484F83D30216384F83E100846AD
S315080014E438BD464A904260D9434A454DA2FB002C72
S315080014F44FF496724FEA9C4102FB01F12268A5FB60
S3150800150401515568890925F03F0545EA9C4555600A
S31508001514156A013125F03F0529431162D169A56889
S3150800152421F44F41013821F0FF01002D48D103EB86
S315080015344303B0FBF3F30133C3F30B03002B4CD083
S3150800154443F40043A3E740F2E3112748FFF708F8FA
S3150800155494F83D3003F0FF02002B7FF45CAF20467D
S3150800156484F83C20FEF764FF55E740F2DD111E4877
S31508001574FEF7F6FFE368B3F5806FFFF423AF4FF485
S31508001584EF711948FEF7ECFF1CE74FF4F0711648A3
S31508001594FEF7E6FFA36933F0FE033FF427AF40F2F4
S315080015A4E1111148FEF7DCFF20E7012038BD4FF4AE
S315080015B4EE710D48FEF7D4FFFAE6C3F30B0366E7AC
S315080015C403EB830303EB8303B0FBF3F30133C3F3A6
S315080015D40B0313B143F4404359E7012357E70120AA
S315080015E4704700BF005400400CE900087F1A060043
S315080015F4A08601007F841E0083DE1B43FF083D008E
S31508001604D34D62100122014B1A62704700000E4244
S31508001614002800F06B822DE9F0410368044682B085
S31508001624002B48D01E0700F0C781DD0740F1B280C1
S31508001634636833F4803203D0B3F5A02F40F0988161
S31508001644A24A536803F00C03042B00F09A805368EB
S3150800165403F00C03082B00F090806368B3F5803F11
S3150800166400F07381002B00F0AE81B3F5A02F00F0D3
S315080016740582964B1A6822F480321A601A6822F494
S3150800168480221A6066E1914A136A43F001031362E1
S31508001694FFF774FA41F2883806468C4F05E0FFF7DF
S315080016A46DFA801B404500F283813B6A9B07F6D599
S315080016B4002D40F0DD81E369022B00F23C81002B0A
S315080016C457D0824D6A6802F00C02082A00F0BF81DE
S315080016D4022B40F0E881236A33F4803304D040F2C5
S315080016E4B6217B48FEF73CFF636A33F4402212D0E6
S315080016F4B2F5801F0FD0B2F5001F0CD023F4802258
S31508001704B2F5401F07D0B3F5601F04D040F2B721E5
S315080017146F48FEF725FF00226E4B6C4E1A66FFF7DC
S315080017242DFA054605E0FFF729FA401B022800F2C0
S315080017343F8133689901F6D4226AB2F5803F00F0F6
S31508001744C3810120614D616A6B6823F474130B43EA
S31508001754604913436B600866FFF710FA044605E010
S31508001764FFF70CFA001B022800F222812B689A0163
S31508001774F6D5002002B0BDE8F0815368D8037FF59A
S315080017846CAF524B1B68990303D56368002B00F0B2
S315080017949A8023689F072FD52369012B00F2A2801C
S315080017A463691F2B00F2A780484B5A6812F00C0F86
S315080017B400F082805A6802F00C02082A79D023695C
S315080017C4002B00F033810122424B404E1A60FFF78A
S315080017D4D5F9054605E0FFF7D1F9401B022800F2C2
S315080017E4E78033689807F6D53368626923F0F80307
S315080017F443EAC203336023681A0725D5A369012B74
S3150800180400F29080002B7CD00122324B2F4EC3F875
S315080018148024FFF7B3F9054605E0FFF7AFF9401B47
S31508001824022800F2C580736A9B07F6D52A4B2B4A11
S315080018341B68A2FB03235B0A019300BF019B5A1E84
S315080018440192002BF9D123685D077FF534AFE3686D
S31508001854012B06D9052B04D040F20F211C48FEF7AC
S315080018647FFE1A4BDA69D00000F1C3800125DA69D4
S3150800187442F08052DA61DB6903F080530093009BDF
S31508001884174E3368D90540F18380E368012B3FF48A
S31508001894FAAE002B00F0AF80052B0C4B1A6A00F049
S315080018A4FA8022F001021A621A6A22F004021A6203
S315080018B4EEE65B68DE0382D4044B1B689D075DD5A0
S315080018C42369012B5AD0012054E700BF00100240B7
S315080018D444E900080000424200000020D34D62108B
S315080018E40070004040F29F118148FEF739FE636993
S315080018F41F2B7FF659AF4FF4D0717D48FEF730FEA3
S3150800190452E77C4A7C4EC2F88034FFF737F905461D
S3150800191404E0FFF733F9401B022849D8736A9F0786
S31508001924F7D490E74FF4F0717148FEF719FEA369EE
S31508001934002BE6D068E740F2AD216D48FEF710FEAD
S31508001944E369002B7FF4BDAE13E76B4A136843F4CF
S3150800195480331360FFF712F9674E054604E0FFF774
S315080019640DF9401B642823D833689A03F7D510E782
S3150800197440F26B115E48FEF7F3FD61E65E4A616963
S31508001984136823F0F80343EAC1031360236833E7B3
S31508001994336843F480733360FFF7F0F80746336817
S315080019A4DA053FF572AFFFF7E9F8C01B6428F6D9E4
S315080019B4032002B0BDE8F08140F265114C48FEF7F9
S315080019C4CFFD236831E64C4D2B6823F480332B6016
S315080019D42B6823F480232B60FFF7D0F8064604E02F
S315080019E4FFF7CCF8801B6428E2D82B689B03F7D44E
S315080019F4CFE6002544E7404E41F28838336A23F09F
S31508001A0401033362336A23F004033362FFF7B6F83B
S31508001A14074604E0FFF7B2F8C01B4045C8D8336A46
S31508001A249807F7D4002D3FF446AE21E0314A324EEA
S31508001A341360FFF7A3F8054604E0FFF79FF8401B79
S31508001A440228B5D833689907F7D42368D4E6012B56
S31508001A543FF439AF6B68226A03F4803191427FF40C
S31508001A6432AF606A03F47013181A18BF012081E6AE
S31508001A74214AD36923F08053D3611CE603F18043DA
S31508001A84A3F53C331A6842F480221A601A6842F4B1
S31508001A9480321A605EE742F004021A621A6A42F059
S31508001AA401021A62F4E50022124B1A66FFF766F879
S31508001AB4044605E0FFF762F8001B02283FF678AFF4
S31508001AC42B689B01F6D454E6A16831F4003306D09A
S31508001AD440F2CD210648FEF743FDA168226A06486E
S31508001AE4436823F400330B4343602AE60120704716
S31508001AF444E900080000424200100240002800F0B1
S31508001B04FF8003682DE9F0411B0704460D4600F0E3
S31508001B14CF80022D00F2C680834A136803F00703B8
S31508001B24AB420CD2136823F007032B4313601368E4
S31508001B3403F00703AB4202D00120BDE8F081236815
S31508001B449F0728D55E0704D578494A6842F4E062B7
S31508001B544A60180704D575494A6842F460524A60CF
S31508001B64A26892B1C02A10D000F2C180A02A0CD073
S31508001B7400F2B98022F01001802906D040F25D31C6
S31508001B846B48FEF7EDFCA26823686848416821F0B3
S31508001B94F0010A434260D90726D56368022B00F28E
S31508001BA4B580624A012B126800F0AC80022B00F063
S31508001BB496809607C0D55D4E41F28838726822F041
S31508001BC4030213437360FEF7D9FF074605E0FEF7E1
S31508001BD4D5FFC01B404500F2A0807368626803F015
S31508001BE40C03B3EB820FF2D14F4A136803F00703D1
S31508001BF4AB4209D9136823F007032B431360136810
S31508001C0403F00703AB4297D12368580718D5E16850
S31508001C1431F480620ED021F40072B2F5A06F09D0B7
S31508001C24B1F5C06F06D040F2A2314148FEF798FCE0
S31508001C34E16823683D48426822F4E0620A43426048
S31508001C44190718D5226932F480630DD022F400737B
S31508001C54B3F5A06F08D0B2F5C06F05D040F2A9312C
S31508001C643348FEF77DFC226930494B6823F46053F8
S31508001C7443EAC2034B602D494A6802F00C03082B59
S31508001C841CD02C4B294A2C4852682C49C2F30312FF
S31508001C94805C2B4AC34008681360FEF72DFF0020BA
S31508001CA4BDE8F08140F237312148FEF759FC33E7A5
S31508001CB440F236311E48FEF753FC2AE72148C2F3A0
S31508001CC48343D203C35C2AD51A484A6800FB03F344
S31508001CD41D49C2F340428A5CB3FBF2F3D2E797018B
S31508001CE43FF569AF28E7B02A3FF44FAF46E7E02A45
S31508001CF43FF44BAF22F02001D0297FF43FAF44E7ED
S31508001D040120704792033FF556AF15E74FF4597112
S31508001D140748FEF725FC636843E703200DE70B4AEB
S31508001D2402FB03F3AEE700BF0020024000100240A6
S31508001D3444E9000800127A004CE80008080000206C
S31508001D440000002080E900087CE9000800093D003D
S31508001D540E4A536803F00C01082901D00C48704751
S31508001D640C48C3F38341DB03405C0AD5084953682E
S31508001D7401FB00F0084AC3F34043D35CB0FBF3F01D
S31508001D847047064B03FB00F0704700BF0010024083
S31508001D9400127A0080E900087CE9000800093D0081
S31508001DA4044B054A5B680549C3F30223CB5C1068F8
S31508001DB4D8407047001002400000002044E800089C
S31508001DC4044B054A5B680549C3F3C223CB5C106818
S31508001DD4D8407047001002400000002044E800087C
S31508001DE42DE9F04103680446DD0682B063D0D807BE
S31508001DF439D5636833F440737BD1474BDA69D1002C
S31508001E045FD4DA69454D42F08052DA61DB6901260E
S31508001E1403F080530193019B2B68DA0556D53E4D92
S31508001E2461682B6A13F4407311D001F440729A4224
S31508001E340DD0002001272B6A394A23F44071C2F8D1
S31508001E444074C2F84004D807296257D46168324AF4
S31508001E54136A23F440730B4313621EB1D36923F048
S31508001E648053D36123689A070FD5A16831F4404299
S31508001E7405D0B7212B48FEF773FBA16823682648CB
S31508001E84426822F440420A434260DB060FD562697F
S31508001E9432F4800305D040F213112248FEF760FBA2
S31508001EA462691D494B6823F4800313434B60002081
S31508001EB402B0BDE8F0816A211A48FEF751FB23688F
S31508001EC495E7164D00262B68DA05A8D42B6843F443
S31508001ED480732B60FEF752FE07462B68DB059ED4FB
S31508001EE4FEF74CFEC01B6428F7D9032002B0BDE8F0
S31508001EF4F08172210B48FEF733FB7EE7FEF73EFEC0
S31508001F0441F2883807462B6A99079FD4FEF736FEAE
S31508001F14C01B4045F7D9E8E70010024000700040AE
S31508001F240000424290E90008C10610B5044622D0D2
S31508001F34013C0F2C19D8DFE804F00824181A1818DD
S31508001F44181A181818181818182F40F202322E4999
S31508001F540B6A1A40B2F5817F52D003F44073B3F585
S31508001F64007F45D0B3F5407F2FD0002010BDBDE8D3
S31508001F741040FFF7EDBE4FF4CA712448FEF7F0FA95
S31508001F84D6E7FFF71DFF204B5B68C3F381330133A4
S31508001F945B00B0FBF3F010BD1B4B5A68186810F0D1
S31508001FA48070E3D01A48C2F38341D203405C14D448
S31508001FB4184B03FB00F0144B5B685B02D6D4164B34
S31508001FC44000A3FB0030400810BD4FF224430868C4
S31508001FD410F4003018BF184610BD5B680F4AC3F3E7
S31508001FE44043D25C0E4BB3FBF2F303FB00F0E2E78B
S31508001FF449F64043486A10F0020018BF184610BD57
S315080020044FF4004010BD00BF0010024090E90008DC
S31508002014D0E9000800093D00ABAAAAAACCE9000841
S3150800202400127A00002800F09D8038B502684E4BED
S3150800203404469A4204D04FF48F714C48FEF790FA3E
S31508002044A36833F080026BD16FF480126368A3F53A
S31508002054801393426FD3637C03F0FF02002B74D082
S31508002064022322686374536823F008035360FEF757
S3150800207485FD054605E0FEF781FD431BB3F57A7F2A
S315080020844AD823685B681B07F5D5FEF777FD05462E
S3150800209405E0FEF773FD401BB0F57A7F3CD823684C
S315080020A45A689006F5D55A68A06842F010025A6034
S315080020B45A6822F007025A6020B12D490A6B22F0A9
S315080020C401020A632A49CA6A22F460720243CA628E
S315080020D46268511C3ED0C2F3034192B29960DA6039
S315080020E45A6822F010025A60FEF748FD054605E0D4
S315080020F4FEF744FD401BB0F57A7F0DD823685B686C
S315080021049B06F5D5002340F201110122E373A4F8D6
S315080021140D106274184638BD04236374012038BD53
S3150800212423F40073B3F5807F8ED040F21F110F4855
S31508002134FEF716FA88E74FF490710C48FEF710FA82
S31508002144637C03F0FF02002B8AD120462274FEF733
S3150800215437FA85E70120FFF7E7FE0028DCD0236875
S31508002164421EB8E70120704700280040E0E900084D
S31508002174006C004000283AD038B50D4699B30B6870
S315080021840446012B22D16B6833F0020303D05A218B
S315080021941848FEF7E5F9237C012B26D002234FF0D5
S315080021A4010C154984F810C06374CB6A13F4C07320
S315080021B415D1D5E90025086B2A4320F0030002430C
S315080021C40A6384F811C02374184638BD592109488E
S315080021D4FEF7C6F96B6833F00203D8D1DBE70422AD
S315080021E4002362742374012038BD022038BD0120FF
S315080021F4704700BF18EA0008006C00402DE9F04358
S31508002204984683B015460C4607460A9EFEF7B6FC62
S315080022144644361AFEF7B2FC2C4BB8F1FF3F1A684F
S3150800222418BF8146C2F3CB3206FB02F201923A6822
S3150800223419D1936834EA03030CBF012300239D4292
S31508002244F7D1002003B0BDE8F083FEF797FCA0EBB6
S315080022540900B04210D2019B3A68002B08BF002639
S31508002264019B013B0193936834EA03030CBF0123E2
S315080022740023AB42E9D1E4E7D7E900315A68B1F55E
S31508002284827F22F0E0025A6013D0BA6AB2F5005F80
S3150800229407D11A6822F400521A601A6842F40052E6
S315080022A41A6001220023032087F8512087F850304A
S315080022B4C8E7BA68B2F5004F02D0B2F5806FE4D128
S315080022C41A6822F040021A60DFE700BF0000002007
S315080022D4002800F00481F8B5914A0368044693423D
S315080022E40CD0A2F57842934208D002F58062934254
S315080022F404D04FF4AC718B48FEF732F963683BB1EE
S31508002304B3F5827F04D040F259118648FEF728F9BE
S31508002314A36833F4806240F08280E36833F4006390
S3150800232404D040F25B117F48FEF71AF9A36933F427
S31508002334007203D0B3F5802F40F0C780E36983B1F8
S31508002344182B40F2A980203B182B05D84FF00132F0
S3150800235422FA03F3DE0704D440F25D117148FEF74E
S31508002364FFF8236A33F0800363D1636A002B68D1CC
S31508002374236933F0020340F0A2806369012B04D970
S3150800238440F265116748FEF7EBF86368B3F5827F98
S3150800239400F0A7800023E361002094F85130A0627E
S315080023A403F0FF02002B00F08180D4E901320226F3
S315080023B44FF0010C002502F4044203F4827313431C
S315080023C4E26884F85160266902F40062134306F051
S315080023D4020633436669A169276A06EA0C0633438B
S315080023E4E66907F0800E01F4007706F038063B43E9
S315080023F42268334343EA0E0303431068090C01F0C9
S31508002404040120F04000106013605160D369284627
S3150800241423F40063D361656584F851C0F8BDB3F548
S31508002424004F3FF47AAF4FF4AD713E48FEF798F883
S3150800243473E74FF4AF713B48FEF792F8636A002BD3
S3150800244496D040F261113748FEF78AF8636A002B82
S315080024548ED0E3697BB1182B11D9203B182B05D8EC
S315080024644FF0013222FA03F3DA0704D440F2731167
S315080024742C48FEF775F80023C4E904338CE7072BC8
S31508002484F4D9294A22FA03F3DB07F4D440F2731188
S315080024942448FEF765F8EEE7072B7FF65DAF224A78
S315080024A422FA03F3DD077FF557AF5AE7204684F887
S315080024B45020FEF7E9F8A06A00F4005075E74FF4D7
S315080024C4B2711848FEF74CF857E74FF4AE71154841
S315080024D4FEF746F8E369002B3FF443AF30E70120E3
S315080024E47047E369002B3FF457AF182B0FD9203BED
S315080024F4182B06D84FF0013222FA03F3D8073FF512
S315080025044BAF40F269110748FEF72AF844E7072B50
S31508002514F7D9054A22FA03F3D907F2D53CE700BFEF
S315080025240030014054EA00080001010128B3036899
S31508002534134A10B5934204460DD0A2F57842934245
S3150800254409D002F58062934205D04FF4EC710D4828
S31508002554FEF706F82368022284F851201A682046F2
S3150800256422F040021A60FEF7FBF80023636584F83C
S31508002574503084F85130184610BD0120704700BF0A
S315080025840030014054EA00082DE9F0411D468368ED
S31508002594044633F400430F46904684B004D040F210
S315080025A421318848FDF7DCFFFEF7E8FA94F8512054
S315080025B40646012AD3B27CD1002F76D0B8F1000F93
S315080025C473D094F85020012A73D0032284F850302B
S315080025D4002384F85120A3636365A387A4F836808F
S315080025E42364E3876364A3682068B3F5004F014650
S315080025F42763A4F8348007D1036823F040030360F3
S31508002604036843F48043036003685B0656D5E368AE
S315080026146268B3F5006F5AD0002A40F09D803B7873
S315080026240373E38E226B013B01329BB22263E3867A
S31508002634E38E9BB2A3B1681C7DD123689A6891077F
S3150800264440F18F80226B12781A73E28E236B013A5B
S3150800265492B2E286E28E013392B22363002AECD167
S3150800266401222B46022120460096FFF7C7FD0246A3
S3150800267400287ED12B46802120460096FFF7BEFD12
S31508002684002876D1A36833B922680393D3680393E1
S3150800269493680393039B0123002284F85130636DE6
S315080026A484F850209B1A18BF0123184604B0BDE8C5
S315080026B4F0810223184604B0BDE8F0810368626815
S315080026C443F040030360E368B3F5006FA4D1002A1E
S315080026D46ED0B8F1010F6BD0E38E9BB2002BBFD03E
S315080026E46B1C5CD183689F070FD5226B32F8023BBB
S315080026F4C360E38E2263013B9BB2E386E38E9BB2FF
S31508002704002BADD083689F07EFD4FEF737FAE38E24
S315080027149BB2002BA4D02068E4E7226B12781A73C4
S31508002724E38E226B013B01329BB22263E386E38E7E
S315080027349BB2002B94D023689A689207EDD4FEF7CF
S315080027441DFA831BAB42F2D30123002284F85130CD
S3150800275484F850200323A8E7B8F1010F7FF468AF83
S315080027645DE7FEF70BFAE38E9BB2002B7FF465AFA9
S3150800277476E7636D43F0200363652023636581E789
S31508002784226B32F8023BCB60E38E2263013B9BB299
S31508002794E386E38E9BB2002B3FF462AF21688B6815
S315080027A49A07EDD4FEF7EAF9831BAB42F1D3CBE7DC
S315080027B437F8023BC360E38E2763013B9BB2E3868B
S315080027C48AE700BF54EA00082DE9F0431F468368E8
S315080027D485B00446884691460C9E002B40F08B80B3
S315080027E4FEF7CCF994F851300546012B6268D9B244
S315080027F407D0B2F5827F7AD1A368002B77D1042952
S3150800280475D1B8F1000F00F0F180B9F1000F00F0AE
S31508002814ED80002F00F0EA8094F85030012B66D042
S31508002824012384F8503094F851302168042B1CBFD6
S31508002834052384F8513000236365E787E786C4E9EE
S3150800284410330B68C4F838905806A787C4F8308044
S31508002854A78603D40B6843F040030B60E368B3F51B
S31508002864006F4ED0002A00F0AD80012F00F0AA8038
S315080028740127E38E9BB21BB9E38F9BB2002B7DD055
S315080028842268936899070FD5E38E9BB263B15FB14B
S315080028940027236B1B781373E38E226B013B0132EB
S315080028A422639BB22268E386936813F001030DD072
S315080028B4E18F89B251B1D2681F46A36B1A70A36B14
S315080028C40133A363E38F013B9BB2E387FEF756F913
S315080028D4401BB042CDD3731CCBD00123032084F80C
S315080028E45130002384F8503005B0BDE8F083022047
S315080028F405B0BDE8F0834FF495615748FDF730FEFF
S315080029046EE7002A74D1424632F8023BCB60E38E66
S315080029142263013B9BB2E386731C4FF0010725D063
S3150800292469E02268936898070DD5E38E9BB253B184
S3150800293447B1236B33F8021BD1602363E38E013B53
S315080029449BB2E3860027936813F001030CD0E18F4A
S3150800295489B249B1D2681F46A36B23F8022BA36335
S31508002964E38F013B9BB2E387FEF708F9E38E9BB23C
S31508002974002BD6D1E38F9BB2002BD2D1012233464A
S31508002984022120460095FFF739FC024628BB334648
S31508002994802120460095FFF731FCF0B9A36833B9C6
S315080029A422680393D368039393680393039B0122D2
S315080029B4002384F85120606D84F85030C01A18BF7B
S315080029C4012095E798F800300B73E38E226B013BE0
S315080029D401329BB22263E3864AE7636D202243F001
S315080029E4200363650023626584F8503001207FE77D
S315080029F4012F91D187E7E38E9BB21BB9E38F9BB274
S31508002A04002BBBD02268936899070DD5E38E9BB239
S31508002A1453B147B1236B33F8021BD1602363E38EAA
S31508002A24013B9BB2E3860027936813F001030CD09D
S31508002A34E18F89B249B1D2681F46A36B23F8022BEA
S31508002A44A363E38F013B9BB2E387FEF797F8401B2A
S31508002A54B042D0D341E700BF54EA00082DE9F04359
S31508002A641D4690F8513083B0012B75D15FFA83F86F
S31508002A7443680446B3F5827F1746894603D18368BB
S31508002A84002B00F0D080FEF779F80646B9F1000F5E
S31508002A945ED0002F5CD094F85030012B5CD0012214
S31508002AA484F850200422002384F85120A26821685F
S31508002AB4B2F5004F6365C4E910332363A386E78739
S31508002AC4C4F83890E386A7870B466CD00A68500684
S31508002AD403D40A6842F040020A60E268002A41D137
S31508002AE4E28F92B2CAB16F1C0ED074E01A7BA36B44
S31508002AF41A70E28FA16B013A92B2E287E38F013131
S31508002B049BB2A1634BB123689A68D007EED4FEF74B
S31508002B1435F8E38F9BB2002BF5D16368B3F5827F52
S31508002B2400F08B802B460022802120460096FFF772
S31508002B3465FB002840F098800123002284F8513070
S31508002B44636D84F85020B3EB020818BF4FF00108F0
S31508002B54404603B0BDE8F0834FF00208404603B090
S31508002B64BDE8F083E28F92B2002AD6D06A1C49D116
S31508002B748B68DB070FD5CA68A36B23F8022BE28F91
S31508002B84A363013A92B2E287E38F9BB2002BC4D0C7
S31508002B948B68DB07EFD4FDF7F1FFE38F9BB2002BBD
S31508002BA4BBD02168E4E70A6822F040020A600A6892
S31508002BB422F480420A6089E71A7BA36B1A70E38FB2
S31508002BC4A26B013B01329BB2A263E387E38F9BB2FC
S31508002BD4002BA2D023689A68D107EDD4FDF7CEFF5F
S31508002BE4831BAB42F2D315E0DB68A26B22F8023BE7
S31508002BF4E38FA263013B9BB2E387E38F9BB2002B6F
S31508002C048BD023689A68D207EED4FDF7B7FF831BE7
S31508002C14AB42F2D3012384F8513000234FF0030862
S31508002C2484F8503094E700950425134680F85150EB
S31508002C340A46FFF7C9FD80468AE7A368B3F5004F3D
S31508002C4419D0B3F5806F7FF46DAF21682B460A68F7
S31508002C54204622F040020A60002201210096FFF76E
S31508002C64CDFA00283FF468AF636D43F0200363652B
S31508002C742023636560E72268136823F04003136022
S31508002C8450E700BF002800F0DB8038B56D4A0368BA
S31508002C94044693421FD002F5006293421BD0B3F157
S31508002CA4804F18D0A2F59832934214D002F5806268
S31508002CB4934210D002F5806293420CD002F58062EA
S31508002CC4934208D002F58062934204D040F213116D
S31508002CD45D48FDF745FCA36833F010020AD023F0DB
S31508002CE44002202A06D0402B04D04FF48A71564855
S31508002CF4FDF736FC236933F4807234D14FF6FE723D
S31508002D04E368013B93423CD8A36933F0800341D17D
S31508002D1494F83D3003F0FF02002B46D002232268C4
S31508002D24484984F83D308A42136844D001F5006165
S31508002D348A4240D0B2F1804F70D0A1F598318A42C8
S31508002D446CD001F580618A4268D001F580618A42B7
S31508002D5464D0A5696168E06823F080032B43136097
S31508002D64D06291623AE0B3F5007FC7D040F21511FC
S31508002D743548FDF7F5FB4FF6FE72E368013B9342CF
S31508002D84C2D94FF48B713048FDF7EAFBA36933F0D7
S31508002D948003BDD040F217112B48FDF7E1FB94F8E8
S31508002DA43D3003F0FF02002BB8D1204684F83C20BE
S31508002DB4FDF7C2FDB2E7A06823F070032169034357
S31508002DC423F440730B43A16923F080030B43136078
S31508002DD4E368D36263689362636913630123536187
S31508002DE41369DB0703D5136923F001031361012370
S31508002DF484F8463084F83E3084F83F3084F840300E
S31508002E0484F8413084F8423084F8433084F84430F6
S31508002E1484F8453084F83D30002038BDA16823F095
S31508002E24700320690B4323F44073A169034323F019
S31508002E348003E0680B4361681360D0629162CDE752
S31508002E4401207047002C01408CEA0008294A0368CF
S31508002E5410B5934204461FD002F5006293421BD074
S31508002E64B3F1804F18D0A2F59832934214D002F5E4
S31508002E748062934210D002F5806293420CD002F528
S31508002E848062934208D002F58062934204D04FF4DC
S31508002E94E8711948FDF764FB94F83D30012B27D1F6
S31508002EA40222236884F83D20DA68124942F00102B6
S31508002EB48B42DA6011D0114A93420ED0B3F1804F97
S31508002EC40BD0A2F59832934207D002F5806293425A
S31508002ED403D002F58062934204D19A6802F007028D
S31508002EE4062A03D01A6842F001021A60002010BDAF
S31508002EF4012010BD002C01408CEA00080034014072
S31508002F04704700BF704700BF704700BF704700BFD7
S31508002F14036870B5DE681D690446A90701D5B207BA
S31508002F2451D4690701D572073AD42B0701D530075E
S31508002F3424D4EA0601D5F30610D4E80701D5F10727
S31508002F4457D42A0601D533065BD4680601D571061B
S31508002F545FD4AA0601D5B30642D470BD6FF010013A
S31508002F6408222368204619612277DB6913F4407F17
S31508002F7463D0FFF7C7FF00232377DEE76FF0080166
S31508002F8404222368204619612277DB69990751D1FF
S31508002F94FFF7B6FF2046FFF7B7FF00232377C8E7F6
S31508002FA46FF00401022223682046196122779B697F
S31508002FB413F4407F3BD1FFF7A3FF2046FFF7A4FF96
S31508002FC400232377B1E76FF002021A610122027720
S31508002FD49B699B0725D0FFF795FF00232377A0E776
S31508002FE46FF0200223682046BDE870401A6100F09D
S31508002FF4ADB86FF00102236820461A6103F0CAFBD4
S315080030049FE76FF08002236820461A6100F0A0F853
S315080030149BE76FF04002236820461A61FFF776FFA4
S3150800302497E7FFF76DFF2046FFF76EFFD5E7FFF733
S3150800303469FFC5E7FFF766FFAFE7FFF761FF2046BD
S31508003044FFF762FF97E700BF38B53D4A03680446B1
S3150800305493420D461FD002F5006293421BD0B3F18A
S31508003064804F18D0A2F59832934214D002F58062A4
S31508003074934210D002F5806293420CD002F5806226
S31508003084934208D002F58062934204D040F2A971B3
S315080030942C48FDF765FA2B6833F040020CD0402B18
S315080030A444D9602B08D023F02003502B04D040F2D7
S315080030B4AA712448FDF754FA6B6833F0800304D0E8
S315080030C440F2AB711F48FDF74BFA94F83C30012BDC
S315080030D433D00222236884F83D205A6829681848A0
S315080030E422F070020A43834299685A6011D0164A3C
S315080030F493420ED0B3F1804F0BD0A2F59832934287
S3150800310407D002F58062934203D002F580629342A7
S3150800311404D16A6821F080011143996000230122D1
S3150800312484F83C3084F83D20184638BD202BC3D09B
S3150800313423F02003102BBAD1BEE7022038BD00BF06
S31508003144002C0140C4EA000800340140704700BF5F
S31508003154704700BF38B54268344B04469A4255D87E
S31508003164E36833F4005304D040F676613048FDF73B
S31508003174F7F9236933F4806202D0B3F5C06F4FD1EF
S315080031844FF6F3736069184239D1002837D023689B
S31508003194E1681A69256922F440520A431A61D96812
S315080031A4A26821F4B05121F00C012A430A430243D0
S315080031B4DA605A69A0691F4922F4407202438B42B5
S315080031C45A6129D0FEF7ECFD0346626803EB8303D4
S315080031D4920003EB8303B3FBF2F34FF0640C164936
S315080031E42068A1FB034252090CFB12331B0132333C
S315080031F4A1FB0313120102EB5312826038BD0C487B
S3150800320440F67861FDF7ACF96069C0E740F6756188
S315080032140748FDF7A5F9A3E7FEF7D2FD0346D4E769
S3150800322440F677610248FDF79BF9A9E720AA44000E
S3150800323400EB0008003801401F85EB51002877D0C1
S31508003244826910B503680446002A44D039498B427A
S315080032545AD0A1F574418B4256D001F580618B4250
S3150800326452D04FF4B7713448FDF77AF9A269002AA7
S315080032744AD1A36833F4805304D040F275112E481A
S31508003284FDF76EF994F8413003F0FF02002B49D09C
S315080032942423226884F84130D368204623F4005353
S315080032A4D360FFF757FF00224FF0200C236810461F
S315080032B4196921F490411961596921F02A01596162
S315080032C4D96841F40051D960626484F841C084F82D
S315080032D442C0626310BD174A9342CAD0A2F574422B
S315080032E49342C6D002F580629342C2D002F5806248
S315080032F49342BED002F580629342BAD040F273116B
S315080033040D48FDF72DF9B4E722F40073B3F5807F71
S31508003314AFD0B2F5007FACD040F26F110648FDF786
S315080033241FF9A6E7204684F84020FDF75DFBAFE7C2
S31508003334012070470038014000EB00082DE9F843E6
S315080033441D4690F84130202B4BD1884609B11746C3
S3150800335412B90120BDE8F88321234FF00009044679
S31508003364C0F8449080F84130FDF708FCA368064687
S31508003374B3F5805FA784E78442D0E28C236892B2CF
S3150800338492B1681C22D11A681206FCD5B8F1000F4E
S3150800339422D018F8012B5A60E28C013A92B2E284E0
S315080033A4E28C92B2002AECD1691C25D11A6852061D
S315080033B4FCD52023002084F84130CBE7FDF7DEFB5B
S315080033C4801B854222D30DB32368DA681A68170668
S315080033D4F4D5B8F1000FDCD139F8022BC2F3080290
S315080033E4D9E70220BDE8F883FDF7C8FB831B9D4295
S315080033F40CD35DB12368DA681B685B06F4D5D8E795
S315080034042369002BB9D1C1469846B6E7202384F828
S3150800341441300320BDE8F8832DE9F0431F4690F8B0
S31508003424423083B0202B40F09E80884609B1164668
S315080034341AB9012003B0BDE8F08322234FF000092E
S315080034440446C0F8449080F84230C0F83090FDF73E
S3150800345495FBA3680546B3F5805FA685E68500F067
S3150800346486804E46E38D9BB2EBB17A1C236821D144
S315080034741A689106FCD5B8F1000F6ED0A268B2F5A9
S31508003484805F04D0002A64D12269002A61D15B686E
S31508003494DBB208F8013BE28D013A92B2E285E38D8C
S315080034A49BB2002BE1D12023002084F8423003B0DC
S315080034B4BDE8F0831A6812F02009DCD1FDF75EFB3B
S315080034C4401B87423ED3002F3CD02368DA6819464E
S315080034D45207EFD51A681007ECD5CDF804901A6888
S315080034E401925A680192019A03F10C0252E8002FDC
S315080034F422F490720C3343E8002058B101F10C030E
S3150800350453E8003F23F4907301F10C0040E80032BD
S31508003514002AF3D101F1140353E8003F23F0010311
S3150800352401F1140040E80032002AF3D1236B012B81
S3150800353424D000232021082284F8421084F840303D
S31508003544236362642023032084F8423003B0BDE871
S31508003554F0835B6803F07F039BE75B68C3F30803A8
S3150800356426F8023B97E7022003B0BDE8F0832369F7
S31508003574002B7FF476AF4646984673E701F10C03B1
S3150800358453E8003F23F0100301F10C0040E8003231
S31508003594002AF3D1CDE700BF90F84230202B20D182
S315080035A401B10AB90120704710B44FF0220C002467
S315080035B48162016904630368C2858285446480F86C
S315080035C442C019B1DA6842F48072DA605A69002096
S315080035D442F001025A61DA6810BC42F02002DA604D
S315080035E470470220704700BF10B50446036803F10C
S315080035F40C0252E8002F22F4F07203F10C0040E8A2
S3150800360400210029F3D103F1140252E8002F22F015
S31508003614010203F1140040E800210029F3D1226BCA
S31508003624012A3BD05A69110622D45A69520613D57F
S3150800363403F1140252E8002F22F0400203F11400A9
S3150800364440E800210029F3D1E06B28B10023436345
S31508003654FDF79CFB002837D100232022E384E38569
S31508003664636484F8422084F841201846236310BD15
S3150800367403F1140252E8002F22F0800203F1140029
S3150800368440E800210029F3D1A06B0028CDD00023FF
S315080036944363FDF77BFB70B92368C6E703F10C02A5
S315080036A452E8002F22F0100203F10C0040E8002132
S315080036B40029F3D1B6E7A06BFDF78CFB2028EBD1E4
S315080036C410230320636410BDE06BFDF783FB2028F9
S315080036D4C2D1F5E790F8412090F8420010437047AC
S315080036E408B50349034802F025FB034B187008BDC7
S315080036F40C0300200C000020100300200020704753
S3150800370408B500F049FA024B1870187808BD00BFCE
S315080037142000002008B500F057FB024B18701878F3
S3150800372408BD00BF2000002000F058BB00F0B0BB65
S3150800373400F054BC2DE9F04385B08146FDF71EFA26
S31508003744C8232B4D2B4C4FF0FF0832272A4E2860EE
S31508003754236006E0FDF712FA2A682368801A98425D
S3150800376442D2012330460DF10F020DF10E010097E6
S315080037748DF80E80FFF728F89DF80F30FF2BE9D057
S31508003784FE2B31D1FF2532261B4F09F1FF3409F2EE
S31508003794FF19012338460DF10F020DF10E010096AB
S315080037A48DF80E50FFF710F89DF80F3004F8013F16
S315080037B44C45EED10DF10F020DF10E0101230096D1
S315080037C40D488DF80E50FEF7FFFF01230DF10F0289
S315080037D40DF10E01009608488DF80E50FEF7F4FF19
S315080037E4012005B0BDE8F083002005B0BDE8F083EC
S315080037F41803002014030020D00100202DE9F04707
S3150800380484B081468A46FDF7B9F9C8232B4D2C4C5A
S315080038144FF0FF0832272B4E2860236006E0FDF799
S31508003824ADF92A682368801A984243D201233046A0
S315080038340DF10F020DF10E0100978DF80E80FEF7BB
S31508003844C3FF9DF80F30FF2BE9D0FE2B32D1FF259D
S3150800385432260AF1FF3A1B4F09F1FF34D1440123FA
S3150800386438460DF10F020DF10E0100968DF80E5033
S31508003874FEF7AAFF9DF80F3004F8013F4C45EED138
S315080038840DF10F020DF10E01012300960D488DF876
S315080038940E50FEF799FF01230DF10F020DF10E01EB
S315080038A4009608488DF80E50FEF78EFF012004B0E6
S315080038B4BDE8F087002004B0BDE8F08718030020AF
S315080038C414030020D00100202DE9F04385B080467A
S315080038D48946FDF753F9FF2732250446374E05E096
S315080038E4FDF74CF9001BB0F5FA7F20D201233046C8
S315080038F40DF10F020DF10E0100958DF80E70FEF70D
S3150800390463FF9DF80F30FF2BEAD101232B4800955E
S315080039140DF10F020DF10E018DF80E90FEF754FF0E
S31508003924B9F1FD0F07D1012005B0BDE8F0830020E9
S3150800393405B0BDE8F0833225204E08F1FF3408F2BD
S31508003944FF1814F8011F01238DF80E1030460DF1E7
S315080039540F0200950DF10E01FEF736FF4445F0D12E
S31508003964FF240DF10F020DF10E01012300951348F2
S315080039748DF80E40FEF728FF0DF10F020DF10E012A
S31508003984012300950D488DF80E40FEF71DFF01230F
S315080039940DF10F020DF10E01009508488DF80E4041
S315080039A4FEF712FF9DF80F0000F01F00A0F10500B6
S315080039B4B0FA80F0400905B0BDE8F083D0010020D4
S315080039C42DE9F04F030680468B4685B000F1D58075
S315080039D4B8F10C0F00F0BA80012210216C48FDF7EB
S315080039E4B5FC32276B48FF2482460DF10F060DF10C
S315080039F40E0501233246294600978DF80E40FEF738
S31508003A04E3FE002210216248FDF7A0FC012332469A
S31508003A142946504600978DF80E40FEF7D5FEFDF769
S31508003A24ADF8814607E0FDF7A9F8A0EB0900B0F563
S31508003A34FA7F80F090800123324629465046009743
S31508003A448DF80E40FEF7C0FE9DF80F30FF2BEAD125
S31508003A54322448F04003324629468DF80E304D4844
S31508003A6401230094FEF7B0FE4FEA1B670123324692
S31508003A742946484800948DF80E70FEF7A5FE4FEACD
S31508003A841B47012332462946424800948DF80E7096
S31508003A94FEF79AFE4FEA1B270123324629463D487C
S31508003AA400948DF80E70FEF78FFE012332462946E0
S31508003AB4384800948DF80EB0FEF786FEB8F1000F6C
S31508003AC428D1952232248DF80E2001233246294620
S31508003AD430480094FEF778FE0A244FF0FF094FF0A9
S31508003AE432082C4F0123324629463846CDF8008041
S31508003AF48DF80E90FEF768FE9DF90F209DF80F00CD
S31508003B04002A04F1FF3302DA13F0FF04EAD105B000
S31508003B14BDE8F08FB8F1080F38D001273246294698
S31508003B243B461C4800948DF80E70FEF74DFEB8F11E
S31508003B340C0FD1D14FF0FF0C3B4632462946009470
S31508003B4414488DF80EC0FEF73FFEC5E70DF10F06C3
S31508003B540DF10E057CE7012210210D48FDF7F6FB51
S31508003B6401233246294600970A488DF80E40FEF787
S31508003B742BFEFF2005B0BDE8F08F00213720FFF7A4
S31508003B841FFF0128C3D808F07F0821E7872299E791
S31508003B9400080140D0010020002844D12DE9F04F47
S31508003BA4834D87B02B789B0738D40A264FF0FF0835
S31508003BB43227804C2268136823F0380343F0300315
S31508003BC413600123204605AA0DF113010097013E4F
S31508003BD48DF81380FEF7F8FD16F0FF06F1D131468D
S31508003BE43046FFF7EDFE012881461ED00DF1120678
S31508003BF40024714B32271C70FF24012210216F48C0
S31508003C04FDF7A4FB012331466A480DF11302009718
S31508003C148DF81240FEF7D8FD01232B702878C0B220
S31508003C2407B0BDE8F08F01207047FCF7A7FF4FF4F3
S31508003C347A73DFF88C81634FC8F800004FF4D571A6
S31508003C4408203B60FFF7BCFE012860D105AB4FF0A6
S31508003C54FF0B994603930DF1180A0DF11206322348
S31508003C6431460093534801230DF113028DF812B01F
S31508003C74FEF7AAFD9DF8133009F8013BD145EED1AC
S31508003C849DF81630012BB3D19DF81730AA2BAFD166
S31508003C9405E04FF08041A920FFF792FE38B1FCF702
S31508003CA46DFFD8F800303A68C31A9342F1D3FCF78B
S31508003CB465FFD8F800303A68C31A934298D20021AF
S31508003CC43A20FFF77DFE002892D14FF0FF094FF006
S31508003CD43208384FDDF80CB0012331463846CDF8A2
S31508003CE400800DF113028DF81290FEF76DFD9DF814
S31508003CF413300BF8013BD345EED19DF8143013F07D
S31508003D04400F14BF4FF00C0A4FF0040A2CE031465A
S31508003D14A920FFF755FE012896BF4FF0A9094FF0D1
S31508003D24010A4FF0020A04E000214846FFF748FE5C
S31508003D3438B1FCF723FFD8F800203B68801A98426C
S31508003D44F2D3FCF71BFFD8F800303A68C31A93423B
S31508003D54BFF44CAF4FF400711020FFF731FE0DF19C
S31508003D64120600287FF444AF134B0122102113488E
S31508003D7483F800A0FDF7EAFAFF2332200DF11302B7
S31508003D8400908DF81230314601230A48FEF71CFDCF
S31508003D942268136823F0380343F0100313602B7862
S31508003DA403F0FE032B702878C0B207B0BDE8F08F85
S31508003DB421000020D00100201C0300200008014037
S31508003DC4180300201403002018B9034B1878C0B24E
S31508003DD470470120704700BF2100002070B584B0E9
S31508003DE4002839D11C46002B36D0254B1B78D8071A
S31508003DF436D4244B0E461B781B0758BF5202012C97
S31508003E04114631D01220FFF7DBFD0546B8B101256E
S31508003E143226FF24012210211B48FDF797FA0123B5
S31508003E240DF10F020DF10E01009618488DF80E409B
S31508003E34FEF7CAFC284604B070BD013C07D03046DC
S31508003E44FFF778FC06F500760028F6D1012500214F
S31508003E540C20FFF7B5FDDBE70425284604B070BD42
S31508003E640325284604B070BD1120FFF7A9FD0028D4
S31508003E74CDD13046FFF75EFCB0FA80F56D09C7E789
S31508003E84210000201C03002000080140D001002066
S31508003E942DE9F04786B0002870D11C46002B6DD05A
S31508003EA44A4B0D461978CE076DD41B7858076FD43C
S31508003EB4474B1B78190758BF5202012C74D013F0CC
S31508003EC4060F6AD111461920FFF77AFDE0B10DF104
S31508003ED417060DF116050124012210213D48FDF7A8
S31508003EE435FA4FF0320CFF27324629460123CDF81E
S31508003EF400C039488DF81670FEF766FC204606B0F1
S31508003F04BDE8F087013C07D02846FC21FFF7DCFC16
S31508003F1405F500750028F5D1FCF730FE4FF0FF0AC9
S31508003F244FF032080746DFF8B0900DF117060DF189
S31508003F34160505E0FCF722FEC01BB0F5FA7FCAD2C7
S31508003F440123324629464846CDF800808DF816A046
S31508003F54FEF73AFC9DF81730FF2BEBD1FD27003C02
S31508003F644FF0010332462946CDF800801A4818BF97
S31508003F7401248DF81670FEF727FCADE704242046C5
S31508003F8406B0BDE8F0870324204606B0BDE8F087EE
S31508003F940224204606B0BDE8F087214697200392FE
S31508003FA4FFF70EFD039A8DE711461820FFF708FD63
S31508003FB400288CD12846FE21FFF786FCB0FA80F447
S31508003FC40DF117060DF11605640985E72100002091
S31508003FD41C03002000080140D00100202DE9F04F01
S31508003FE489B070B9C64B1C7814F0010440F0D88027
S31508003FF41546042900F2CE80DFE801F02956CC8D57
S3150800400408000424204609B0BDE8F08FBD4C237887
S3150800401413F0060F40F0FF800DF10F0601240DF191
S315080040240E0701221021B848FDF790F94FF0320C1B
S31508004034FF25324639460123CDF800C0B3488DF82A
S315080040440E50FEF7C1FB204609B0BDE8F08F3227B3
S31508004054FF2500221021AC48FDF778F90DF10F066B
S31508004064AA480123314604AA009781468DF80F50C1
S31508004074FEF7AAFBFCF782FD804607E0FCF77EFD07
S31508004084A0EB0800B0F5FA7F80F0B680012331462C
S31508004094484604AA00978DF80F50FEF795FB9DF83D
S315080040A41030FF2BEAD178E000210920FFF788FCBD
S315080040B40028B1D110210DEB0100FFF79FFB002862
S315080040C4AAD09DF810109DF81920890901299DF890
S315080040D418009DF8173000F0F3809B0003EB90134B
S315080040E49DF81600520002F00601820202F44062AC
S315080040F413449DF815209DF81A0002F00F0202EBEE
S31508004104D0120A440133073A93402B600DF10F0687
S315080041140DF10E0785E77B4E317811F0040144D082
S3150800412400218D20FFF74CFC00287FF475AF4FF073
S3150800413432094FF0FF080DF10F0631460123734883
S3150800414404AACDF800908DF80F80FEF73DFB1021E8
S3150800415404A8FFF753FB00283FF460AF4FF0300B79
S31508004164DFF8A8A10DF10E07012332463946504659
S31508004174CDF800908DF80E80FEF726FB0BF1FF3381
S3150800418413F0FF0BF0D110239DF81A20120993405F
S315080041942B6046E704240DF10F060DF10E0740E7E0
S315080041A40324204609B0BDE8F08F0920FFF708FC70
S315080041B400287FF431AF10210DEB0100FFF71EFB39
S315080041C400283FF429AF32789DF81A3092079DF8F3
S315080041D41B1040F185809DF81D205B0003F07E03CB
S315080041E403EBD11392090133013A93402B600DF185
S315080041F40F060DF10E0714E7012210214248FDF7B8
S31508004204A5F80123314604AA009740488DF80F50B3
S31508004214FEF7DAFA02E70B21002004AAFFF7DEFE0E
S3150800422400287FF4F9AE9DF81A309DF8102003F0A3
S31508004234400353EA92133FF4EFAE23782020D5E9DE
S3150800424400141B075CBF49026402FFF7B9FB002888
S315080042547FF4E2AE21462120FFF7B2FB00287FF463
S31508004264DBAE01462620FFF7ABFB00287FF4D4AE6D
S31508004274FCF784FC4FF0FF094FF032080546234C3F
S315080042840DF10F060DF10E0706E0FCF777FC47F271
S315080042942F52431B93420ED80123324639462046F1
S315080042A4CDF800808DF80E90FEF78EFA9DF80FA0D3
S315080042B4BAF1FF0FE9D1BAF1FF0418BF0124B0E639
S315080042C4BDF818201B0452BA92B203F47C131344A3
S315080042D401339B022B600DF10F060DF10E07A0E6C4
S315080042E4CA0002F01802C3F3840302EB5112013325
S315080042F402FB03330DF10F060DF10E072B6090E652
S31508004304210000201C03002000080140D0010020E1
S31508004314034B03EB8002526803445268187A104729
S3150800432440030020084A0346115C51B94FF0010CBA
S3150800433402EB80014968101802F803C0007A0B687A
S3150800434418470020704700BF4003002030B4054CCE
S3150800435404EB80056D680444AD68207AAC4630BC2D
S31508004364604700BF4003002030B4054C04EB8005C9
S315080043746D680444ED68207AAC4630BC604700BFDB
S3150800438440030020044B03EB000C03EB80035B683B
S315080043949CF808001B691847400300202B4B30B5CE
S315080043A41A68D0F800428446944224D0D868A042B9
S315080043B404D082B3002846D0002030BD1D69DCF83D
S315080043C408E27545F5D19D8ABCF806E2754508BF2D
S315080043D40122EED102EB420003EB8000408954002F
S315080043E4A9B10028E8D14FF48071501C144403EB9A
S315080043F48403598130BDD0F808025D688542D5D159
S315080044041D89BCF806028542D0D10022E2E7411C88
S3150800441489B2501CEAE701204FF0000E002902EB8E
S31508004424420143F82140DCF8084203EB81014C6061
S31508004434BCF80642A1F80AE00C8114BF4FF4807157
S3150800444401215400D2E702200122E5E720030020D7
S3150800445470B54FF0FF360023B142044680F80432A3
S31508004464C0F82C6218D14AF65523B4F8FE219A42AC
S315080044740ED1D4F83630104A23F07F43934209D03C
S31508004484D4F8520020F07F40801A18BF012070BD6E
S31508004494022070BD002070BD0D460A460123014660
S315080044A490F80102FFF752FF18B10320C4F82C62F2
S315080044B470BDC4F82C52D6E74641540070B590F83E
S315080044C4043204466BB994F80032032B31D0002227
S315080044D494F801021146FFF755FF003818BF01206A
S315080044E470BDD0F82C52014601232A4690F80102E1
S315080044F4FFF73AFFD8B9D4F82022D4F81832AA1A02
S315080045049A4284F80402DED294F80362012E02D891
S31508004514D9E7D4F818321D442A460123214694F8CB
S315080045240102013EFFF720FF012EF2D1CBE701205D
S3150800453470BD94F80552012DC9D14FF400720021BB
S31508004544204609F00BFA4AF655210F48D4F81C22DE
S31508004554D4F80C322060A4F8FE11D4F810020B49E2
S315080045640132C4F8EC31C4F8E8012B46C4F8E41166
S3150800457494F801022146C4F82C22FFF7F5FE00231D
S3150800458484F80532A3E700BF525261417272416151
S31508004594F8B5D0F82C528D4201D10020F8BD90F818
S315080045A4043204460E4690F8010263B932460123E2
S315080045B42146FFF7CBFE00281CBF4FF0FF3601202B
S315080045C4C4F82C62F8BD01232A462146FFF7CCFE1F
S315080045D4E8B9D4F82022D4F81832AA1A9A4284F8E8
S315080045E4040211D294F80372012F02D80CE0D4F80D
S315080045F418321D442A460123214694F80102013F34
S31508004604FFF7B2FE012FF2D194F80102CEE701209A
S31508004614F8BD00BF00232DE9F0410C6803608CB196
S3150800462415462278202A13D91346A44603E01CF813
S31508004634013F202B0CD93A2BF9D1302A02D1013467
S31508004644A44502D00B20BDE8F0810CF101030B60F0
S31508004654A64B1C68002C00F0CF80046094F8003246
S315080046645BB194F80102FFF753FEC30705D415B1ED
S31508004674470700F1BE80002096E00020A4F8000257
S31508004684FFF750FEC60700F1918015B1450700F102
S31508004694B08000212046FFF7DBFE012800F0898060
S315080046A4032800F0B480054600287CD1B4F80B3002
S315080046B4B3F5007F77D1E18A01B9616A227CC4F82F
S315080046C41812531E012B84F803226CD8637B84F8D2
S315080046D40232002B67D0581E184264D1B4F8116010
S315080046E43007A4F808625ED1B4F8130000B9206A4A
S315080046F4B4F80EC0BCF1000F55D001FB02F20CEB66
S3150800470416171744B8424ED3C01B9842B0FBF3FEA3
S3150800471449D30CEB050340F6F57CE6452F440EF128
S31508004724020000F29280C4F81C52C4F82872C4F835
S315080047341402C4F82032002E35D001251A4400EBA1
S31508004744400300F0010000EB530000F2FF10B1EB48
S31508004754502FC4F8242226D34FF0FF338022C4E90D
S31508004764833384F805226249624A0B881068013348
S315080047749BB2A0420B80A4F8063204BF0023136040
S31508004784D36884F800529C427FF475AF0023D36043
S3150800479471E7D4F8F651002E46D1002F4DD1B8F161
S315080047A4000F38D155BB0D20BDE8F0810320BDE8C4
S315080047B4F08194F8C2610EB1D4F8C66194F8D27146
S315080047C40FB1D4F8D67194F8E23113B3D4F8E6816C
S315080047D494F8F251002DDCD136BB6FBBB8F1000F4B
S315080047E4E1D041462046FFF733FE0028DBD1454693
S315080047F45CE70A20BDE8F0810C20D5E72946204667
S31508004804FFF726FE00283FF451AF0328CBD1012039
S31508004814CAE79846DCE741462046FFF719FE002812
S31508004824E5D0002DEAD1BEE731462046FFF710FE53
S315080048340028B2D1354639E7354639462046FFF7CA
S3150800484407FE0028ABD13D4630E74FF6F57CE64532
S315080048540DD8C4F81C52C4F82872C4F81402C4F853
S315080048642032002E9FD002251A4440006DE7C4F872
S315080048742032C4F82872C4F81402C4F81C52002E54
S3150800488491D18300E26A03F2FF13B1EB532FC4F804
S31508004894242288D34FF0FF338021228EC4E9833340
S315080048A4012A84F8051201D003255CE72046691C11
S315080048B4FFF76EFE0028F7D14AF65523B4F8FE2111
S315080048C484F805629A42EFD10B4B22689A42EBD1DF
S315080048D403F1FF53D4F8E42103F5005320339A4235
S315080048E404BFD4E97A23C4E98332DDE73C03002014
S315080048F4380300202003002052526141F8B590F88D
S3150800490400320646022B0C4605D0032B1FD0012B7A
S3150800491411D00120F8BDD0F8201201EB1421FFF7BD
S3150800492437FE88B9640004F4FF7433195B78305D84
S3150800493440EA0320F8BDD0F8201204EB540501EB35
S315080049445521FFF725FED8B14FF0FF30F8BDD0F852
S31508004954201201EBD411FFF71BFE0028F4D1A400A2
S3150800496404F4FE7432199378D578315D180440EA54
S3150800497405605378084340EA032020F07040F8BDE8
S31508004984D6F820126F1C3046C5F3080501EB5721EB
S31508004994755DFFF7FDFD0028D6D1C7F30807F35D5B
S315080049A445EA0320E3074CBF0009C0F30B00F8BD32
S315080049B42DE9F0470E46D0E982156D1A954228BFAF
S315080049C41546002D50D004461F46C1F30802002A96
S315080049D466D1D4F800C24B0A9CF80202421E02EAC7
S315080049E4512212F0FF087AD0D4F81402DCF81432F3
S315080049F40238023B984280F084809CF80212DCF864
S31508004A04282201FB0022002A7BD0B5F5007F02EBA1
S31508004A1408092BD308EB552399424FEA552A38BF80
S31508004A24A1EB080A53464A4631469CF80102FFF7A9
S31508004A348DFC002840F0A58094F806325A0606D55F
S31508004A44D4F81832A3EB09039A4500F2BF804FEA5B
S31508004A544A20D4F808123B68014403442D1AC4F8C2
S31508004A64081206443B60B0D100204EE0D4F8182260
S31508004A7491450FD094F806329CF801025B0600F1C2
S31508004A84868001234A4621469CF80102FFF75EFC0C
S31508004A94002876D1D4F80822C4F81892C2F308027A
S31508004AA4C2F50070A84228BF284600F1FF3E2244FA
S31508004AB4BEF1050F02F1010C03D9A6EB0C03022B78
S31508004AC435D80EF1010E7244731E01E00CF1010C87
S31508004AD41CF8011C944503F8011FF7D1B9E7B1B9CD
S31508004AE4D4F8100201280CD9411C4AD0D4F800C2C3
S31508004AF4C4F81402DCF814320238023B9842FFF474
S31508004B047CAF0223184684F80732BDE8F087D4F848
S31508004B142422002A4AD1D4F814120129F1D9DCF83E
S31508004B2414329942EDD26046FFF7E8FEDAE71346F7
S31508004B3431460EF1010929F00308904453F804CBD1
S31508004B44434541F804CBF9D129F0030319F0030FBF
S31508004B54AEEB030106EB030C02EB030E3FF479AF4D
S31508004B64D25CF25400293FF474AF9EF8013001294F
S31508004B748CF801303FF46DAF9EF802308CF80230A1
S31508004B8467E7012384F807321846BDE8F08701234E
S31508004B942146FFF7E9FB0028F3D194F80632D4F846
S31508004BA400C223F0400384F806326AE7B3FBF0F048
S31508004BB4536804322BB9A4E7C01A52F8083F002BED
S31508004BC49FD09842F8D2536818448BE706EB4323E0
S31508004BD4621C9A1A022A09D9224603F5007052F869
S31508004BE4041B43F8041B9842F9D130E72246013BDB
S31508004BF404F5007012F8011B824203F8011FF9D16B
S31508004C0425E700BF2DE9F84390F800720546022F00
S31508004C140E46144606D0032F3DD0012F13D002208A
S31508004C24BDE8F883D0F8201201EB1621FFF7B0FC93
S31508004C340028F5D1760006F4FF76AB19C4F30722EB
S31508004C44AC555A7040E0D0F8201206EB560901EB31
S31508004C545921FFF79DFC0028E2D1D5F8201209F165
S31508004C640108F307C9F3080901EB582132D515F8E9
S31508004C740930284603F00F0343EA041305F80930FC
S31508004C8485F80472FFF784FC0028C9D1C8F308081C
S31508004C94C4F3071330E0D0F8201201EBD611FFF75E
S31508004CA477FC0028BCD1B60006F4FE76AA19D37898
S31508004CB41B0603F070432343C3F30721AB55517016
S31508004CC4190C1B0E9170D370012385F80432002049
S31508004CD4BDE8F88305F80940284685F80472FFF705
S31508004CE457FC00289CD1C8F3080815F80830C4F303
S31508004CF4032423F00F03234305F80830E4E700BF31
S31508004D042DE9F84305460F46002958D1D0F80C6218
S31508004D14D0F81432002E00F0B9809E4228BF01262E
S31508004D24344601349C425DD295F80032022B75D084
S31508004D34032B00F08C80012B58D1D5F8201204EBF4
S31508004D445408284601EB5821FFF722FC002860D1B5
S31508004D54D5F8201208F101092846C8F3080801EB1A
S31508004D64592115F80880FFF713FC002851D1C9F317
S31508004D74080915F80930E10748EA032840F188804C
S31508004D845FEA18135CD1D5F81432A3422ED96FF012
S31508004D94704221462846FFF735FFC0BB57BBD5F8F6
S31508004DA41032C5F80C425A1C21D095F80522013B4D
S31508004DB442F00102C5F8103285F8052217E00129E8
S31508004DC414D0D0F81432994210D2FFF797FD01286F
S31508004DD404460BD9601C1CD0D5F81432A34206D855
S31508004DE43E469DE7012E4DD0022B56D80124204677
S31508004DF4BDE8F883012FF9D0D5F814329F42F5D2CD
S31508004E04224639462846FFF7FDFE0028C7D0012862
S31508004E14ECD14FF0FF342046BDE8F883D5F82012CC
S31508004E24284601EB1421FFF7B3FB0028F1D16300F0
S31508004E3403F4FF73EA185278EB5C53EA0223A2D010
S31508004E44012BD3D0A6421DD0D5F8143269E7D5F87C
S31508004E542012284601EBD411FFF79AFB0028D8D173
S31508004E64A30003F4FE73EA18E95C9378D0781B046C
S31508004E74527843EA00630B4343EA022333F0704350
S31508004E84DED180E700242046BDE8F883012647E7FB
S31508004E94C8F30B03002BD3D175E7022444E700BFFC
S31508004EA42DE9F047D0F808420646012CA0F8061268
S31508004EB44BD0D0F80052D5F81432A34245D90F4640
S31508004EC4002C45D095F80222B1EB021F4FEA0218CE
S31508004ED471D39C4239D295F80032022B00F08480B3
S31508004EE4032B43D0012B30D1D5F8201204EB5409F7
S31508004EF4284601EB5921FFF74BFBA0BBD5F8201236
S31508004F0409F1010A2846C9F3080901EB5A2115F8DB
S31508004F140990FFF73DFB30BBCAF3080A15F80A30B7
S31508004F2449EA0329E3074CBF4FEA1914C9F30B04EA
S31508004F3435E0D5F8241279B195F80222B7EB021FA9
S31508004F444FEA021865D3012965D10220BDE8F08726
S31508004F5495F80022032AECD0B5F80832BB42F4D9F6
S31508004F64D5F8243231E00120BDE8F087D5F82012BF
S31508004F74284601EBD411FFF70BFB0028F3D1A40054
S31508004F8404F4FE742B192A5D9C78D97824045B787A
S31508004F9444EA0164144344EA032424F07044012CCB
S31508004FA4D3D9D6F80052D5F81432A342CDD9A7EBF3
S31508004FB4080747458DD2023BA21E9A4226D295F887
S31508004FC40212D5F8283202FB0133C6F80C42002B2C
S31508004FD4BBD007F00F0203EB171305EB42120020B0
S31508004FE4C6E98432BDE8F087D5F82012284601EBD5
S31508004FF41421FFF7CDFA0028B5D1640004F4FF7430
S315080050042B195B782C5D44EA0324C8E7C6F80C42DE
S315080050149BE70C46CFE70C465BE700BF2DE9F04754
S315080050240B7889462F2B044634D05C2B32D00025C6
S31508005034C4F8085299F800301F2B34D9D4F81852FA
S31508005044DFF8A4A249460A780B462F2A084601F136
S315080050540101F8D05C2AF6D04FF02032202142F222
S3150800506420062A606A602E81A9721A788A420ED9A5
S315080050744FF0000C4FF0080E4FF0010967462F2A2F
S315080050844DD05C2A4BD02E2A15D0BE4526D80620EC
S31508005094BDE8F087002509F10109C4F8085299F812
S315080050A400301F2BCAD829462046FFF7F9FEC4F854
S315080050B41452BDE8F087BEF1080FE8D177464FF0E1
S315080050C40B0E4FEA8C0C5FFA8CFC10F8012F09F1D1
S315080050D40109202AD3D89944042324E0110604D5C7
S315080050E4803A1AF802204CF0030C22267F49B24271
S315080050F4CDD011F8016F002EF9D1A2F14101192979
S3150800510404D84CF0020CEA550137DEE7A2F1610136
S315080051141929F8D8203A4CF0010CD2B2F3E799448D
S31508005124002FB4D000232A78E52A04BF05222A7062
S31508005134BEF1080F00F011810CF00302012A01D117
S3150800514443F010030CF00C0CBCF1040F08BF43F039
S31508005154080300212046EB72FFF7A2FE002840F060
S31508005164F580D4F80072D4F81062D7F82C52B542F8
S3150800517415D097F8043297F80102002B40F08A807C
S31508005184012332463946FFF7E1F830B14FF0FF33D1
S31508005194C7F82C320120BDE8F087C7F82C62D4F88A
S315080051A41432197819B3DA7A12F0080027D0B4F849
S315080051B406520135ABB2D3B1D4F81062BEB115F0BC
S315080051C40F08D4F800720BD1D4F80C120136C4F8BF
S315080051D41062002940F08C80B7F808329D4206D246
S315080051E407EB4813A4F80652C4F81432BDE7D4F8FA
S315080051F41832DB7A590700F1B580052048E7D4F858
S31508005204185295F800C08C45D1D195F801C0597843
S315080052148C45CCD195F802C099788C45C7D193F8BA
S3150800522403C0E9788C45C2D193F804C029798C4522
S31508005234BDD193F805C069798C45B8D193F806C0F1
S31508005244A9798C45B3D193F807C0E9798C45AED1D1
S3150800525493F808C0297A8C45A9D193F809C0697AC4
S315080052648C45A4D193F80AC0A97A8C459FD1E97ACA
S315080052744E073FF50DAFD206BFD5D4F800125A8BA8
S3150800528491F80012032904BF9B8A42EA0342C4F830
S315080052940822D7E601232A463946FFF765F8002887
S315080052A47FF478AFD7F82022D7F81832AA1A9A4288
S315080052B487F8040214D297F80382B8F1010F02D8CA
S315080052C40EE0D7F818321D442A460123394697F8C2
S315080052D4010208F1FF38FFF747F8B8F1010FF0D1DA
S315080052E497F801024CE700BF4CEB00083CEB0008BA
S315080052F497F80232013B13EA15137FF471AF0129BB
S3150800530422D0D7F8143299421ED23846FFF7F6FA55
S31508005314012819D9471C3FF43DAFD4F80072D7F8D1
S3150800532414329842BFF463AF023BC4F80C02023845
S3150800533498422FBF002697F80222D7F8283200FB96
S315080053440236C4F810624BE70220A1E6D4F81832F4
S315080053540428DB7A3FF44EAF9AE64FEA8C0C5FFAE0
S315080053648CFCEFE6042093E62DE9F04F002183B088
S315080053740446FFF795FD002840F02481D4F800522E
S31508005384D4F810A2D5F82C62564516D095F80432EE
S3150800539495F80102002B64D1012352462946FEF7EB
S315080053A4D5FF40B14FF0FF33C5F82C320125284606
S315080053B403B0BDE8F08FC5F82CA2D4F814321B78D4
S315080053C4E52B00D043BBD4F81012D4F80002FFF73B
S315080053D4DFF805460028EAD101462022D4F814024B
S315080053E408F0BCFAD4E98532511C591A022940F24C
S315080053F417811168196051685960117A284619721B
S31508005404517A5972917A01229972D4F8003283F842
S31508005414042203B0BDE8F08FB4F806620136B3B2CD
S31508005424002B00F0D380D4F810A2BAF1000F00F0D4
S31508005434CD8016F00F07D4F800520BD1D4F80C120D
S315080054440AF1010AC4F810A219BBB5F808329E423B
S3150800545480F0BC8005EB4717A4F80662C4F81472FA
S3150800546490E7012332462946FEF77EFF00289DD1A0
S31508005474D5F82022D5F81832B21A9A4285F80402C9
S3150800548404D295F80372012F00F2A48095F801025C
S3150800549482E795F80232013B13EA1613DAD1012999
S315080054A400F0A680D5F81432994280F0A1802846E7
S315080054B4FFF724FA0128804640F29A80B0F1FF3FAC
S315080054C43FF474AFD4F80052D5F814329842C0F0B9
S315080054D494802846D4F80C12FFF712FC804600285C
S315080054E474D0012800F08480B0F1FF3F3FF45EAF2A
S315080054F4D4F8005295F80432002B40F0A2804FF4F9
